:100000000C945D010C940E150C94E3140C94B8142C
:100010000C948D140C9462140C9437140C940C14DE
:100020000C94E1130C948E010C948E010C948E01AF
:100030000C948E010C948E010C948E010C948E0104
:100040000C948E010C948E010C948E010C948E01F4
:100050000C948E010C948E010C948E010C949713C9
:100060000C948E010C9463150C9439150C948E012C
:100070000C948E010C948E010C948E010C948E01C4
:100080000C948E010C948E010C948E010C948E01B4
:100090000C948E010C948E010C948E010C948E01A4
:1000A0000C948E010C948E010C948E010C948E0194
:1000B0000C948E010C948E010C948E010C948E0184
:1000C0000C948E010C948E010C948E010C948E0174
:1000D0000C948E010C948E010C948E010C948E0164
:1000E0000C948E010C9458030C94C3010C948D1342
:1000F0000C94B8010C9449030C94BC010C9491131A
:100100000C94E1010C9499150C94DB010C94E5011D
:100110000C94B2030C946C030C9485040C94EE01C3
:100120000C94790F0C94C0010C947A030C94F30294
:100130000C941B030C9486040C94C9010C94CD01FF
:100140000C94D3010C94EF010C94AE010C94E901D2
:100150000C94D7010C941C030C94F3010C9494138D
:100160000C94B4010C94FF0300002100240027002C
:100170002A002D00300033000101000004010701B6
:100180000A0100002200250028002B002E0031006B
:10019000340002010000050108010B0100002000ED
:1001A0002300260029002C002F003200000100004F
:1001B00003010601090105050505070508080808EA
:1001C000020202020A0A08080404040401010101EF
:1001D00001010101030303030303030304070707EA
:1001E0000C0C0C0C0C0C0C0C02020202060606068F
:1001F000060606060B0B0B0B0B0B0B0B010210205C
:10020000200808102040102040800201020108044C
:1002100002010102040810204080804020100804E0
:100220000201800402018040201008040201080439
:10023000020101020408102040800102040810207D
:10024000408000000A0B02090C0D0E080703040190
:10025000000000000000000000000000000000009E
:10026000000000000000000000000000000012116B
:10027000100000000000000000000000000000006E
:100280000000000000000000CDCCCC3D0AD7233C8C
:1002900017B7D13877CC2B329595E6241FB14F0A8A
:1002A000000020410000C84200401C4620BCBE4C5B
:1002B000CA1B0E5AAEC59D74991511241FBECFEFEF
:1002C000D1E2DEBFCDBF00E00CBF13E0A0E0B2E0A2
:1002D000E0E8FCE300E00BBF02C007900D92A632FD
:1002E000B107D9F723E0A6E2B3E001C01D92A03F19
:1002F000B207E1F711E0CDE5D1E000E006C02197BB
:100300000109802FFE010E94861BCC35D10780E0B9
:100310000807A9F70E94E3150C943E1E0C940000F8
:100320008150823108F05AC0E82FF0E08827E45667
:10033000FE4F8F4F0C94861BBC01C001AE01B4016F
:10034000B801EE01C301C901CD01D301D701DB0121
:10035000E101E501EE01E901EF01F3018091800087
:100360008F77809380000895809180008F7DF9CFF2
:1003700080918000877FF5CF84B58F7784BD089505
:1003800084B58F7DFBCF8091B0008F778093B000D4
:1003900008958091B0008F7DF9CF809190008F7784
:1003A000809390000895809190008F7DF9CF809187
:1003B0009000877FF5CF8091A0008F778093A00079
:1003C00008958091A0008F7DF9CF8091A000877F54
:1003D000F5CF809120018F7780932001089580913F
:1003E00020018F7DF9CF80912001877FF5CFCF93BA
:1003F000DF93282F30E0F901EE5BFD4F8491F90186
:10040000E450FE4FD491F901EA54FE4FC491CC233D
:10041000A1F081110E949001EC2FF0E0EE0FFF1F80
:10042000E456FE4FA591B491EC91ED2381E090E06C
:1004300009F480E0DF91CF91089580E090E0FACF59
:100440001F93CF93DF93282F30E0F901EE5BFD4F30
:100450008491F901E450FE4FD491F901EA54FE4F22
:10046000C491CC23A9F0162F81110E949001EC2F8A
:10047000F0E0EE0FFF1FEE57FE4FA591B4918FB73E
:10048000F894EC91111108C0D095DE23DC938FBF56
:10049000DF91CF911F910895DE2BF8CFCF93DF939B
:1004A00090E0FC01E450FE4F24918A549E4FFC01E1
:1004B00084918823D1F090E0880F991FFC01E859BE
:1004C000FE4FA591B491FC01EE57FE4FC591D4911A
:1004D00061110EC09FB7F8948C91E22FE0958E23A6
:1004E0008C932881E223E8839FBFDF91CF91089509
:1004F0008FB7F894EC91E22BEC938FBFF6CF863355
:1005000008F0865320917B00982F9870277F922BBC
:1005100090937B008770806480937C0080917A0048
:10052000806480937A0080917A0086FDFCCF809170
:1005300078009091790008953FB7F8948091330343
:1005400090913403A0913503B091360326B5A89B52
:1005500005C02F3F19F00196A11DB11D3FBFBA2F55
:10056000A92F982F8827BC01CD01620F711D811D15
:10057000911D42E0660F771F881F991F4A95D1F79A
:1005800008958F929F92AF92BF92CF92DF92EF9297
:10059000FF924B015C010E949C026B017C010E9456
:1005A0009C026C197D098E099F09683E7340810584
:1005B0009105A8F321E0821A9108A108B10888EEFC
:1005C000C80E83E0D81EE11CF11C81149104A10423
:1005D000B10429F7FF90EF90DF90CF90BF90AF90DC
:1005E0009F908F900895CF93DF93809128030E946E
:1005F000F701EC01809126030E94F701AC0121E094
:10060000CD2B09F420E091E0452B09F490E0291767
:1006100079F021E030E080912A0390912B03820F42
:10062000931F90932B0380932A03DF91CF9108951A
:100630002FEF3FEFF0CF0895AF92BF92CF92DF92AE
:10064000EF92FF920F931F93CF93DF936C017B0187
:100650008B01040F151FEB015E01AE18BF08C01718
:10066000D10759F06991D601ED91FC910190F0818B
:10067000E02DC6011995892B79F7C501DF91CF913E
:100680001F910F91FF90EF90DF90CF90BF90AF90B0
:100690000895FC01538D448D252F30E0842F90E088
:1006A000821B930B541710F0CF960895019708956D
:1006B000FC01918D828D981761F0A28DAE0FBF2F36
:1006C000B11D5D968C91928D9F5F9F73928F90E08C
:1006D00008958FEF9FEF0895FC01918D828D9817FB
:1006E00031F0828DE80FF11D858D90E008958FEF38
:1006F0009FEF0895FC01918D228D892F90E0805C01
:100700009F4F821B91098F739927089587E393E088
:100710000E947A0321E0892B09F420E0822F0895BA
:10072000FC01A48DA80FB92FB11DA35ABF4F2C9166
:10073000848D90E001968F739927848FA689B7895D
:100740002C93A089B1898C91837080648C93938D54
:10075000848D981306C00288F389E02D80818F7DF7
:1007600080830895EF92FF920F931F93CF93DF93AF
:10077000EC0181E0888F9B8D8C8D98131AC0E889DD
:10078000F989808185FF15C09FB7F894EE89FF89AC
:100790006083E889F98980818370806480839FBF4A
:1007A00081E090E0DF91CF911F910F91FF90EF904A
:1007B0000895F62E0B8D10E00F5F1F4F0F7311275A
:1007C000E02E8C8D8E110CC00FB607FCFACFE88995
:1007D000F989808185FFF5CFCE010E949003F1CF8A
:1007E000EB8DEC0FFD2FF11DE35AFF4FF0829FB709
:1007F000F8940B8FEA89FB8980818062CFCFCF93F9
:10080000DF93EC01888D8823B9F0AA89BB89E88938
:10081000F9898C9185FD03C0808186FD0DC00FB6DE
:1008200007FCF7CF8C9185FFF2CF808185FFEDCF5C
:10083000CE010E949003E9CFDF91CF91089581E02E
:1008400080932D0308950E948603882319F081E088
:1008500080932D0380E090E0892B49F080E090E0C8
:10086000892B29F00E94000081110E94000080E085
:1008700090E0892B49F080E090E0892B29F00E94DC
:10088000000081110E94000080E090E0892B49F077
:1008900080E090E0892B29F00E94000081110C94E7
:1008A00000000895CF92DF92EF92FF921F93CF93B3
:1008B000DF93182F0E947F0261E070E080E090E0FB
:1008C0000E94C102CAE0D0E0C12CD12C7601812F58
:1008D0000E947F02092E000CAA0BBB0BC80ED91E6A
:1008E000EA1EFB1E219799F7C701B6012AE030E006
:1008F00040E050E00E94171BC901DF91CF911F918A
:10090000FF90EF90DF90CF900895089590E080E001
:1009100008956F3FA9F0E62FE295EF7044E0E49F61
:1009200090011124DC01ED91FC91E20FF31F6F7037
:1009300082819381B6E06B9F800D911D11240895F3
:1009400090E080E00895982F80336CF08A3324F093
:100950008F3524F08B3724F481E0089581341CF026
:1009600081E09B350CF080E00895CF93DF93EC019C
:1009700088819981DC01ED91FC910190F081E02D5D
:1009800019952A813B81820F931F9B838A83DF9174
:10099000CF910895CF93DF93EC0188819981DC0199
:1009A000ED91FC910280F381E02D19952A813B8124
:1009B000820F931F9B838A83DF91CF9108958F923B
:1009C0009F92AF92BF92CF92DF92EF92FF920F93DE
:1009D0001F93CF93DF93CDB7DEB766970FB6F8942A
:1009E000DEBF0FBECDBF6C018E01095E1F4F7801C7
:1009F0008AE0882E912CA12CB12CCB01BA01A50143
:100A000094010E94411B942F852F605DF801629331
:100A10008F01A901692F782F4115510561057105D5
:100A200061F7A7014E1B5F0BBF01C6010E94CA04FC
:100A300066960FB6F894DEBF0FBECDBFDF91CF91A3
:100A40001F910F91FF90EF90DF90CF90BF90AF90EC
:100A50009F908F9008950F931F93CF93DF93EC0196
:100A60008A85811140C00F8118852FB7F894809135
:100A70002F0390913003A0913103B09132032FBF27
:100A8000F80180879187A287B387D801ED91FC9107
:100A90000284F385E02DC801199597FF2AC02FB76E
:100AA000F89480912F0390913003A0913103B0917D
:100AB00032032FBFF8014085518562857385841B01
:100AC000950BA60BB70B44815581668177818417FE
:100AD0009507A607B707C8F28FEF9FEF97FD80E055
:100AE000898781E08A878985DF91CF911F910F9156
:100AF00008959927F3CF1F93CF93DF93EC01162F1F
:100B00000E942B05811306C01A8681E0DF91CF91E8
:100B10001F91089580E0FACF0F931F93CF93DF9337
:100B20008C01EB018991882369F0C8010E942B0593
:100B3000882379F0FE013197908198130DC0F80158
:100B40001286F0CF90E080E0DF91CF911F910F915E
:100B5000089582E090E0F8CF83E090E0F5CFCF9366
:100B6000DF93EC01CE010E942B058B304CF48930D1
:100B70005CF4882359F081E08E8390E080E00BC024
:100B80008D3011F08032B9F71A86ECCF8E81811149
:100B900005C081E090E0DF91CF91089582E090E080
:100BA000FACFCF93DF93DB01FC0180819181009725
:100BB000E1F012962C91129713964C911397342FC3
:100BC0003F77FC0143814217130671F7ED91FC91C9
:100BD0001197EC0124962E0F3F1FE217F30729F01F
:100BE000519149915417C9F3DFCFDF91CF91089507
:100BF000DC0152969C915297915084E0989F90010D
:100C000011245096ED91FC91E20FF31F2281338164
:100C10002115310579F041818081481758F481E030
:100C2000840F818386E0489F200D311D11242115FA
:100C3000310521F460E070E08FEF0895B901892F4C
:100C40008295807F840F0895DF92EF92FF920F9339
:100C50001F93CF93DF93EC017B01D12C68897989B5
:100C60008A89D816E0F484E0D89E80011124060F0A
:100C7000171FD80112966D917C916115710541F095
:100C8000D701ED91FC910280F381E02DC701199508
:100C9000F8011382128210821182D394DFCF1A8A54
:100CA0008FEF8C8BC617D70761F0D701ED91FC91C0
:100CB0000280F381E02DC7011995D98BC88B84E0A0
:100CC0008B8BDF91CF911F910F91FF90EF90DF9071
:100CD00008954F925F926F927F928F929F92AF9200
:100CE000BF92CF92DF92EF92FF920F931F93CF9319
:100CF000DF9300D01F921F92CDB7DEB7DC012C919D
:100D00002B32E1F12D32D9F50196EE24E394FC016A
:100D1000208130ED320F3A3010F02E3291F58C01F7
:100D200060E070E0CB01F801219130ED832E820E5E
:100D300039E0381508F444C06A3949E97407840772
:100D400049E1940708F046C0AAE0B0E09B01AC017D
:100D50000E94361B912CB12CA12C2401350140940A
:100D6000509460947094461657066806790690F180
:100D7000680D791D8A1D9B1D8F01D5CF0196E12C31
:100D8000C6CF198229813A814B815C816D8170E0E7
:100D900080E090E00F900F900F900F900F90DF91F8
:100DA000CF911F910F91FF90EF90DF90CF90BF9068
:100DB000AF909F908F907F906F905F904F9008952D
:100DC000211108C0EE2051F161307105810550E814
:100DD0009507A0F0F12CBAE08B2E912CA12CB12C10
:100DE0006115710530E883079105F8F0A5019401BC
:100DF0000E94411BCA01B901F394F2CF22E029837A
:100E00009B01AC0188279927DC01821B930BA40B63
:100E1000B50B8A839B83AC83BD83B4CF23E0298346
:100E20006A837B838C839D83ADCFF801D8012D919C
:100E30008D0130ED320F3A3010F4F394F6CF2E32AC
:100E400001F58F010F5F1F4FF8010F5F1F4F2081CA
:100E5000A0EDDA2ED20EB9E0BD1598F06C3CECECAA
:100E60007E07ECE08E07910578F7AAE0B0E09B01E1
:100E7000AC010E94361B6D0D711D811D911DFA94F0
:100E8000E3CF20812F7D10E000E0253409F050C031
:100E900021812D32B1F53296CC24C394DF0110E0CC
:100EA00000E02F2D0F2C000C330B5AE0B52EFD0166
:100EB000DD9040ED4D0D4A30B0F5B09EA001B19EE1
:100EC000500D11240D2DDD0C110B00531109040FD1
:100ED000151FA801420F531F4732510544F3CC2080
:100EE000B9F080E090E0A0E0B0E8E11003C080E05D
:100EF00090E0DC0121E029838A839B83AC83BD835E
:100F000041CF2B3219F03196C12CC8CF3296FCCF8D
:100F100080E090E0A0E8BFEFE110ECCF80E090E04F
:100F2000A0E8BFE7E7CFCC2019F011950195110992
:100F30002081211126CF0F0D111DF7FC1A950E945B
:100F4000F81930EAC32E32E0D32E101611063CF009
:100F500011950195110948E8C42E42E0D42EF12CD8
:100F60000115110591F000FF0CC024E0F29EF00184
:100F70001124EC0DFD1D25913591459154910E9450
:100F8000591A15950795F394EBCFE110905821E08D
:100F900029836A837B838C839D83F4CECF92DF92F7
:100FA000EF92FF920F931F93CF93DF937C016B011E
:100FB0008A01FC01C081D1814F3F510509F0B0F495
:100FC000E881F9810480F581E02D4B5F5F4FCE0110
:100FD0001995009759F0FC010383DF91CF911F9180
:100FE0000F91FF90EF90DF90CF900895E881F98105
:100FF0000280F381E02DB601CE01199581E0F70161
:10100000828390E080E0E9CF1F93CF93DF93EC01E0
:10101000162F6A817B816115710589F04C815D8194
:10102000FB0183818417150651F4440F551F4F5F50
:101030005F4F888199810E94CE079B838A838A8132
:101040009B81009759F02C813D81A9014F5F5F4F33
:101050005D834C83820F931FFC011483DF91CF913A
:101060001F9108959F92AF92BF92CF92DF92EF921D
:10107000FF920F931F93CF93DF9300D01F921F9285
:10108000CDB7DEB78C010E942B05D82EF801128651
:10109000F12CE12C60EFC62EC8010E942B05F8014F
:1010A0001286D81609F4B3C0811113C082E090E013
:1010B0000F900F900F900F900F90DF91CF911F9195
:1010C0000F91FF90EF90DF90CF90BF90AF909F90E7
:1010D00008958C3509F099C0C8010E942B0588231A
:1010E00029F3E0E6F2E0853709F083C0F8011286C3
:1010F00054E0952EB12CA12CC8010E942B05882309
:10110000A9F2813434F48053803130F083E090E0F0
:10111000CFCF8F7D8753F8CF44E0AA0CBB1C4A95F4
:10112000E1F7A82AF80112869A949110E5CFC5013B
:10113000985D8115944020F47501F3E0FF22ACCF57
:10114000C5019C5D81159440A8F483E0B822B701E5
:10115000762F6627770F770F6A297B2990E080E04A
:101160000196603871058105910540F4C8010E941F
:10117000040892CFB50190E080E0F3CF1982262FCA
:101180002F7320682A8326E0969587957795679533
:101190002A95D1F76032710580F4606C6B835E0133
:1011A000E4E0AE0EB11CF50162915F01662309F423
:1011B00073CFC8010E940408F6CF262F2F73206832
:1011C0002B8386E0769567958A95E1F76031710506
:1011D00038F4606E6C835E01F5E0AF0EB11CE3CFB6
:1011E00060686C83CD825E0126E0A20EB11CDBCF6D
:1011F00032969081992309F489CF8913F9CF81819F
:10120000882309F483CFF8011286682FAFCF82813B
:101210009381892B19F484E090E04ACF90E080E03C
:1012200047CFAF92BF92CF92DF92EF92FF920F9390
:101230001F93CF93DF9300D01F92CDB7DEB7DC01B1
:1012400012962D913C9113972C5F3F4F14964D9120
:101250005C914430510580F57901D901E0E0142F0B
:10126000022FFA2FF21BF11730F4DD90F1E0D110CC
:10127000F0E0EF2BF6CFE1111FC082E0FB01848389
:101280008E2D801B811728F4D7018D917D018193CC
:10129000F7CF640F751FFB0110820F900F900F9016
:1012A0000F90DF91CF911F910F91FF90EF90DF9002
:1012B000CF90BF90AF9008957B018C01420F531FD8
:1012C000DA011C92FC01C080D180A480B5803A83F1
:1012D0002983AB828B2D8F778C83BE016F5F7F4F0D
:1012E000C60103960E94D1050097D9F4D801129641
:1012F0006D917C91A501C6010E94CE07D801ED91A8
:10130000FC9123813481DC012D933C93948383836E
:10131000F8011382128225E0F701248391838083F0
:10132000BCCFDC0112962C9112972F5F12962C9352
:10133000F2CFDB01ED91FC9111970280F381E02D5A
:10134000BC01CD011994AF92BF92CF92DF92EF9280
:10135000FF920F931F93CF93DF93EC018B018C814E
:1013600080FF24C0A881B981FB018381948130E092
:1013700020E00097D9F0A817B907D1F5F8016081EE
:10138000718112968C911297815012968C931297BC
:1013900081110CC08D919C9111972115310529F176
:1013A000F90191838083CD010E9499098C81807617
:1013B00031F1209721F1F8805801F5E1AF0EB11C11
:1013C0008FEFF816D1F06F2DC5010E9489046C01D2
:1013D000FC01E580B8010E94A309F801818DF601A6
:1013E0008083F801F18EFE2CEBCF94838383DBCFD7
:1013F0009C01FC0180819181BCCFF882F9821C8222
:10140000DF91CF911F910F91FF90EF90DF90CF90E0
:10141000BF90AF9008950F931F93CF93DF93EC018C
:10142000088119818B819C81009749F0FC01208102
:1014300031813C832B83B8010E949909F3CF6881E5
:101440007981CE010596DF91CF911F910F910C9478
:101450002406CF93DF93EC01CB01CF3FD10509F0F8
:10146000B0F4BE016B5F7F4F6C177D0780F0DC012D
:10147000ED91FC910190F081E02D1995009721F0FC
:10148000FC01C38321E02283DF91CF91089590E096
:1014900080E0FACFFB0101900020E9F73197AF011E
:1014A000461B570BDC01ED91FC910280F381E02D8E
:1014B0001994FB0101900020E9F73197AF01461B19
:1014C000570B0C94CA04CF92DF92EF92FF920F93C6
:1014D0001F93CF93DF938C016B017A0162E20E942C
:1014E000B504E601EC0CFD1CEC16FD0699F06991C3
:1014F000E0E6F2E0D480DD20C9F032968381681303
:10150000F9CF6CE5C8010E94B5046D2DC8010E9499
:10151000B504EACF62E2C801DF91CF911F910F912C
:10152000FF90EF90DF90CF900C94B5046111EECF57
:1015300063E772E0C8010E94590AD6CFFC0130E08F
:1015400020E06115710549F0DB010D900020E9F7FD
:101550009D0121503109261B370B71836083228343
:10156000832F8F7793819078982B40FB97F9938303
:1015700008952F923F924F925F926F927F928F9237
:101580009F92AF92BF92CF92DF92EF92FF920F9312
:101590001F93CF93DF93CDB7DEB76B970FB6F89459
:1015A000DEBF0FBECDBF7C018B01DC0114968C9198
:1015B0001497863009F4A3C2F8F4833009F492C278
:1015C00058F440E0B701823009F47BC26AE772E068
:1015D000C8010E94590A81C2843009F46EC2853064
:1015E000A9F7ED91FC91438150E0BF016C5F7F4F03
:1015F000C8010E94630A1CC28E3009F443C0E0F4A3
:101600008A3009F477C28C3009F7CD90DD90ED90E7
:10161000FC90B701A601F7FE0BC06DE2C8010E9465
:10162000B50444275527BA014C195D096E097F0995
:10163000C8010E94DF04FCC1803209F415C2803465
:1016400029F66BE5C8010E94B504D701FC90BFEFF5
:10165000FB1609F4E9C1F801848195816F2D459647
:101660000E9489047C01B8010E94B90AD70115962D
:10167000FC90BFEFFB1609F4D7C16CE2C8010E94D1
:10168000B504E5CFF70180809180A280B380A501E9
:101690009401C501B4010E94F319882331F06AE76F
:1016A00072E0C8010E94590AC3C120E030E0A901DC
:1016B000C501B4010E94F319882371F0A5019401BA
:1016C000C501B4010E948F1B9B01AC01C501B4018F
:1016D0000E94F319882319F320E030E0A901C50125
:1016E000B4010E94F31987FF08C06DE2C8010E948F
:1016F000B504B7FAB094B7F8B09420E836E948E1F9
:101700005BE4C501B4010E942A1C87FD83C074E11B
:10171000C72ED12CE0E2EE2EF12C312C212CF6013B
:10172000E056FD4F6591759185919491A5019401C5
:101730000E94F31918167CF0F601E857FD4F259129
:10174000359145915491C501B4010E94591A4B013C
:101750005C012E0C3F1CF594E794F4E0CF1AD108FD
:101760002CEFC2162FEFD206D1F63FEF3F8B20E0D1
:1017700030E0A901C501B4010E942A1C18160CF022
:1017800051C02CEA35EC47E257E3C501B4010E9491
:10179000F31918160CF446C0AF89B4E0AB02C001CF
:1017A0001124D12CC12CFC01E857FD4F2F019C01C5
:1017B00020563D4F39013F893F3F09F433C0F201C4
:1017C000EC0DFD1D659175918591949120E030E0BF
:1017D00040E251E40E94591AA50194010E942A1C7A
:1017E00018167CF4F301EC0DFD1D25913591459102
:1017F0005491C501B4010E94591A4B015C012E1885
:101800003F08F594E7948F8981508F8B94E0C91A33
:10181000D108D1CF50E2E52EF12C85E08F8B312C11
:10182000212CA5CFC501B4010E94FB1B6B017C01DB
:101830002B013C0180E492E4AFE0B0E0888F998F07
:10184000AA8FBB8F96E09F8BAAE04A1651046104D1
:101850007104E0F0688D798D8A8D9B8D2AE030E0EF
:1018600040E050E00E94411B288F398F4A8F5B8FE8
:10187000BF89B150BF8BC301B2012AE030E040E024
:1018800050E00E94411B29013A01DECFC701B60199
:101890000E94F8199B01AC01C501B4010E948E1B86
:1018A0004B015C01688D798D8A8D9B8D0E94F819A2
:1018B0009B01AC01C501B4010E94591A2B013C01E6
:1018C0000E94FB1B4B015C010E94F8199B01AC01BB
:1018D000C301B2010E948E1B9B01AC010E948F1BB1
:1018E0000E94FB1B860E971EA81EB91E888D998D1F
:1018F000AA8DBB8D88169906AA06BB06C0F09FEF7D
:10190000C91AD90AE90AF90A2114310439F1AAE0FD
:10191000CA16D104E104F10408F1BFEF2B1A3B0A07
:10192000812C912C5401C12CD12C7601C3942AE036
:10193000422E512C612C712CC501B401A3019201DE
:101940000E94411B672B682B692B61F4EF891E16DF
:101950004CF449015A01E150EF8BEECF812C912CD0
:101960005401E5CFB701A601C8010E94DF04FF8939
:10197000FF2391F16E0121E1C20ED11CF88F760197
:101980009AE0492E512C612C712C388D3150388FB2
:101990003F3F69F0C501B401A30192010E94411BC0
:1019A000605DD6016E936D0149015A01EECFBF898A
:1019B0008B2F90E0BC0160957095F701E81BF90B47
:1019C00031978EE2808344275527461B570B6E0DB7
:1019D0007F1DC8010E94CA042114310449F165E643
:1019E000C8010E94B504710137FE07C06DE2C8014D
:1019F0000E94B504F194E194F108FE0177969F01ED
:101A00008AE0C82ED12CC701B6010E94721B805DEE
:101A100082937B01672BB9F7A9014E1B5F0BBF01B6
:101A2000C8010E94CA0404C06DE5C8010E94B50443
:101A3000F801828193816B960FB6F894DEBF0FBEDA
:101A4000CDBFDF91CF911F910F91FF90EF90DF906D
:101A5000CF90BF90AF909F908F907F906F905F904E
:101A60004F903F902F9008956BE7C8010E94B504F6
:101A7000D701FC90EE24E394BB24B394BFEFFB1694
:101A8000D1F0F801848195816F2D45960E948904DB
:101A90006C01B8010E94B90AD6011596FC90BFEFFF
:101AA000FB1639F06AE3E11001C06CE2C8010E9444
:101AB000B504EB24E3CF6DE7B8CFF7016081718106
:101AC00041E0CE0101960E949E0A4B815C815F77C6
:101AD00069817A81C8010E94630AD80112968D91AA
:101AE0009C91A9CFED91FC91438150E0BF016C5FC7
:101AF0007F4F96CF4D915D916D917C9199CD8C9159
:101B00006FE772E08111CDCD64E872E0CACDAF928B
:101B1000BF92CF92DF92EF92FF920F931F93CF93DA
:101B2000DF9300D01F92CDB7DEB7B62EA72E7A0175
:101B3000452B09F45EC089010B5E1F4FFC016081DB
:101B4000C8010E948904FC01DD24DA94892B09F084
:101B5000D580CC24C394309709F44BC0CC2019F124
:101B60008481843059F18530B9F18230E9F540E063
:101B7000BF01CE0101960E949E0AA981BA818B8184
:101B80004C81942F9F774B2D5A2D5F77481759071B
:101B900051F4F7018E0D9F1D8E179F07D9F13191DA
:101BA0002D913217C9F381E0C8266D2DC8010E941E
:101BB0008904FC01892B79F2D580CDCF60817181B8
:101BC00041E0CE0101960E949E0A4C8199818A8152
:101BD000A92FB82F8B81D5CF0190F081E02DDF01A7
:101BE0001496838190E0CFCF90E080E0B0E0A0E059
:101BF000CACF90E080E00F900F900F900F90DF9190
:101C0000CF911F910F91FF90EF90DF90CF90BF90F9
:101C1000AF9008956D2DC8010E948904ECCFFC019E
:101C200020813181C9014A96428153816481758145
:101C3000009759F0D9015E96EC91E03211F090E0F6
:101C400080E0009711F00C94870D90E080E00895FB
:101C5000CF93DF93EC0160E08E810E94200261E06F
:101C60008E810E94200260E08E810E9420028BE81B
:101C700091E00197F1F7DF91CF910895CF92DF9234
:101C8000EF92FF920F931F93CF93DF936C017C0130
:101C900087E0E80EF11CD0E0C0E0062F10E0B801AC
:101CA0000C2E02C0759567950A94E2F76170F701F2
:101CB00081917F010E9420022196C430D10579F7DD
:101CC000C601DF91CF911F910F91FF90EF90DF90B0
:101CD000CF900C94280ECF92DF92EF92FF920F9349
:101CE0001F93CF93DF93EC01F62E642F8C810E941B
:101CF00020028D818F3F19F060E00E9420020F2D9D
:101D000010E08F8584FF25C06E0187E0C80ED11CCE
:101D1000F12CE12CB8010E2C02C0759567950A9440
:101D2000E2F76170F60181916F010E942002FFEFDE
:101D3000EF1AFF0A88E0E816F10461F7CE01DF919F
:101D4000CF911F910F91FF90EF90DF90CF900C9467
:101D5000280EB80184E0759567958A95E1F7CE0164
:101D60000E943E0E6F2DCE01DF91CF911F910F91FA
:101D7000FF90EF90DF90CF900C943E0ECF93DF93C7
:101D8000823029F49091E30398609093E303809369
:101D9000E7031092E80380E48093E90380E18093F5
:101DA000EA0380E58093EB0361E08091D8030E9411
:101DB0004E028091D9038F3F19F061E00E944E02DC
:101DC00061E08091DA030E944E02C4EDD3E09E01EF
:101DD000245D33408091E30384FD0BC084E090E0F8
:101DE00021962817390744F461E08E810E944E0243
:101DF000EECF88E090E0F4CF8BE39DE00197F1F720
:101E000060E08091D8030E94200260E08091DA03B4
:101E10000E9420028091D9038F3F19F060E00E9458
:101E200020026091E30364FD45C063E084ED93E02C
:101E30000E943E0ECBE4D6E4CE010197F1F763E0B9
:101E400084ED93E00E943E0E2197F1F763E084ED6C
:101E500093E00E943E0E83E592E00197F1F762E085
:101E600084ED93E00E943E0E6091E303606240E0E7
:101E700084ED93E00E946B0E84E08093E40340E0E5
:101E80006CE084ED93E00E946B0E40E061E084ED35
:101E900093E00E946B0E8BE39FE10197F1F782E0E4
:101EA0008093E50340E066E084ED93E0DF91CF911D
:101EB0000C946B0E606240E084ED93E00E946B0E28
:101EC0008BE496E40197F1F76091E303606240E0F0
:101ED00084ED93E00E946B0E83E592E00197F1F7A9
:101EE0006091E303606240E084ED93E00E946B0E3A
:101EF000BBCF41E00E946B0E81E090E00895BF925D
:101F0000CF92DF92EF92FF920F931F93CF93DF93C5
:101F1000EC01198D1F3F81F0612F45960E948904C5
:101F2000FC018081898F309709F477C014828FEF8C
:101F30008583BF01812F76C06C0135E0C30ED11CB3
:101F4000E880F9808F89882341F0C6010E94F80556
:101F5000E62FF72F182F309749F71F89988D1913FF
:101F600024C0103109F459C0110F6D897E89D70141
:101F7000ED91FC91B4E01B9FA0011124C616D70679
:101F800009F044C00190F081E02DBA01C701199514
:101F9000009709F442C020E1F601DC0101900D92A6
:101FA0002A95E1F79E8B8D8B188F0D891E898F895D
:101FB00021E0280F2F8BE4E08E9FC0011124080F31
:101FC000191F90E1B92E203111F48FE0B82EF6E000
:101FD000BF9EB0011124D701ED91FC910190F081D9
:101FE000E02DC7011995F80193838283892B09F4A9
:101FF000B12CD801BC9211961C92012B71F0C60134
:102000000E94F805E62FF72F182F8DCF0480F58159
:10201000E02DC7011995009729F681E08A8360E0D9
:1020200070E08FEFDF91CF911F910F91FF90EF90B4
:10203000DF90CF90BF9008953F924F925F926F9242
:102040007F928F929F92AF92BF92CF92DF92EF9248
:10205000FF920F931F93CF93DF9300D01F921F9295
:10206000CDB7DEB78C017B01742E0E94AF056C01E9
:10207000892B09F050C0C8010E942B05863609F44F
:10208000BEC164F5873229F08B35A1F1823209F0A7
:10209000BFC1F8011582148282819381892B99F442
:1020A000C080D180D6016D917C918FE190E00E943B
:1020B000290A009719F421E0F6012283D80113962A
:1020C0009C938E931297C8010E9432086C01892B51
:1020D00011F5B701C8010E9411091DC0843709F428
:1020E0006EC18B3709F47CC08E3609F091C16AE766
:1020F00072E06CC180E4D70114968C931497E114BC
:10210000F10421F08FEF8C9311968C9371101BC00A
:1021100025E0C22ED12CC6010F900F900F900F908A
:102120000F90DF91CF911F910F91FF90EF90DF9073
:10213000CF90BF90AF909F908F907F906F905F9067
:102140004F903F900895F8011286C8010E94AF0594
:10215000009751F56DE5C8010E947B058111DBCF29
:102160007A94D8011B968D909C90C4010E947F0F99
:10217000682E5B01672B21F494E0C92ED12CCBCFC4
:10218000F70161816F3F91F0C40145960E94890477
:10219000DC0115966C92F7016182472DB501C801EB
:1021A0000E941C10009739F06C01B5CFD7018C93B9
:1021B00011968C93F2CFC8010E94AF050097A1F74A
:1021C0006DE5C8010E947B058111A5CF6CE2C801B5
:1021D0000E947B058111C5CF83E0C82ED12C9BCFF7
:1021E00080E2F7018483E114F10419F08FEF80831A
:1021F0008183772009F48CCFD8011A961C92C801EC
:102200000E94AF05009781F66DE7C8010E947B052B
:10221000811181CF552453947A94F8011582148248
:1022200082819381892B91F4C080D180D6016D91F8
:102230007C918FE190E00E94290A009711F4F60149
:102240005282D80113969C938E931297C8010E94D4
:102250002B05873201F18232F1F0C8010E942B0573
:10226000D82E0E94A304882309F4B6CFF801128661
:102270006D2DC8010E940408C8010E942B05D82EAC
:102280000E94A3048111F2CFD80112968D919C91E6
:10229000892B41F471CFC8010E9432086C01892B4F
:1022A00009F039CFC8010E94AF056C01892B09F0F4
:1022B00032CF6AE3C8010E947B05882309F48CCFE2
:1022C000D8011296ED91FC91139714968D919C91E3
:1022D0001597E80FF91F148214966D917C9115974C
:1022E0007F771B962D913C911C9712968D919C9116
:1022F0000496472F4F77B62DB0786B2E642AE8945A
:1023000067F8AC01762DC7010E94870D6C01F801BA
:1023100083849484009759F5C4010E947F0F382E5E
:102320005B01672B09F428CFC4010E947F0F482E60
:10233000962FC92ED72EC114D10409F41DCFD50173
:1023400015964C92F70161816F3F71F0C40145967B
:102350000E948904DC0115963C92F7014182B50187
:10236000C8010E94110906C030824182F8CFB40131
:102370000E94A309472DB601C8010E941C106C01E0
:10238000892B09F0C8CEC8010E94AF056C01892BCA
:1023900009F0C1CE6DE7C8010E947B058111BBCE5B
:1023A0006CE2C8010E947B05882309F415CFC8019F
:1023B0000E94AF056C01892B09F42FCFACCE86E0CB
:1023C000F701848381E080836FE772E0C8010F909A
:1023D0000F900F900F900F90DF91CF911F910F9161
:1023E000FF90EF90DF90CF90BF90AF909F908F9035
:1023F0007F906F905F904F903F900C948C0586E09B
:10240000D70114968C9314971C9264E872E0DECF87
:10241000C8010E942B054801BDE08B0E911CB12C18
:10242000782CA92C803384F08A3384F4EFE3BE1631
:10243000A9F0D8011A961C92B394F40181934F012C
:10244000C8010E942B05EECF8B3281F393ED980FDC
:10245000923060F3982F9F7D953441F30B0D111D41
:10246000D8011D961C92872D9A2D0E9469063A83E9
:102470004B835C836D838A819B81AC81BD812230DB
:10248000A9F0233059F0213009F0A6CE2EE0F70153
:10249000248380839183A283B3833DCE2AE0F70116
:1024A000248380839183A283B38335CE2CE0F7CF3E
:1024B0002F923F924F925F926F927F928F929F9254
:1024C000AF92BF92CF92DF92EF92FF920F931F9342
:1024D000CF93DF9300D01F92CDB7DEB7FC01008110
:1024E0001181C8014A96D1F4912C812CC4010F901E
:1024F0000F900F900F90DF91CF911F910F91FF9050
:10250000EF90DF90CF90BF90AF909F908F907F9093
:102510006F905F904F903F902F9008955480D5809A
:10252000A280B380A114B104F9F2F801268D211123
:1025300034C020E2268F2FEF228F238FA501980130
:10254000652D7D2D0E94870D4C01892B79F6C801E0
:102550000E947F0F282E7B01672B41F2C8010E9449
:102560007F0F382E3B01672B09F2D7FE19C084E09C
:10257000F7018483B182A082F7013582F801638D6F
:102580006F3F09F474C0C80145960E948904FC019C
:102590002582F801338E4301A9CF203279F2A4CFEE
:1025A000352D8D2D8F77C52CD82EF4E0CF16D10484
:1025B000F8F4D501F50190E04A2D2E2F2A192317A2
:1025C00030F4519121E0511120E0922BF6CF91117E
:1025D0000FC082E0F70184838A2F841B831718F4CD
:1025E0008D918193F9CFF701E30FF11D1082C4CFD4
:1025F000F80140805180BA82A9823B838C83BE015E
:102600006F5F7F4FC80103960E94D105009751F07C
:10261000FC0122812F5F228325E0F701248391832F
:102620008083AACFB201C6010E94290A009721F433
:1026300081E0F80182835ACFE981FA81DC011496A6
:1026400096012E0F3F1FE217F30719F041914D93AA
:10265000FACFFC01EC0DFD1D1482F80123813481B9
:10266000FC0131832083F80194838383D5CF228EAC
:1026700091CFCF92DF92EF92FF920F931F93CF9360
:10268000DF937B01FC01008111810E945812EC0153
:1026900080E0209781F0F701C080D180E280F38054
:1026A000B801CE010E94A3098CE08C83C882D98234
:1026B000EA82FB8281E0DF91CF911F910F91FF9021
:1026C000EF90DF90CF900895EF92FF920F931F93BA
:1026D000CF93DF938B01FC01E080F1800E945812C0
:1026E000EC0180E0209791F0F80100811181B701A1
:1026F000CE010E94A3098CE08C83012E000C220BDA
:10270000330B088319832A833B8381E0DF91CF91C8
:102710001F910F91FF90EF900895CB01BA010C9497
:10272000541DCB010C94CB1CCB010C942F1C1F927D
:102730000F920FB60F9211242F933F938F939F9375
:10274000AF93BF9380912F0390913003A0913103F9
:10275000B091320330912E0323E0230F2D3758F52B
:102760000196A11DB11D20932E0380932F039093FA
:102770003003A0933103B0933203809133039091DF
:102780003403A0913503B09136030196A11DB11D0C
:102790008093330390933403A0933503B0933603AF
:1027A000BF91AF919F918F913F912F910F900FBE4D
:1027B0000F901F90189526E8230F0296A11DB11DBA
:1027C000D2CF1F920F920FB60F9211240BB60F9219
:1027D0002F933F934F935F936F937F938F939F9329
:1027E000AF93BF93EF93FF93E0910E02F0910F022E
:1027F0001995FF91EF91BF91AF919F918F917F912B
:102800006F915F914F913F912F910F900BBE0F9061
:102810000FBE0F901F9018951F920F920FB60F9238
:1028200011240BB60F922F933F934F935F936F93A7
:102830007F938F939F93AF93BF93EF93FF93E09119
:102840000C02F0910D021995FF91EF91BF91AF919C
:102850009F918F917F916F915F914F913F912F91B8
:102860000F900BBE0F900FBE0F901F9018951F92E8
:102870000F920FB60F9211240BB60F922F933F9326
:102880004F935F936F937F938F939F93AF93BF9378
:10289000EF93FF93E0910202F09103021995FF91EB
:1028A000EF91BF91AF919F918F917F916F915F91C8
:1028B0004F913F912F910F900BBE0F900FBE0F9035
:1028C0001F9018951F920F920FB60F9211240BB6FE
:1028D0000F922F933F934F935F936F937F938F93B9
:1028E0009F93AF93BF93EF93FF93E0910002F0911A
:1028F00001021995FF91EF91BF91AF919F918F9137
:102900007F916F915F914F913F912F910F900BBEEF
:102910000F900FBE0F901F9018951F920F920FB639
:102920000F9211240BB60F922F933F934F935F9307
:102930006F937F938F939F93AF93BF93EF93FF9387
:10294000E0910A02F0910B021995FF91EF91BF916E
:10295000AF919F918F917F916F915F914F913F9137
:102960002F910F900BBE0F900FBE0F901F901895D8
:102970001F920F920FB60F9211240BB60F922F9346
:102980003F934F935F936F937F938F939F93AF93F7
:10299000BF93EF93FF93E0910802F091090219951C
:1029A000FF91EF91BF91AF919F918F917F916F9127
:1029B0005F914F913F912F910F900BBE0F900FBEE3
:1029C0000F901F9018951F920F920FB60F9211241F
:1029D0000BB60F922F933F934F935F936F937F9319
:1029E0008F939F93AF93BF93EF93FF93E091060272
:1029F000F09107021995FF91EF91BF91AF919F91CF
:102A00008F917F916F915F914F913F912F910F9097
:102A10000BBE0F900FBE0F901F9018951F920F9234
:102A20000FB60F9211240BB60F922F933F934F9333
:102A30005F936F937F938F939F93AF93BF93EF9326
:102A4000FF93E0910402F09105021995FF91EF9137
:102A5000BF91AF919F918F917F916F915F914F91B6
:102A60003F912F910F900BBE0F900FBE0F901F90B4
:102A700018951F920F920FB60F9211240BB60F925A
:102A80002F933F934F935F936F937F938F939F9376
:102A9000AF93BF93EF93FF9387E393E00E9490037C
:102AA000FF91EF91BF91AF919F918F917F916F9126
:102AB0005F914F913F912F910F900BBE0F900FBEE2
:102AC0000F901F9018951F920F920FB60F9211241E
:102AD0000BB60F922F938F939F93EF93FF93E091F9
:102AE0004703F09148038081E0914D03F0914E033C
:102AF00082FD1DC09081809150038F5F8F73209164
:102B00005103821741F0E0915003F0E0E95CFC4F83
:102B1000958F80935003FF91EF919F918F912F910B
:102B20000F900BBE0F900FBE0F901F9018958081D5
:102B3000F2CFE7E3F3E01382128288EE93E0A0E0A5
:102B4000B0E084839583A683B78386E492E0918383
:102B5000808385EC90E09587848784EC90E097876C
:102B6000868780EC90E0918B808B81EC90E0938B5A
:102B7000828B82EC90E0958B848B86EC90E0978B37
:102B8000868B118E128E138E148EE4EDF3E0138279
:102B9000128288E592E09183808383E084838FEFC3
:102BA000858384E0868388E0878389E080878AE064
:102BB00081878BE082871386148615861686178692
:102BC00081E00C94BE0ECF93DF93CDB7DEB7C5572F
:102BD000D1090FB6F894DEBF0FBECDBF789484B58F
:102BE000826084BD84B5816084BD85B5826085BD09
:102BF00085B5816085BD80916E00816080936E0097
:102C00001092810080918100826080938100809188
:102C10008100816080938100809180008160809339
:102C200080008091B10084608093B1008091B000F9
:102C300081608093B00080919100826080939100C8
:102C400080919100816080939100809190008160DB
:102C5000809390008091A10082608093A100809178
:102C6000A10081608093A1008091A0008160809389
:102C7000A000809121018260809321018091210137
:102C800081608093210180912001816080932001E7
:102C900080917A00846080937A0080917A008260CB
:102CA00080937A0080917A00816080937A0080918D
:102CB0007A00806880937A001092C100E091470307
:102CC000F091480382E08083E0914303F091440354
:102CD0001082E0914503F091460380E180831092D9
:102CE0004F03E0914B03F0914C0386E08083E09129
:102CF0004903F0914A03808180618083E091490318
:102D0000F0914A03808188608083E0914903F091CB
:102D10004A03808180688083E0914903F0914A03EF
:102D200080818F7D808382E00E94BE0E83E190E0EF
:102D300090932903809328038DE190E090932703DB
:102D40008093260360E083E10E944E0260E08DE103
:102D50000E944E0283EF92E0909309028093080252
:102D6000809169008F7C806180936900EA9A60E0BD
:102D700087E20E944E0260E085E20E944E0260E01F
:102D800083E20E944E0260E081E20E944E0202E273
:102D900012E076E3E72E72E0F72EF80180810E5FF5
:102DA0001F4F61E00E944E02E016F106B1F761E0AC
:102DB0008EE10E944E0260E086E00E944E0261E0D9
:102DC00085E00E944E024EE4C42ED12CCC0EDD1EB6
:102DD000F5E0CF0ED11C57E3252E53E0352E8EE4BF
:102DE00090E08C0F9D1F4A96E6969FAF8EAFE697B8
:102DF0008E010F5F1F4F66E9462E512C612C712CFE
:102E000080912D03882309F4E5C2E0E1F2E06096A9
:102E1000FFAFEEAF609761961FAE619763961FAEEE
:102E20001EAE6397A596DFAECEAEA597A6961FAE53
:102E3000A69784E0A7968FAFA7978FEFA8968FAF3E
:102E4000A897AD961FAEAD97AE968FAFAE97BF0168
:102E5000C6010E94240661961FAE61976096EEAC93
:102E6000FFAC609763968EAD9FAD6397009759F066
:102E7000FC012081318163963FAF2EAF6397B7018C
:102E80000E949909EFCFAD961FAEAD978EE490E00A
:102E90008C0F9D1F9A8389831C821B821E821D8238
:102EA0001F82398628861B869D878C874AE0E69696
:102EB0006EAD7FADE697C8010E941C107C01892B86
:102EC00059F48A85882341F0AD968FADAD9783FF85
:102ED00003C033E0E32EF12C8B819C81009731F00D
:102EE000E981FA81608171810E94990910922D0314
:102EF000E114F104D1F06AE872E087E393E00E9404
:102F00004A0AF701EE0FFF1FEA5CFD4F60817181F5
:102F10006115710521F087E393E00E944A0A61EA96
:102F200072E087E393E00E944A0ACE01825B9F4FE2
:102F30000E940B0AE0E1F2E0FA83E9831B821D8222
:102F40001C8286E090E08C0F9D1F9F8B8E8B188ECD
:102F500084E0F82EF98E8FEF8A8F1F8E88A38091E0
:102F60002A0390912B03E0969FAF8EAFE097609677
:102F70001FAF0EAF6097E4EAF2E06296FFAFEEAFEC
:102F8000629787E063968FAF639764968FAD64977F
:102F90008078806864968FAF6497BE0162597F4FD6
:102FA000CE01825B9F4F0E94641387E20E94F7016B
:102FB000E0969FAF8EAFE09760961FAF0EAF609721
:102FC0008CEA92E062969FAF8EAF629795E0E92E11
:102FD0006396EFAE639764968FAD64978078806850
:102FE00064968FAF6497BE0162597F4FCE01825BBA
:102FF0009F4F0E94641385E20E94F701E0969FAF05
:103000008EAFE09760961FAF0EAF609782EB92E0B5
:1030100062969FAF8EAF62976396EFAE63976496AA
:103020008FAD64978078806864968FAF6497BE0197
:1030300062597F4FCE01825B9F4F0E94641383E2EF
:103040000E94F701E0969FAF8EAFE09760961FAFAA
:103050000EAF609788EB92E062969FAF8EAF62975B
:103060006396EFAE639764968FAD649780788068BF
:1030700064968FAF6497BE0162597F4FCE01825B29
:103080009F4F0E94641381E20E94F701E0969FAF78
:103090008EAFE09760961FAF0EAF60978EEB92E019
:1030A00062969FAF8EAF62976396EFAE639764961A
:1030B0008FAD64978078806864968FAF6497BE0107
:1030C00062597F4FCE01825B9F4F0E94641388E359
:1030D00090E00E9452044C0189E390E00E94520467
:1030E0005C018AE390E00E945204E4969FAF8EAFA9
:1030F000E4979401990C440B550B2F5F310941095A
:103100005109A0EDB7E00E94361BA30192010E9475
:10311000171B285E334041095109E2962CAF3DAFA1
:103120004EAF5FAFE29760961FAF0EAF609784EC33
:1031300092E062969FAF8EAF62976396FFAE639701
:1031400064968FAD64978078806864968FAF64973B
:10315000BE0162597F4FCE01825B9F4F0E9439139F
:103160009501BB0C440B550B2F5F310941095109E7
:10317000A0EDB7E00E94361BA30192010E94171B2D
:10318000285E334041095109E2962CAF3DAF4EAF66
:103190005FAFE29760961FAF0EAF609789EC92E049
:1031A00062969FAF8EAF62976396FFAE6397649609
:1031B0008FAD64978078806864968FAF6497BE0106
:1031C00062597F4FCE01825B9F4F0E943913E49674
:1031D000EEADFFADE4979F01FF0F440B550B2F5F42
:1031E000310941095109A0EDB7E00E94361BA30146
:1031F00092010E94171B205D374041095109E29658
:103200002CAF3DAF4EAF5FAFE29760961FAF0EAFF2
:1032100060978EEC92E062969FAF8EAF6297639656
:10322000FFAE639764968FAD6497807880686496EC
:103230008FAF6497BE0162597F4FCE01825B9F4F73
:103240000E94391386E30E947F02E0969FAF8EAF03
:10325000E09760961FAF0EAF609783ED92E06296A5
:103260009FAF8EAF62976396EFAE639764968FAD14
:1032700064978078806864968FAF6497BE016259C6
:103280007F4FCE01825B9F4F0E94641387E30E94B1
:103290007F02E0969FAF8EAFE09760961FAF0EAFB4
:1032A000609789ED92E062969FAF8EAF62976396CA
:1032B000EFAE639764968FAD64978078806864966C
:1032C0008FAF6497BE0162597F4FCE01825B9F4FE3
:1032D0000E94641386E00E94F701E0969FAF8EAFD4
:1032E000E09760961FAF0EAF60978FED92E0629609
:1032F0009FAF8EAF62976396FFAE639764968FAD74
:1033000064978078806864968FAF6497BE01625935
:103310007F4FCE01825B9F4F0E94641361E085E086
:103320000E9420028BE891E00197F1F760E085E0D0
:103330000E9420028FB7F89480902F039090300362
:10334000A0903103B09032038FBF60961FAF0EAFD5
:10335000609784EE92E062969FAF8EAF629763961D
:10336000FFAE639764968FAD6497807880686496AB
:103370008FAF6497CE01825B9F4F0E9458127C01F1
:10338000009751F0B8010E94A3098AE0F7018483F5
:1033900080829182A282B38260963FAE2EAE609709
:1033A00062961FAE1EAE629764961FAF0EAF649713
:1033B000BE01625B7F4FCE014B960E94B90A61EA63
:1033C00072E087E393E00E944A0A10922C03C8013E
:1033D0000E940B0A6AE070E080E090E00E94C10267
:1033E0000E9423040DCD0E94351A08F481E008954F
:1033F000E89409C097FB3EF490958095709561958F
:103400007F4F8F4F9F4F9923A9F0F92F96E9BB2744
:103410009395F695879577956795B795F111F8CFC0
:10342000FAF4BB0F11F460FF1BC06F5F7F4F8F4F2B
:103430009F4F16C0882311F096E911C0772321F021
:103440009EE8872F762F05C0662371F096E8862FB9
:1034500070E060E02AF09A95660F771F881FDAF710
:10346000880F9695879597F90895990F0008550F3D
:10347000AA0BE0E8FEEF16161706E807F907C0F0FA
:1034800012161306E407F50798F0621B730B840B02
:10349000950B39F40A2661F0232B242B252B21F4DC
:1034A00008950A2609F4A140A6958FEF811D811D7C
:1034B00008950E946C1A0C94DD1A0E94CF1A38F0FD
:1034C0000E94D61A20F0952311F00C94C61A0C9481
:1034D000CC1A11240C94111B0E94EE1A70F3959FC4
:1034E000C1F3950F50E0551F629FF001729FBB27FB
:1034F000F00DB11D639FAA27F00DB11DAA1F649F97
:103500006627B00DA11D661F829F2227B00DA11D49
:10351000621F739FB00DA11D621F839FA00D611DCF
:10352000221F749F3327A00D611D231F849F600DF0
:10353000211D822F762F6A2F11249F5750409AF019
:10354000F1F088234AF0EE0FFF1FBB1F661F771FA5
:10355000881F91505040A9F79E3F510580F00C9470
:10356000C61A0C94111B5F3FE4F3983ED4F3869582
:1035700077956795B795F795E7959F5FC1F7FE2B10
:10358000880F911D9695879597F9089597F99F67EC
:1035900080E870E060E008959FEF80EC08950024DB
:1035A0000A941616170618060906089500240A94A8
:1035B00012161306140605060895092E0394000C2E
:1035C00011F4882352F0BB0F40F4BF2B11F460FFBD
:1035D00004C06F5F7F4F8F4F9F4F089557FD9058E6
:1035E000440F551F59F05F3F71F04795880F97FBC7
:1035F000991F61F09F3F79F0879508951216130681
:103600001406551FF2CF4695F1DF08C016161706AF
:103610001806991FF1CF86957105610508940895E4
:10362000E894BB2766277727CB0197F90895052EE5
:1036300097FB1EF400940E942E1B57FD07D00E949A
:10364000411B07FC03D04EF40C942E1B5095409563
:10365000309521953F4F4F4F5F4F0895909580953E
:10366000709561957F4F8F4F9F4F08950E94631B08
:10367000A59F900DB49F900DA49F800D911D1124C6
:103680000895A1E21A2EAA1BBB1BFD010DC0AA1FA3
:10369000BB1FEE1FFF1FA217B307E407F50720F0BB
:1036A000A21BB30BE40BF50B661F771F881F991F36
:1036B0001A9469F760957095809590959B01AC017F
:1036C000BD01CF010895A29FB001B39FC001A39F88
:1036D000700D811D1124911DB29F700D811D11244B
:1036E000911D0895AA1BBB1B51E107C0AA1FBB1F58
:1036F000A617B70710F0A61BB70B881F991F5A957E
:10370000A9F780959095BC01CD010895EE0FFF1F9C
:10371000881F8BBF0790F691E02D19945058BB2756
:10372000AA270E94A61B0C94DD1A0E94CF1A38F01B
:103730000E94D61A20F039F49F3F19F426F40C9415
:10374000CC1A0EF4E095E7FB0C94C61AE92F0E9400
:10375000EE1A58F3BA17620773078407950720F02B
:1037600079F4A6F50C94101B0EF4E0950B2EBA2FED
:10377000A02D0B01B90190010C01CA01A001112477
:10378000FF27591B99F0593F50F4503E68F11A1623
:10379000F040A22F232F342F4427585FF3CF4695B4
:1037A00037952795A795F0405395C9F77EF41F16D6
:1037B000BA0B620B730B840BBAF09150A1F0FF0FA0
:1037C000BB1F661F771F881FC2F70EC0BA0F621F8C
:1037D000731F841F48F4879577956795B795F7957C
:1037E0009E3F08F0B0CF9395880F08F09927EE0F11
:1037F0009795879508950E94F61A88F09F5798F03C
:10380000B92F9927B751B0F0E1F0660F771F881FE5
:10381000991F1AF0BA95C9F714C0B13091F00E94FF
:10382000101BB1E008950C94101B672F782F882788
:10383000B85F39F0B93FCCF3869577956795B39526
:10384000D9F73EF490958095709561957F4F8F4F95
:103850009F4F08950E94351A08F48FEF08950F9333
:103860001F93CF93DF938230910510F482E090E0B4
:10387000E091EE03F091EF0330E020E0B0E0A0E053
:10388000309799F42115310509F44AC0281B390BEA
:1038900024303105D8F58A819B816115710589F144
:1038A000FB0193838283FE0111C04081518102811B
:1038B000138148175907E0F04817590799F41097F2
:1038C00061F012960C93129713961C933296CF01C7
:1038D000DF91CF911F910F9108950093EE03109304
:1038E000EF03F4CF2115310551F04217530738F09B
:1038F000A901DB019A01BD01DF01F801C1CFEF0190
:10390000F9CF9093EF038093EE03CDCFFE01E20F4A
:10391000F31F819391932250310939832883D7CFA4
:103920002091EC033091ED03232B41F420911402FC
:10393000309115023093ED032093EC032091120295
:10394000309113022115310541F42DB73EB7409156
:10395000160250911702241B350BE091EC03F091F5
:10396000ED03E217F307A0F42E1B3F0B28173907CE
:1039700078F0AC014E5F5F4F2417350748F04E0FCB
:103980005F1F5093ED034093EC03819391939FCF7E
:10399000F0E0E0E09CCFCF93DF930097E9F0FC01EB
:1039A000329713821282A091EE03B091EF03ED01E2
:1039B00030E020E01097A1F420813181820F931F25
:1039C0002091EC033091ED032817390709F061C00D
:1039D000F093ED03E093EC03DF91CF910895EA01BA
:1039E000CE17DF07E8F54A815B819E01411551053D
:1039F000B1F7E901FB83EA8349915991C40FD51FBF
:103A0000EC17FD0761F4808191810296840F951F68
:103A1000E90199838883828193819B838A83F0E083
:103A2000E0E012968D919C9113970097B9F52D9136
:103A30003C911197CD010296820F931F2091EC03C8
:103A40003091ED032817390739F6309751F5109268
:103A5000EF031092EE03B093ED03A093EC03BCCF01
:103A6000D383C28340815181840F951FC817D90722
:103A700061F44E5F5F4F88819981480F591F5183D0
:103A800040838A819B81938382832115310509F0CC
:103A9000B0CFF093EF03E093EE039ECFFD01DC0186
:103AA000C0CF13821282D7CF4F925F926F927F92D4
:103AB0008F929F92AF92BF92CF92DF92EF92FF923E
:103AC0000F931F93CF93DF938C01009799F4CB0151
:103AD000DF91CF911F910F91FF90EF90DF90CF90EA
:103AE000BF90AF909F908F907F906F905F904F901E
:103AF0000C942F1CFC01E60FF71F9C01225031098A
:103B0000E217F30708F4AEC0D901CD91DC9111970B
:103B1000C617D70720F1C530D10578F0CE0104973C
:103B20008617970750F0C61BD70B2297C193D193E6
:103B30006D937C93CF010E94CB1CC801DF91CF9184
:103B40001F910F91FF90EF90DF90CF90BF90AF90BB
:103B50009F908F907F906F905F904F9008955B0142
:103B6000AC1ABD0A4C018C0E9D1EA091EE03B091C3
:103B7000EF03512C412CF12CE12C109731F5809161
:103B8000EC039091ED038815990509F05CC0461689
:103B9000570608F058C080911202909113020097C6
:103BA00041F48DB79EB74091160250911702841BC5
:103BB000950BE817F90708F055C0F093ED03E09373
:103BC000EC03F90171836083B8CF8D919C911197BB
:103BD00012966C90129713967C901397A815B905BE
:103BE00059F56C0142E0C40ED11CCA14DB0420F16B
:103BF000AC014A195B09DA011296159780F06282CE
:103C0000738251834083D9016D937C93E114F10455
:103C100071F0D7011396FC93EE9312978ECF2296F4
:103C20008C0F9D1FF90191838083F301EFCFF093F7
:103C3000EF03E093EE0381CF4816590608F42C01F8
:103C40007D01D3019ACFCB010E942F1C7C010097EC
:103C500049F0AE01B8010E94351EC8010E94CB1C7C
:103C600087016BCF10E000E068CFFB01DC0102C0F0
:103C700001900D9241505040D8F70895F894FFCF2D
:103C80001B031B031B031B031B031B031B031B0344
:103C90001C020000F0038000000000009413911348
:103CA0008D13190017001A001800160011001000DB
:103CB0000F000E000200E902EC02F70207031403F2
:103CC0001D0300000000B2031C034903FF037A0335
:103CD00058036C0300000000790F1C038604850460
:103CE0002F2F272722225C5C6208660C6E0A720D59
:103CF0007409005C7530303030006E756C6C007487
:103D00007275650066616C736500646573657269E0
:103D1000616C697A652829206661696C65643A205E
:103D2000000D0A00454E434F4445520042544E5F39
:103D3000310042544E5F320042544E5F33004254D1
:103D40004E5F3400585F6D4700595F6D47005A5F02
:103D50006D4700706F745F5800706F745F59004D4D
:103D6000756F6E0074696D65004F6B00456D707402
:103D700079496E70757400496E636F6D706C65740F
:103D800065496E70757400496E76616C6964496E40
:103D9000707574004E6F4D656D6F727900546F6F62
:063DA0004465657000009F
:00000001FF
