:100000000C942E010C945F010C945F010C945F0121
:100010000C945F010C945F010C945F010C945F01E0
:100020000C945F010C945F010C945F010C945F01D0
:100030000C945F010C945F010C945F010C945F01C0
:100040000C945F010C945F010C945F010C945F01B0
:100050000C945F010C945F010C945F010C94720688
:100060000C945F010C94E6060C94BC060C945F01A2
:100070000C945F010C945F010C945F010C945F0180
:100080000C945F010C945F010C945F010C945F0170
:100090000C945F010C945F010C945F010C945F0160
:1000A0000C945F010C945F010C945F010C945F0150
:1000B0000C945F010C945F010C945F010C945F0140
:1000C0000C945F010C945F010C945F010C945F0130
:1000D0000C945F010C945F010C945F010C945F0120
:1000E0000C945F010C94C7010C94D3010C94FC0197
:1000F0000C944E020C948A020C94DC010C94EA01DC
:100100000C946C060C9402020C941C070C94B00125
:100110000C94D6010C94AC020C94E6010C94B5013D
:100120000C94F8010C94E4020C9483030C949E024A
:100130000C94F4010C9482030C94CB010C94E00118
:100140000C94EE010C9431030C947B020C94CF01BF
:100150000C94060200000A0B02090C0D0E0807039E
:10016000040100000000000000000000000000008A
:10017000000000000000000000000000000000007F
:10018000121110000000000000000000000000003C
:100190000000000000000000000000002200250018
:1001A00028002B002E003100340002010000050160
:1001B00008010B0100002100240027002A002D0067
:1001C0003000330001010000040107010A010505A8
:1001D0000505070508080808020202020A0A0808BD
:1001E00004040404010101010101010103030303EB
:1001F00003030303040707070C0C0C0C0C0C0C0C7A
:100200000202020206060606060606060B0B0B0B8A
:100210000B0B0B0B010210202008081020401020AF
:1002200040800201020108040201010204081020BA
:1002300040808040201008040201800402018040B8
:100240002010080402010804020101020408102021
:10025000408001020408102040801C0711241FBEAA
:10026000CFEFD1E2DEBFCDBF00E00CBF12E0A0E0D7
:10027000B2E0EEEBF6E100E00BBF02C007900D929A
:10028000A034B107D9F722E0A0E4B2E001C01D928A
:10029000AE3FB207E1F711E0CEE2D1E000E006C0E8
:1002A00021970109802FFE010E941909CD32D10743
:1002B00080E00807A9F70E9466070C945D0B0C9478
:1002C000000090E0FC01EC5EFD4F249182539E4FB4
:1002D000FC018491882399F090E0880F991FFC011C
:1002E000EC54FE4FA591B491FC01E656FE4F85916A
:1002F00094918FB7F894EC91E22BEC938FBF089513
:10030000282F30E0F901EC5AFE4F9491F901EC5E90
:10031000FD4F449122533E4FF9012491222309F4C9
:1003200035C0992311F191509231F8F4E92FF0E0A2
:100330008827E256FE4F8F4F0C941909CF01D30145
:10034000B001C701CB01B501D601DC01E001E60136
:10035000EA01EE01F401F801B501FC010202060216
:10036000809180008F7780938000E22FF0E0EE0F85
:10037000FF1FE656FE4FA591B4918FB7F894EC910C
:10038000611148C040954E234C938FBF08958091D2
:1003900080008F7DE8CF80918000877FE4CF84B597
:1003A0008F7784BDE2CF84B58F7DFBCF8091B00085
:1003B0008F778093B000D9CF8091B0008F7DF9CF37
:1003C000809190008F7780939000CFCF80919000A4
:1003D0008F7DF9CF80919000877FF5CF8091A0002D
:1003E0008F778093A000C1CF8091A0008F7DF9CF3F
:1003F0008091A000877FF5CF809120018F77809337
:100400002001B3CF809120018F7DF9CF8091200111
:10041000877FF5CF4E2BB8CF863308F086532091D7
:100420007B00982F9870277F922B90937B0087708A
:10043000806480937C0080917A00806480937A004D
:1004400080917A0086FDFCCF8091780090917900B0
:1004500008953FB7F8948091450290914602A0918B
:100460004702B091480226B5A89B05C02F3F19F05E
:100470000196A11DB11D3FBFBA2FA92F982F882724
:10048000BC01CD01620F711D811D911D42E0660FFF
:10049000771F881F991F4A95D1F70895AF92BF9291
:1004A000CF92DF92EF92FF920F931F93CF93DF9340
:1004B0006C017B018B01040F151FEB015E01AE186F
:1004C000BF08C017D10759F06991D601ED91FC9191
:1004D0000190F081E02DC6011995892B79F7C501AE
:1004E000DF91CF911F910F91FF90EF90DF90CF9010
:1004F000BF90AF900895FC01538D448D252F30E0BF
:10050000842F90E0821B930B541710F0CF96089520
:1005100001970895FC01918D828D981761F0A28D4D
:10052000AE0FBF2FB11D5D968C91928D9F5F9F7313
:10053000928F90E008958FEF9FEF0895FC01918DC9
:10054000828D981731F0828DE80FF11D858D90E036
:1005500008958FEF9FEF0895FC01918D228D892FD3
:1005600090E0805C9F4F821B91098F7399270895BB
:1005700089E492E00E94AC0221E0892B09F420E09A
:10058000822F0895FC01A48DA80FB92FB11DA35A85
:10059000BF4F2C91848D90E001968F739927848FA3
:1005A000A689B7892C93A089B1898C9183708064C6
:1005B0008C93938D848D981306C00288F389E02D67
:1005C00080818F7D80830895EF92FF920F931F9318
:1005D000CF93DF93EC0181E0888F9B8D8C8D9813F6
:1005E0001AC0E889F989808185FF15C09FB7F89402
:1005F000EE89FF896083E889F9898081837080644E
:1006000080839FBF81E090E0DF91CF911F910F9198
:10061000FF90EF900895F62E0B8D10E00F5F1F4FA7
:100620000F731127E02E8C8D8E110CC00FB607FCB6
:10063000FACFE889F989808185FFF5CFCE010E9444
:10064000C202F1CFEB8DEC0FFD2FF11DE35AFF4FEE
:10065000F0829FB7F8940B8FEA89FB8980818062D2
:10066000CFCFCF93DF93EC01888D8823B9F0AA898F
:10067000BB89E889F9898C9185FD03C0808186FD5D
:100680000DC00FB607FCF7CF8C9185FFF2CF8081AC
:1006900085FFEDCFCE010E94C202E9CFDF91CF915D
:1006A000089580E090E0892B29F00E94B802811122
:1006B0000E94000080E090E0892B49F080E090E00B
:1006C000892B29F00E94000081110E94000080E027
:1006D00090E0892B49F080E090E0892B29F00E947E
:1006E000000081110E94000080E090E0892B49F019
:1006F00080E090E0892B29F00E94000081110C9489
:1007000000000895089590E080E00895CF92DF9270
:10071000EF92FF921F93CF93DF93182F0E940C024A
:100720000E9429026B017C010E9429026C197D093B
:100730008E099F09683E734081059105A8F3CAE0C0
:10074000D0E0C12CD12C7601812F0E940C02092E01
:10075000000CAA0BBB0BC80ED91EEA1EFB1E21976C
:1007600099F7C701B6012AE030E040E050E00E946E
:10077000BE08C901DF91CF911F91FF90EF90DF90EC
:10078000CF900895FC0101900020E9F73197AF0167
:10079000481B590BBC0189E492E00C944E028F92E5
:1007A0009F92AF92BF920F931F93CF93DF93CDB7DA
:1007B000DEB7A1970FB6F894DEBF0FBECDBF19A26A
:1007C000423008F44AE08E010F5D1F4F842E912CB9
:1007D000B12CA12CA50194010E94E808E62FB901D3
:1007E000CA01EA30F4F4E05DD801EE938D01232BC9
:1007F000242B252B79F790E080E0109719F0CD019C
:100800000E94C203A1960FB6F894DEBF0FBECDBF03
:10081000DF91CF911F910F91BF90AF909F908F90DC
:100820000895E95CE1CF4F925F926F927F928F9231
:100830009F92AF92BF92CF92DF92EF92FF920F936F
:100840001F93CF936B017C01742EAC019B010E941E
:10085000580B882399F08EE192E0CF911F910F9170
:10086000FF90EF90DF90CF90BF90AF909F908F90D0
:100870007F906F905F904F900C94C2034601570198
:10088000E894B7F82FEF3FEF4FE75FE7C501B401FA
:100890000E94580B81110DC02FEF3FEF4FE75FE72C
:1008A000C501B4010E948E0918161CF482E292E080
:1008B000D4CF2FEF3FEF4FE75FE4C701B6010E94AF
:1008C000E60A18161CF486E292E0C7CF2FEF3FEF3E
:1008D0004FE75FECC701B6010E948E0987FDF3CF99
:1008E00020E030E0A901C701B6010E948E0910E0A6
:1008F00000E087FF0AC06DE289E492E00E94E40212
:100900008C01F7FAF094F7F8F094C0E060E070E042
:1009100080E09FE37C1641F020E030E040E251E4CB
:100920000E949309CF5FF6CFA70196010E9422098A
:100930002B013C010E94050A4B015C014AE00E9428
:10094000CF037C01E00EF11ECC23C1F1C501B4013F
:100950000E94340A9B01AC01C301B2010E9421092B
:100960004B015C016EE289E492E00E94E402E80E31
:10097000F91EC15018F120E030E040E251E4C50119
:10098000B4010E94EB0A2B013C010E94050A4B01B5
:10099000B12CA12C4AE0C501B4010E94CF03E80E9E
:1009A000F91EC501B4010E94340A9B01AC01C301C8
:1009B000B2010E9421094B015C01DBCFC701CF913D
:1009C0001F910F91FF90EF90DF90CF90BF90AF906D
:1009D0009F908F907F906F905F904F900895CF92EF
:1009E000DF92EF92FF92CF93DF936C01990FEE08A5
:1009F000FF08F7FE19C06DE289E492E00E94E4026C
:100A0000EC0166277727CB016C197D098E099F09B8
:100A10004AE00E94CF038C0F9D1FDF91CF91FF9082
:100A2000EF90DF90CF9008954AE0C701B601DF91C3
:100A3000CF91FF90EF90DF90CF900C94CF03CF93A6
:100A4000DF93EC0160E08E810E94800161E08E8185
:100A50000E94800160E08E810E9480018BE891E01D
:100A60000197F1F7DF91CF910895CF92DF92EF9246
:100A7000FF920F931F93CF93DF936C017C0187E06C
:100A8000E80EF11CD0E0C0E0062F10E0B8010C2EFB
:100A900002C0759567950A94E2F76170F70181913C
:100AA0007F010E9480012196C430D10579F7C601EB
:100AB000DF91CF911F910F91FF90EF90DF90CF903A
:100AC0000C941F05CF92DF92EF92FF920F931F932A
:100AD000CF93DF93EC01F62E642F8C810E9480016E
:100AE0008D818F3F19F060E00E9480010F2D10E092
:100AF0008F8584FF25C06E0187E0C80ED11CF12CC4
:100B0000E12CB8010E2C02C0759567950A94E2F7A6
:100B10006170F60181916F010E948001FFEFEF1A71
:100B2000FF0A88E0E816F10461F7CE01DF91CF916A
:100B30001F910F91FF90EF90DF90CF900C941F05C5
:100B4000B80184E0759567958A95E1F7CE010E941A
:100B500035056F2DCE01DF91CF911F910F91FF9041
:100B6000EF90DF90CF900C943505CF93DF938230D8
:100B700029F49091F50298609093F5028093F90220
:100B80001092FA0280E48093FB0280E18093FC02E1
:100B900080E58093FD028091EA020E9461018091CC
:100BA000EB028F3F11F00E9461018091EC020E94E4
:100BB0006101C6EED2E09E01265E32408091F502D0
:100BC00084FD0AC084E090E02196281739073CF4A0
:100BD0008E810E946101EFCF88E090E0F5CF8BE33A
:100BE0009DE00197F1F760E08091EA020E948001A8
:100BF00060E08091EC020E9480018091EB028F3FC7
:100C000019F060E00E9480016091F50264FD45C02A
:100C100063E086EE92E00E943505CBE4D6E4CE0197
:100C20000197F1F763E086EE92E00E943505219787
:100C3000F1F763E086EE92E00E94350583E592E0ED
:100C40000197F1F762E086EE92E00E94350560912F
:100C5000F502606240E086EE92E00E94620584E068
:100C60008093F60240E06CE086EE92E00E9462051E
:100C700040E061E086EE92E00E9462058BE39FE136
:100C80000197F1F782E08093F70240E066E086EE9C
:100C900092E0DF91CF910C946205606240E086EEB5
:100CA00092E00E9462058BE496E40197F1F760916F
:100CB000F502606240E086EE92E00E94620583E504
:100CC00092E00197F1F76091F502606240E086EEF4
:100CD00092E00E946205BBCF41E00E94620581E084
:100CE00090E008951F920F920FB60F9211242F9348
:100CF0003F938F939F93AF93BF93809141029091C5
:100D00004202A0914302B09144023091400223E09C
:100D1000230F2D3758F50196A11DB11D20934002D8
:100D20008093410290934202A0934302B093440205
:100D30008091450290914602A0914702B0914802ED
:100D40000196A11DB11D8093450290934602A09388
:100D50004702B0934802BF91AF919F918F913F910D
:100D60002F910F900FBE0F901F90189526E8230F1C
:100D70000296A11DB11DD2CF1F920F920FB60F92F6
:100D800011240BB60F922F933F934F935F936F9362
:100D90007F938F939F93AF93BF93EF93FF9389E4D8
:100DA00092E00E94C202FF91EF91BF91AF919F919B
:100DB0008F917F916F915F914F913F912F910F9004
:100DC0000BBE0F900FBE0F901F9018951F920F92A1
:100DD0000FB60F9211240BB60F922F938F939F9300
:100DE000EF93FF93E0915902F0915A028081E091D4
:100DF0005F02F091600282FD1DC0908180916202CD
:100E00008F5F8F7320916302821741F0E09162023D
:100E1000F0E0E75BFD4F958F80936202FF91EF91C9
:100E20009F918F912F910F900BBE0F900FBE0F903F
:100E30001F9018958081F2CFE9E4F2E013821282CC
:100E400088EE93E0A0E0B0E084839583A683B78327
:100E500084E092E09183808385EC90E0958784879D
:100E600084EC90E09787868780EC90E0918B808B74
:100E700081EC90E0938B828B82EC90E0958B848B5D
:100E800086EC90E0978B868B118E128E138E148ECB
:100E9000E6EEF2E01382128286E192E09183808393
:100EA00083E084838FEF858384E0868388E0878373
:100EB00089E080878AE081878BE0828713861486A9
:100EC00015861686178681E00C94B505789484B54E
:100ED000826084BD84B5816084BD85B5826085BD36
:100EE00085B5816085BD80916E00816080936E00C4
:100EF00010928100809181008260809381008091B6
:100F00008100816080938100809180008160809366
:100F100080008091B10084608093B1008091B00026
:100F200081608093B00080919100826080939100F5
:100F30008091910081608093910080919000816008
:100F4000809390008091A10082608093A1008091A5
:100F5000A10081608093A1008091A00081608093B6
:100F6000A000809121018260809321018091210164
:100F70008160809321018091200181608093200114
:100F800080917A00846080937A0080917A008260F8
:100F900080937A0080917A00816080937A008091BA
:100FA0007A00806880937A001092C100E091590223
:100FB000F0915A0282E08083E0915502F09156024E
:100FC0001082E0915702F091580280E180831092E4
:100FD0006102E0915D02F0915E0286E08083E09123
:100FE0005B02F0915C02808180618083E0915B0212
:100FF000F0915C02808188608083E0915B02F091D7
:101000005C02808180688083E0915B02F0915C02E9
:1010100080818F7D808382E00E94B5058FB7F89430
:10102000409141025091420260914302709144020A
:101030008FBF86E9C82ED12CE12CF12C88E390E0FB
:101040000E9486035C0189E390E00E9486038C0184
:101050008AE390E00E948603EC018AE292E00E941B
:10106000C203C5010E94EF0488E392E00E94C2031C
:10107000C8010E94EF0488E392E00E94C203CE01FF
:101080000E94EF0482E392E00E94C2039501BB0C30
:10109000440B550B2450314041095109A0EDB7E0F4
:1010A0000E94DD08A70196010E94BE08CA01B9018D
:1010B000685E7340810991090E94360A20E030E0A1
:1010C0004AE754E40E94930942E00E94130487E334
:1010D00092E00E94C203012E000C220B330BA901E7
:1010E00098012450314041095109A0EDB7E00E9418
:1010F000DD08A70196010E94BE08CA01B901685E19
:101100007340810991090E94360A20E030E04AE7E5
:1011100054E40E94930942E00E94130487E392E0A2
:101120000E94C2039E01DD0F440B550B2450314039
:1011300041095109A0EDB7E00E94DD08A701960121
:101140000E94BE08CA01B901685E73408109910915
:101150000E94360A20E030E04AE754E40E949309F6
:1011600042E00E9413048BE392E00E94C2038DE3ED
:1011700092E00E94C2030E94510360CF052E97FBAC
:101180001EF400940E94D50857FD07D00E94E8087D
:1011900007FC03D04EF40C94D5085095409530953B
:1011A00021953F4F4F4F5F4F0895909580957095D3
:1011B00061957F4F8F4F9F4F08950E940A09A59F09
:1011C000900DB49F900DA49F800D911D1124089542
:1011D000A1E21A2EAA1BBB1BFD010DC0AA1FBB1F3B
:1011E000EE1FFF1FA217B307E407F50720F0A21BAD
:1011F000B30BE40BF50B661F771F881F991F1A941A
:1012000069F760957095809590959B01AC01BD0143
:10121000CF010895A29FB001B39FC001A39F700D9D
:10122000811D1124911DB29F700D811D1124911DEE
:101230000895EE0FFF1F881F8BBF0790F691E02DDA
:1012400019945058BB27AA270E9439090C94AC0A5C
:101250000E949E0A38F00E94A50A20F039F49F3FB0
:1012600019F426F40C949B0A0EF4E095E7FB0C9419
:10127000950AE92F0E94BD0A58F3BA17620773074F
:101280008407950720F079F4A6F50C94DF0A0EF494
:10129000E0950B2EBA2FA02D0B01B90190010C0186
:1012A000CA01A0011124FF27591B99F0593F50F49E
:1012B000503E68F11A16F040A22F232F342F4427F6
:1012C000585FF3CF469537952795A795F0405395EE
:1012D000C9F77EF41F16BA0B620B730B840BBAF0BE
:1012E0009150A1F0FF0FBB1F661F771F881FC2F729
:1012F0000EC0BA0F621F731F841F48F4879577953D
:101300006795B795F7959E3F08F0B0CF9395880FF6
:1013100008F09927EE0F9795879508950E94710A16
:1013200008F481E008950E94A7090C94AC0A0E9479
:10133000A50A58F00E949E0A40F029F45F3F29F068
:101340000C94950A51110C94E00A0C949B0A0E948B
:10135000BD0A68F39923B1F3552391F3951B550BFF
:10136000BB27AA2762177307840738F09F5F5F4F78
:10137000220F331F441FAA1FA9F335D00E2E3AF0B7
:10138000E0E832D091505040E695001CCAF72BD0CF
:10139000FE2F29D0660F771F881FBB1F2617370720
:1013A0004807AB07B0E809F0BB0B802DBF01FF2752
:1013B00093585F4F3AF09E3F510578F00C94950A90
:1013C0000C94E00A5F3FE4F3983ED4F3869577955A
:1013D0006795B795F7959F5FC9F7880F911D96950B
:1013E000879597F90895E1E0660F771F881FBB1F67
:1013F000621773078407BA0720F0621B730B840B14
:10140000BA0BEE1F88F7E09508950E94C50A88F090
:101410009F5798F0B92F9927B751B0F0E1F0660FB8
:10142000771F881F991F1AF0BA95C9F714C0B130F9
:1014300091F00E94DF0AB1E008950C94DF0A672F53
:10144000782F8827B85F39F0B93FCCF38695779528
:101450006795B395D9F73EF4909580957095619511
:101460007F4F8F4F9F4F0895E89409C097FB3EF43C
:1014700090958095709561957F4F8F4F9F4F9923E1
:10148000A9F0F92F96E9BB279395F695879577955F
:101490006795B795F111F8CFFAF4BB0F11F460FF1F
:1014A0001BC06F5F7F4F8F4F9F4F16C0882311F077
:1014B00096E911C0772321F09EE8872F762F05C08B
:1014C000662371F096E8862F70E060E02AF09A9526
:1014D000660F771F881FDAF7880F9695879597F91B
:1014E0000895990F0008550FAA0BE0E8FEEF1616B5
:1014F0001706E807F907C0F012161306E407F50708
:1015000098F0621B730B840B950B39F40A2661F07B
:10151000232B242B252B21F408950A2609F4A1401E
:10152000A6958FEF811D811D089597F99F6780E82B
:1015300070E060E008959FEF80EC089500240A9425
:101540001616170618060906089500240A9412169E
:101550001306140605060895092E0394000C11F4D1
:10156000882352F0BB0F40F4BF2B11F460FF04C07E
:101570006F5F7F4F8F4F9F4F089557FD9058440FD7
:10158000551F59F05F3F71F04795880F97FB991FE2
:1015900061F09F3F79F0879508951216130614069F
:1015A000551FF2CF4695F1DF08C01616170618062C
:1015B000991FF1CF86957105610508940895E89407
:1015C000BB2766277727CB0197F908950E94710AF8
:1015D00008F48FEF08950E94FE0A0C94AC0A0E9452
:1015E0009E0A38F00E94A50A20F0952311F00C9471
:1015F000950A0C949B0A11240C94E00A0E94BD0ADF
:1016000070F3959FC1F3950F50E0551F629FF00155
:10161000729FBB27F00DB11D639FAA27F00DB11D6E
:10162000AA1F649F6627B00DA11D661F829F2227F7
:10163000B00DA11D621F739FB00DA11D621F839F7E
:10164000A00D611D221F749F3327A00D611D231F54
:10165000849F600D211D822F762F6A2F11249F57A2
:1016600050409AF0F1F088234AF0EE0FFF1FBB1FA5
:10167000661F771F881F91505040A9F79E3F510564
:1016800080F00C94950A0C94E00A5F3FE4F3983ED6
:10169000D4F3869577956795B795F795E7959F5F0E
:1016A000C1F7FE2B880F911D9695879597F90895A0
:0E16B0000E94710A880B990B0895F894FFCFE1
:1016BE0000000000E4024E027B023103AC028A02FB
:1016CE009E02000000006C064E02830382036E61D0
:1016DE006E00696E66006F766600582C20592C20BD
:1016EE005A20203A3A2000472C200047000D0A00CD
:00000001FF
