:100000000C942E010C945F010C945F010C945F0121
:100010000C945F010C945F010C945F010C945F01E0
:100020000C945F010C945F010C945F010C945F01D0
:100030000C945F010C945F010C945F010C945F01C0
:100040000C945F010C945F010C945F010C945F01B0
:100050000C945F010C945F010C945F010C941305E8
:100060000C945F010C9487050C945D050C945F0162
:100070000C945F010C945F010C945F010C945F0180
:100080000C945F010C945F010C945F010C945F0170
:100090000C945F010C945F010C945F010C945F0160
:1000A0000C945F010C945F010C945F010C945F0150
:1000B0000C945F010C945F010C945F010C945F0140
:1000C0000C945F010C945F010C945F010C945F0130
:1000D0000C945F010C945F010C945F010C945F0120
:1000E0000C945F010C944E020C94EA010C94DC0118
:1000F0000C9431030C94EE010C94B5010C949E0207
:100100000C94C7010C94D3010C94BD050C94FC0114
:100110000C940D050C94E4020C94CB010C94B001EA
:100120000C94D6010C94F8010C9402020C94F40186
:100130000C94E0010C94E6010C947B020C94820375
:100140000C948A020C94AC020C94CF010C9406021D
:100150000C94830300000A0B02090C0D0E08070320
:10016000040100000000000000000000000000008A
:10017000000000000000000000000000000000007F
:10018000121110000000000000000000000000003C
:100190000000000000000000000000002200250018
:1001A00028002B002E003100340002010000050160
:1001B00008010B0100002100240027002A002D0067
:1001C0003000330001010000040107010A010505A8
:1001D0000505070508080808020202020A0A0808BD
:1001E00004040404010101010101010103030303EB
:1001F00003030303040707070C0C0C0C0C0C0C0C7A
:100200000202020206060606060606060B0B0B0B8A
:100210000B0B0B0B010210202008081020401020AF
:1002200040800201020108040201010204081020BA
:1002300040808040201008040201800402018040B8
:100240002010080402010804020101020408102021
:1002500040800102040810204080BD0511241FBE0B
:10026000CFEFD1E2DEBFCDBF00E00CBF12E0A0E0D7
:10027000B2E0E8E9F0E100E00BBF02C007900D92A8
:10028000AE34B107D9F723E0AEE4B2E001C01D926D
:10029000A231B207E1F711E0CEE2D1E000E006C002
:1002A00021970109802FFE010E944208CD32D1071B
:1002B00080E00807A9F70E9407060C944A080C94EE
:1002C000000090E0FC01EC5EFD4F249182539E4FB4
:1002D000FC018491882399F090E0880F991FFC011C
:1002E000EC54FE4FA591B491FC01E656FE4F85916A
:1002F00094918FB7F894EC91E22BEC938FBF089513
:10030000282F30E0F901EC5AFE4F9491F901EC5E90
:10031000FD4F449122533E4FF9012491222309F4C9
:1003200035C0992311F191509231F8F4E92FF0E0A2
:100330008827E256FE4F8F4F0C944208CF01D3011D
:10034000B001C701CB01B501D601DC01E001E60136
:10035000EA01EE01F401F801B501FC010202060216
:10036000809180008F7780938000E22FF0E0EE0F85
:10037000FF1FE656FE4FA591B4918FB7F894EC910C
:10038000611148C040954E234C938FBF08958091D2
:1003900080008F7DE8CF80918000877FE4CF84B597
:1003A0008F7784BDE2CF84B58F7DFBCF8091B00085
:1003B0008F778093B000D9CF8091B0008F7DF9CF37
:1003C000809190008F7780939000CFCF80919000A4
:1003D0008F7DF9CF80919000877FF5CF8091A0002D
:1003E0008F778093A000C1CF8091A0008F7DF9CF3F
:1003F0008091A000877FF5CF809120018F77809337
:100400002001B3CF809120018F7DF9CF8091200111
:10041000877FF5CF4E2BB8CF863308F086532091D7
:100420007B00982F9870277F922B90937B0087708A
:10043000806480937C0080917A00806480937A004D
:1004400080917A0086FDFCCF8091780090917900B0
:1004500008953FB7F8948091590290915A02A09163
:100460005B02B0915C0226B5A89B05C02F3F19F036
:100470000196A11DB11D3FBFBA2FA92F982F882724
:10048000BC01CD01620F711D811D911D42E0660FFF
:10049000771F881F991F4A95D1F70895AF92BF9291
:1004A000CF92DF92EF92FF920F931F93CF93DF9340
:1004B0006C017B018B01040F151FEB015E01AE186F
:1004C000BF08C017D10759F06991D601ED91FC9191
:1004D0000190F081E02DC6011995892B79F7C501AE
:1004E000DF91CF911F910F91FF90EF90DF90CF9010
:1004F000BF90AF900895FC01538D448D252F30E0BF
:10050000842F90E0821B930B541710F0CF96089520
:1005100001970895FC01918D828D981761F0A28D4D
:10052000AE0FBF2FB11D5D968C91928D9F5F9F7313
:10053000928F90E008958FEF9FEF0895FC01918DC9
:10054000828D981731F0828DE80FF11D858D90E036
:1005500008958FEF9FEF0895FC01918D228D892FD3
:1005600090E0805C9F4F821B91098F7399270895BB
:100570008DE592E00E94AC0221E0892B09F420E095
:10058000822F0895FC01A48DA80FB92FB11DA35A85
:10059000BF4F2C91848D90E001968F739927848FA3
:1005A000A689B7892C93A089B1898C9183708064C6
:1005B0008C93938D848D981306C00288F389E02D67
:1005C00080818F7D80830895EF92FF920F931F9318
:1005D000CF93DF93EC0181E0888F9B8D8C8D9813F6
:1005E0001AC0E889F989808185FF15C09FB7F89402
:1005F000EE89FF896083E889F9898081837080644E
:1006000080839FBF81E090E0DF91CF911F910F9198
:10061000FF90EF900895F62E0B8D10E00F5F1F4FA7
:100620000F731127E02E8C8D8E110CC00FB607FCB6
:10063000FACFE889F989808185FFF5CFCE010E9444
:10064000C202F1CFEB8DEC0FFD2FF11DE35AFF4FEE
:10065000F0829FB7F8940B8FEA89FB8980818062D2
:10066000CFCFCF93DF93EC01888D8823B9F0AA898F
:10067000BB89E889F9898C9185FD03C0808186FD5D
:100680000DC00FB607FCF7CF8C9185FFF2CF8081AC
:1006900085FFEDCFCE010E94C202E9CFDF91CF915D
:1006A000089580E090E0892B29F00E94B802811122
:1006B0000E94000080E090E0892B49F080E090E00B
:1006C000892B29F00E94000081110E94000080E027
:1006D00090E0892B49F080E090E0892B29F00E947E
:1006E000000081110E94000080E090E0892B49F019
:1006F00080E090E0892B29F00E94000081110C9489
:1007000000000895089590E080E00895CF92DF9270
:10071000EF92FF921F93CF93DF93182F0E940C024A
:100720000E9429026B017C010E9429026C197D093B
:100730008E099F09683E734081059105A8F3CAE0C0
:10074000D0E0C12CD12C7601812F0E940C02092E01
:10075000000CAA0BBB0BC80ED91EEA1EFB1E21976C
:1007600099F7C701B6012AE030E040E050E00E946E
:10077000E707C901DF91CF911F91FF90EF90DF90C4
:10078000CF900895FC0101900020E9F73197AF0167
:10079000481B590BBC018AEF92E00C944E02CF9398
:1007A000DF93EC0160E08E810E94800161E08E8128
:1007B0000E94800160E08E810E9480018BE891E0C0
:1007C0000197F1F7DF91CF910895CF92DF92EF92E9
:1007D000FF920F931F93CF93DF936C017C0187E00F
:1007E000E80EF11CD0E0C0E0062F10E0B8010C2E9E
:1007F00002C0759567950A94E2F76170F7018191DF
:100800007F010E9480012196C430D10579F7C6018D
:10081000DF91CF911F910F91FF90EF90DF90CF90DC
:100820000C94CF03CF92DF92EF92FF920F931F931E
:10083000CF93DF93EC01F62E642F8C810E94800110
:100840008D818F3F19F060E00E9480010F2D10E034
:100850008F8584FF25C06E0187E0C80ED11CF12C66
:10086000E12CB8010E2C02C0759567950A94E2F749
:100870006170F60181916F010E948001FFEFEF1A14
:10088000FF0A88E0E816F10461F7CE01DF91CF910D
:100890001F910F91FF90EF90DF90CF900C94CF03BA
:1008A000B80184E0759567958A95E1F7CE010E94BD
:1008B000E5036F2DCE01DF91CF911F910F91FF9036
:1008C000EF90DF90CF900C94E50340E0682F8AEF23
:1008D00092E00C941204CF93DF93823029F490912C
:1008E000090398609093090380930D0310920E03FF
:1008F00080E480930F0380E18093100380E5809370
:1009000011038091FE020E9461018091FF028F3FDE
:1009100011F00E946101809100030E946101CAEF01
:10092000D2E09E012A5F32408091090384FD0AC013
:1009300084E090E02196281739073CF48E810E94CC
:100940006101EFCF88E090E0F5CF8BE39DE0019768
:10095000F1F760E08091FE020E94800160E08091EA
:1009600000030E9480018091FF028F3F19F060E038
:100970000E9480018091090384FD39C063E08AEF01
:1009800092E00E94E503CBE4D6E4CE010197F1F7B3
:1009900063E08AEF92E00E94E5032197F1F763E0BC
:1009A0008AEF92E00E94E50383E592E00197F1F778
:1009B00062E08AEF92E00E94E50380910903806281
:1009C0000E94650484E080930A038CE00E94650421
:1009D00081E00E9465048BE39FE10197F1F782E0DB
:1009E00080930B0386E0DF91CF910C9465048062C5
:1009F0000E9465048BE496E40197F1F78091090366
:100A000080620E94650483E592E00197F1F780918E
:100A1000090380620E946504D0CF41E00E94120465
:100A200081E090E008951F920F920FB60F9211246B
:100A30002F933F938F939F93AF93BF9380915502D2
:100A400090915602A0915702B091580230915402F1
:100A500023E0230F2D3758F50196A11DB11D2093DA
:100A600054028093550290935602A0935702B0937C
:100A700058028091590290915A02A0915B02B09164
:100A80005C020196A11DB11D8093590290935A02F8
:100A9000A0935B02B0935C02BF91AF919F918F9145
:100AA0003F912F910F900FBE0F901F90189526E841
:100AB000230F0296A11DB11DD2CF1F920F920FB628
:100AC0000F9211240BB60F922F933F934F935F9386
:100AD0006F937F938F939F93AF93BF93EF93FF9306
:100AE0008DE592E00E94C202FF91EF91BF91AF911C
:100AF0009F918F917F916F915F914F913F912F9136
:100B00000F900BBE0F900FBE0F901F9018951F9265
:100B10000F920FB60F9211240BB60F922F938F9353
:100B20009F93EF93FF93E0916D02F0916E028081AD
:100B3000E0917302F091740282FD1DC0908180915A
:100B400076028F5F8F7320917702821741F0E091D8
:100B50007602F0E0E35AFD4F958F80937602FF9185
:100B6000EF919F918F912F910F900BBE0F900FBE21
:100B70000F901F9018958081F2CFEDE5F2E013827F
:100B8000128288EE93E0A0E0B0E084839583A68390
:100B9000B78384E092E09183808385EC90E0958731
:100BA000848784EC90E09787868780EC90E0918B37
:100BB000808B81EC90E0938B828B82EC90E0958B24
:100BC000848B86EC90E0978B868B118E128E138E21
:100BD000148EEAEFF2E01382128286E192E09183B2
:100BE000808383E084838FEF858384E0868388E03D
:100BF000878389E080878AE081878BE082871386FC
:100C0000148615861686178681E00C946B047894FA
:100C100084B5826084BD84B5816084BD85B5826001
:100C200085BD85B5816085BD80916E0081608093B2
:100C30006E0010928100809181008260809381001B
:100C4000809181008160809381008091800081602B
:100C5000809380008091B10084608093B100809186
:100C6000B00081608093B000809191008260809399
:100C7000910080919100816080939100809190001B
:100C80008160809390008091A10082608093A10098
:100C90008091A10081608093A1008091A00081607B
:100CA0008093A00080912101826080932101809136
:100CB00021018160809321018091200181608093D6
:100CC000200180917A00846080937A0080917A007C
:100CD000826080937A0080917A00816080937A00AC
:100CE00080917A00806880937A001092C100E09130
:100CF0006D02F0916E0282E08083E0916902F091D2
:100D00006A021082E0916B02F0916C0280E18083B4
:100D100010927502E0917102F091720286E0808378
:100D2000E0916F02F0917002808180618083E09198
:100D30006F02F0917002808188608083E0916F0281
:100D4000F0917002808180688083E0916F02F09161
:100D5000700280818F7D808382E00E946B048FB758
:100D6000F89440915502509156026091570270914B
:100D700058028FBF88E390E00E9486035C0189E3FC
:100D800090E00E9486037C018AE390E00E94860343
:100D90006C019501BB0C440B550B2F5F31094109C8
:100DA0005109A0EDB7E00E94060826E930E040E0D6
:100DB00050E00E94E70729013A0188EE481A83E0D3
:100DC000580A610871089701FF0C440B550B2F5FFF
:100DD000310941095109A0EDB7E00E94060826E952
:100DE00030E040E050E00E94E70749015A0188EEF8
:100DF000881A83E0980AA108B1080D2C000CEE08AF
:100E0000FF08A70196012F5F310941095109A0EDA3
:100E1000B7E00E94060826E930E040E050E00E947A
:100E2000E70769017A0180EDC81A87E0D80AE1086E
:100E3000F108E1E080910D038111E0E0E195F0E03F
:100E4000E650FD4F848980680E946504D301C20189
:100E500077FE07C088279927DC0184199509A60920
:100E6000B7098D329140A105B1050CF46DC08EE13A
:100E700092E0141415041604170434F0452846288B
:100E8000472821F086E292E00E94C203E1E08091CF
:100E90000D038111E0E0E195F0E0E650FD4F84891B
:100EA000875F80680E946504D501C401B7FE07C052
:100EB00088279927DC0188199909AA09BB098D326D
:100EC0009140A105B1050CF455C086E392E01814D9
:100ED00019041A041B0434F089288A288B2821F06D
:100EE0008DE392E00E94C203E0910D03E23008F02E
:100EF00057C0E150F0E0E650FD4F848980680E94C1
:100F00006504D701C601F7FE07C088279927DC01D1
:100F10008C199D09AE09BF0981399140A105B10520
:100F20000CF440C084E492E01C141D041E041F0451
:100F300034F0CD28CE28CF2821F089E492E00E9419
:100F4000C2030E94510316CF809152029091530226
:100F500001969093530280935202853F91400CF486
:100F600095CF8EE292E00E94C2031092530210923B
:100F700052028CCF80915002909151020196909331
:100F8000510280935002853F91400CF4ADCF8FE227
:100F900092E00E94C2031092510210925002A4CF1C
:100FA000E1E0A8CF80914E0290914F02019690937C
:100FB0004F0280934E02853F91401CF281E392E004
:100FC0000E94C20310924F0210924E02BACF052E19
:100FD00097FB1EF400940E94FE0757FD07D00E9465
:100FE000110807FC03D04EF40C94FE075095409571
:100FF000309521953F4F4F4F5F4F089590958095C5
:10100000709561957F4F8F4F9F4F08950E943308D1
:10101000A59F900DB49F900DA49F800D911D11244C
:101020000895A1E21A2EAA1BBB1BFD010DC0AA1F29
:10103000BB1FEE1FFF1FA217B307E407F50720F041
:10104000A21BB30BE40BF50B661F771F881F991FBC
:101050001A9469F760957095809590959B01AC0105
:10106000BD01CF010895A29FB001B39FC001A39F0E
:10107000700D811D1124911DB29F700D811D1124D1
:10108000911D0895EE0FFF1F881F8BBF0790F691EB
:08109000E02D1994F894FFCF44
:1010980000000000E4024E027B023103AC028A0227
:1010A8009E02000000000D054E0283038203417674
:1010B800616E74202000417272696572650020209B
:1010C8002020202020004761756368650044726F06
:0E10D800697465004261732000486175740000
:00000001FF
