:100000000C946D010C943D150C9412150C94E7148E
:100010000C94BC140C9491140C9466140C943B1422
:100020000C9410140C949E010C949E010C949E014F
:100030000C949E010C949E010C949E010C949E01C4
:100040000C949E010C949E010C949E010C949E01B4
:100050000C949E010C949E010C949E010C94C6136A
:100060000C949E010C9492150C9468150C949E01AE
:100070000C949E010C949E010C949E010C949E0184
:100080000C949E010C949E010C949E010C949E0174
:100090000C949E010C949E010C949E010C949E0164
:1000A0000C949E010C949E010C949E010C949E0154
:1000B0000C949E010C949E010C949E010C949E0144
:1000C0000C949E010C949E010C949E010C949E0134
:1000D0000C949E010C949E010C949E010C949E0124
:1000E0000C949E010C94DD010C94F1010C944D1ABA
:1000F0000C94CC010C94C0130C94F5010C948A035D
:100100000C94501A0C94711A0C942B030C94C31376
:100110000C94781A0C94C8010C94BC130C94D9015B
:100120000C94890F0C945E1A0C94F9010C94E30161
:100130000C94421A0C940F040C94741A0C94E61943
:100140000C94FF010C94BE010C94D3010C94C815BF
:100150000C942C030C94FE010C9459030C9403038F
:100160000C94C2030C94C4010C94D0010C94E701CC
:100170000C947C030C9403020C94EB010C949604F5
:100180000C9495040C9468030000210024002700BF
:100190002A002D0030003300010100000401070196
:1001A0000A0100002200250028002B002E0031004B
:1001B000340002010000050108010B0100002000CD
:1001C0002300260029002C002F003200000100002F
:1001D00003010601090105050505070508080808CA
:1001E000020202020A0A08080404040401010101CF
:1001F00001010101030303030303030304070707CA
:100200000C0C0C0C0C0C0C0C02020202060606066E
:10021000060606060B0B0B0B0B0B0B0B010210203B
:10022000200808102040102040800201020108042C
:1002300002010102040810204080804020100804C0
:100240000201800402018040201008040201080419
:10025000020101020408102040800102040810205D
:10026000408000000A0B02090C0D0E080703040170
:10027000000000000000000000000000000000007E
:10028000000000000000000000000000000012114B
:10029000100000000000000000000000000000004E
:1002A0000000000000000000CDCCCC3D0AD7233C6C
:1002B00017B7D13877CC2B329595E6241FB14F0A6A
:1002C000000020410000C84200401C4620BCBE4C3B
:1002D000CA1B0E5AAEC59D74C81511241FBECFEFA0
:1002E000D1E2DEBFCDBF00E00CBF13E0A0E0B2E082
:1002F000E0E4FEE300E00BBF02C007900D92A832DD
:10030000B107D9F723E0A8E2B3E001C01D92A23FF4
:10031000B207E1F711E0CDE6D1E000E006C0219799
:100320000109802FFE010E945F1CCC36D10780E0BE
:100330000807A9F70E9412160C941E1F0C940000C7
:100340008150823108F05AC0E82FF0E08827E45548
:10035000FE4F8F4F0C945F1CCC01D001BE01C40135
:10036000C801FE01D301D901DD01E301E701EB0181
:10037000F101F501FE01F901FF0103028091800006
:100380008F77809380000895809180008F7DF9CFD2
:1003900080918000877FF5CF84B58F7784BD0895E5
:1003A00084B58F7DFBCF8091B0008F778093B000B4
:1003B00008958091B0008F7DF9CF809190008F7764
:1003C000809390000895809190008F7DF9CF809167
:1003D0009000877FF5CF8091A0008F778093A00059
:1003E00008958091A0008F7DF9CF8091A000877F34
:1003F000F5CF809120018F7780932001089580911F
:1004000020018F7DF9CF80912001877FF5CFCF9399
:10041000DF93282F30E0F901EE59FD4F8491F90167
:10042000E45EFD4FD491F901EA52FE4FC491CC2312
:10043000A1F081110E94A001EC2FF0E0EE0FFF1F50
:10044000E454FE4FA591B491EC91ED2381E090E04E
:1004500009F480E0DF91CF91089580E090E0FACF39
:100460001F93CF93DF93282F30E0F901EE59FD4F12
:100470008491F901E45EFD4FD491F901EA52FE4FF7
:10048000C491CC23A9F0162F81110E94A001EC2F5A
:10049000F0E0EE0FFF1FEE55FE4FA591B4918FB720
:1004A000F894EC91111108C0D095DE23DC938FBF36
:1004B000DF91CF911F910895DE2BF8CFCF93DF937B
:1004C00090E0FC01E45EFD4F24918A529E4FFC01B6
:1004D00084918823D1F090E0880F991FFC01E857A0
:1004E000FE4FA591B491FC01EE55FE4FC591D491FC
:1004F00061110EC09FB7F8948C91E22FE0958E2386
:100500008C932881E223E8839FBFDF91CF910895E8
:100510008FB7F894EC91E22BEC938FBFF6CF863334
:1005200008F0865320917B00982F9870277F922B9C
:1005300090937B008770806480937C0080917A0028
:10054000806480937A0080917A0086FDFCCF809150
:1005500078009091790008953FB7F8948091350321
:1005600090913603A0913703B091380326B5A89B2C
:1005700005C02F3F19F00196A11DB11D3FBFBA2F35
:10058000A92F982F8827BC01CD01620F711D811DF5
:10059000911D42E0660F771F881F991F4A95D1F77A
:1005A00008958F929F92AF92BF92CF92DF92EF9277
:1005B000FF924B015C010E94AC026B017C010E9426
:1005C000AC026C197D098E099F09683E7340810554
:1005D0009105A8F321E0821A9108A108B10888EEDC
:1005E000C80E83E0D81EE11CF11C81149104A10403
:1005F000B10429F7FF90EF90DF90CF90BF90AF90BC
:100600009F908F900895CF93DF9380912A030E944B
:100610000702EC01809128030E940702AC0121E04F
:10062000CD2B09F420E091E0452B09F490E0291747
:1006300079F021E030E080912C0390912D03820F1E
:10064000931F90932D0380932C03DF91CF910895F6
:100650002FEF3FEFF0CF0895AF92BF92CF92DF928E
:10066000EF92FF920F931F93CF93DF936C017B0167
:100670008B01040F151FEB015E01AE18BF08C017F8
:10068000D10759F06991D601ED91FC910190F0816B
:10069000E02DC6011995892B79F7C501DF91CF911E
:1006A0001F910F91FF90EF90DF90CF90BF90AF9090
:1006B0000895FC01538D448D252F30E0842F90E068
:1006C000821B930B541710F0CF960895019708954D
:1006D000FC01918D828D981761F0A28DAE0FBF2F16
:1006E000B11D5D968C91928D9F5F9F73928F90E06C
:1006F00008958FEF9FEF0895FC01918D828D9817DB
:1007000031F0828DE80FF11D858D90E008958FEF17
:100710009FEF0895FC01918D228D892F90E0805CE0
:100720009F4F821B91098F739927089589E393E066
:100730000E948A0321E0892B09F420E0822F08958A
:10074000FC01A48DA80FB92FB11DA35ABF4F2C9146
:10075000848D90E001968F739927848FA689B7893D
:100760002C93A089B1898C91837080648C93938D34
:10077000848D981306C00288F389E02D80818F7DD7
:1007800080830895EF92FF920F931F93CF93DF938F
:10079000EC0181E0888F9B8D8C8D98131AC0E889BD
:1007A000F989808185FF15C09FB7F894EE89FF898C
:1007B0006083E889F98980818370806480839FBF2A
:1007C00081E090E0DF91CF911F910F91FF90EF902A
:1007D0000895F62E0B8D10E00F5F1F4F0F7311273A
:1007E000E02E8C8D8E110CC00FB607FCFACFE88975
:1007F000F989808185FFF5CFCE010E94A003F1CF5A
:10080000EB8DEC0FFD2FF11DE35AFF4FF0829FB7E8
:10081000F8940B8FEA89FB8980818062CFCFCF93D8
:10082000DF93EC01888D8823B9F0AA89BB89E88918
:10083000F9898C9185FD03C0808186FD0DC00FB6BE
:1008400007FCF7CF8C9185FFF2CF808185FFEDCF3C
:10085000CE010E94A003E9CFDF91CF91089581E0FE
:1008600080932F0308950E949603882319F081E056
:1008700080932F0380E090E0892B49F080E090E0A6
:10088000892B29F00E94000081110E94000080E065
:1008900090E0892B49F080E090E0892B29F00E94BC
:1008A000000081110E94000080E090E0892B49F057
:1008B00080E090E0892B29F00E94000081110C94C7
:1008C00000000895CF92DF92EF92FF921F93CF9393
:1008D000DF93182F0E948F0261E070E080E090E0CB
:1008E0000E94D102CAE0D0E0C12CD12C7601812F28
:1008F0000E948F02092E000CAA0BBB0BC80ED91E3A
:10090000EA1EFB1E219799F7C701B6012AE030E0E5
:1009100040E050E00E94F01BC901DF91CF911F9190
:10092000FF90EF90DF90CF900895089590E080E0E1
:1009300008956F3FA9F0E62FE295EF7044E0E49F41
:1009400090011124DC01ED91FC91E20FF31F6F7017
:1009500082819381B6E06B9F800D911D11240895D3
:1009600090E080E00895982F80336CF08A3324F073
:100970008F3524F08B3724F481E0089581341CF006
:1009800081E09B350CF080E00895CF93DF93EC017C
:1009900088819981DC01ED91FC910190F081E02D3D
:1009A00019952A813B81820F931F9B838A83DF9154
:1009B000CF910895CF93DF93EC0188819981DC0179
:1009C000ED91FC910280F381E02D19952A813B8104
:1009D000820F931F9B838A83DF91CF9108958F921B
:1009E0009F92AF92BF92CF92DF92EF92FF920F93BE
:1009F0001F93CF93DF93CDB7DEB766970FB6F8940A
:100A0000DEBF0FBECDBF6C018E01095E1F4F7801A6
:100A10008AE0882E912CA12CB12CCB01BA01A50122
:100A200094010E941A1C942F852F605DF801629337
:100A30008F01A901692F782F4115510561057105B5
:100A400061F7A7014E1B5F0BBF01C6010E94DA04CC
:100A500066960FB6F894DEBF0FBECDBFDF91CF9183
:100A60001F910F91FF90EF90DF90CF90BF90AF90CC
:100A70009F908F9008950F931F93CF93DF93EC0176
:100A80008A85811140C00F8118852FB7F894809115
:100A9000310390913203A0913303B09134032FBFFF
:100AA000F80180879187A287B387D801ED91FC91E7
:100AB0000284F385E02DC801199597FF2AC02FB74E
:100AC000F8948091310390913203A0913303B09157
:100AD00034032FBFF8014085518562857385841BDF
:100AE000950BA60BB70B44815581668177818417DE
:100AF0009507A607B707C8F28FEF9FEF97FD80E035
:100B0000898781E08A878985DF91CF911F910F9135
:100B100008959927F3CF1F93CF93DF93EC01162FFE
:100B20000E943B05811306C01A8681E0DF91CF91B8
:100B30001F91089580E0FACF0F931F93CF93DF9317
:100B40008C01EB018991882369F0C8010E943B0563
:100B5000882379F0FE013197908198130DC0F80138
:100B60001286F0CF90E080E0DF91CF911F910F913E
:100B7000089582E090E0F8CF83E090E0F5CFCF9346
:100B8000DF93EC01CE010E943B058B304CF48930A1
:100B90005CF4882359F081E08E8390E080E00BC004
:100BA0008D3011F08032B9F71A86ECCF8E81811129
:100BB00005C081E090E0DF91CF91089582E090E060
:100BC000FACFCF93DF93DB01FC0180819181009705
:100BD000E1F012962C91129713964C911397342FA3
:100BE0003F77FC0143814217130671F7ED91FC91A9
:100BF0001197EC0124962E0F3F1FE217F30729F0FF
:100C0000519149915417C9F3DFCFDF91CF910895E6
:100C1000DC0152969C915297915084E0989F9001EC
:100C200011245096ED91FC91E20FF31F2281338144
:100C30002115310579F041818081481758F481E010
:100C4000840F818386E0489F200D311D11242115DA
:100C5000310521F460E070E08FEF0895B901892F2C
:100C60008295807F840F0895DF92EF92FF920F9319
:100C70001F93CF93DF93EC017B01D12C6889798995
:100C80008A89D816E0F484E0D89E80011124060FEA
:100C9000171FD80112966D917C916115710541F075
:100CA000D701ED91FC910280F381E02DC7011995E8
:100CB000F8011382128210821182D394DFCF1A8A34
:100CC0008FEF8C8BC617D70761F0D701ED91FC91A0
:100CD0000280F381E02DC7011995D98BC88B84E080
:100CE0008B8BDF91CF911F910F91FF90EF90DF9051
:100CF00008954F925F926F927F928F929F92AF92E0
:100D0000BF92CF92DF92EF92FF920F931F93CF93F8
:100D1000DF9300D01F921F92CDB7DEB7DC012C917C
:100D20002B32E1F12D32D9F50196EE24E394FC014A
:100D3000208130ED320F3A3010F02E3291F58C01D7
:100D400060E070E0CB01F801219130ED832E820E3E
:100D500039E0381508F444C06A3949E97407840752
:100D600049E1940708F046C0AAE0B0E09B01AC015D
:100D70000E940F1C912CB12CA12C24013501409410
:100D8000509460947094461657066806790690F160
:100D9000680D791D8A1D9B1D8F01D5CF0196E12C11
:100DA000C6CF198229813A814B815C816D8170E0C7
:100DB00080E090E00F900F900F900F900F90DF91D8
:100DC000CF911F910F91FF90EF90DF90CF90BF9048
:100DD000AF909F908F907F906F905F904F9008950D
:100DE000211108C0EE2051F161307105810550E8F4
:100DF0009507A0F0F12CBAE08B2E912CA12CB12CF0
:100E00006115710530E883079105F8F0A50194019B
:100E10000E941A1CCA01B901F394F2CF22E029837F
:100E20009B01AC0188279927DC01821B930BA40B43
:100E3000B50B8A839B83AC83BD83B4CF23E0298326
:100E40006A837B838C839D83ADCFF801D8012D917C
:100E50008D0130ED320F3A3010F4F394F6CF2E328C
:100E600001F58F010F5F1F4FF8010F5F1F4F2081AA
:100E7000A0EDDA2ED20EB9E0BD1598F06C3CECEC8A
:100E80007E07ECE08E07910578F7AAE0B0E09B01C1
:100E9000AC010E940F1C6D0D711D811D911DFA94F6
:100EA000E3CF20812F7D10E000E0253409F050C011
:100EB00021812D32B1F53296CC24C394DF0110E0AC
:100EC00000E02F2D0F2C000C330B5AE0B52EFD0146
:100ED000DD9040ED4D0D4A30B0F5B09EA001B19EC1
:100EE000500D11240D2DDD0C110B00531109040FB1
:100EF000151FA801420F531F4732510544F3CC2060
:100F0000B9F080E090E0A0E0B0E8E11003C080E03C
:100F100090E0DC0121E029838A839B83AC83BD833D
:100F200041CF2B3219F03196C12CC8CF3296FCCF6D
:100F300080E090E0A0E8BFEFE110ECCF80E090E02F
:100F4000A0E8BFE7E7CFCC2019F011950195110972
:100F50002081211126CF0F0D111DF7FC1A950E943B
:100F6000D11A30ECC32E32E0D32E101611063CF00D
:100F700011950195110948EAC42E42E0D42EF12CB6
:100F80000115110591F000FF0CC024E0F29EF00164
:100F90001124EC0DFD1D25913591459154910E9430
:100FA000321B15950795F394EBCFE110905821E093
:100FB00029836A837B838C839D83F4CECF92DF92D7
:100FC000EF92FF920F931F93CF93DF937C016B01FE
:100FD0008A01FC01C081D1814F3F510509F0B0F475
:100FE000E881F9810480F581E02D4B5F5F4FCE01F0
:100FF0001995009759F0FC010383DF91CF911F9160
:101000000F91FF90EF90DF90CF900895E881F981E4
:101010000280F381E02DB601CE01199581E0F70140
:10102000828390E080E0E9CF1F93CF93DF93EC01C0
:10103000162F6A817B816115710589F04C815D8174
:10104000FB0183818417150651F4440F551F4F5F30
:101050005F4F888199810E94DE079B838A838A8102
:101060009B81009759F02C813D81A9014F5F5F4F13
:101070005D834C83820F931FFC011483DF91CF911A
:101080001F9108959F92AF92BF92CF92DF92EF92FD
:10109000FF920F931F93CF93DF9300D01F921F9265
:1010A000CDB7DEB78C010E943B05D82EF801128621
:1010B000F12CE12C60EFC62EC8010E943B05F8011F
:1010C0001286D81609F4B3C0811113C082E090E0F3
:1010D0000F900F900F900F900F90DF91CF911F9175
:1010E0000F91FF90EF90DF90CF90BF90AF909F90C7
:1010F00008958C3509F099C0C8010E943B058823EA
:1011000029F3E0E6F2E0853709F083C0F8011286A2
:1011100054E0952EB12CA12CC8010E943B058823D8
:10112000A9F2813434F48053803130F083E090E0D0
:10113000CFCF8F7D8753F8CF44E0AA0CBB1C4A95D4
:10114000E1F7A82AF80112869A949110E5CFC5011B
:10115000985D8115944020F47501F3E0FF22ACCF37
:10116000C5019C5D81159440A8F483E0B822B701C5
:10117000762F6627770F770F6A297B2990E080E02A
:101180000196603871058105910540F4C8010E94FF
:10119000140892CFB50190E080E0F3CF1982262F9A
:1011A0002F7320682A8326E0969587957795679513
:1011B0002A95D1F76032710580F4606C6B835E0113
:1011C000E4E0AE0EB11CF50162915F01662309F403
:1011D00073CFC8010E941408F6CF262F2F73206802
:1011E0002B8386E0769567958A95E1F760317105E6
:1011F00038F4606E6C835E01F5E0AF0EB11CE3CF96
:1012000060686C83CD825E0126E0A20EB11CDBCF4C
:1012100032969081992309F489CF8913F9CF81817E
:10122000882309F483CFF8011286682FAFCF82811B
:101230009381892B19F484E090E04ACF90E080E01C
:1012400047CFAF92BF92CF92DF92EF92FF920F9370
:101250001F93CF93DF9300D01F92CDB7DEB7DC0191
:1012600012962D913C9113972C5F3F4F14964D9100
:101270005C914430510580F57901D901E0E0142FEB
:10128000022FFA2FF21BF11730F4DD90F1E0D110AC
:10129000F0E0EF2BF6CFE1111FC082E0FB01848369
:1012A0008E2D801B811728F4D7018D917D018193AC
:1012B000F7CF640F751FFB0110820F900F900F90F6
:1012C0000F90DF91CF911F910F91FF90EF90DF90E2
:1012D000CF90BF90AF9008957B018C01420F531FB8
:1012E000DA011C92FC01C080D180A480B5803A83D1
:1012F0002983AB828B2D8F778C83BE016F5F7F4FED
:10130000C60103960E94E1050097D9F4D801129610
:101310006D917C91A501C6010E94DE07D801ED9177
:10132000FC9123813481DC012D933C93948383834E
:10133000F8011382128225E0F701248391838083D0
:10134000BCCFDC0112962C9112972F5F12962C9332
:10135000F2CFDB01ED91FC9111970280F381E02D3A
:10136000BC01CD011994AF92BF92CF92DF92EF9260
:10137000FF920F931F93CF93DF93EC018B018C812E
:1013800080FF24C0A881B981FB018381948130E072
:1013900020E00097D9F0A817B907D1F5F8016081CE
:1013A000718112968C911297815012968C9312979C
:1013B00081110CC08D919C9111972115310529F156
:1013C000F90191838083CD010E94A9098C818076E7
:1013D00031F1209721F1F8805801F5E1AF0EB11CF1
:1013E0008FEFF816D1F06F2DC5010E9499046C01A2
:1013F000FC01E580B8010E94B309F801818DF60176
:101400008083F801F18EFE2CEBCF94838383DBCFB6
:101410009C01FC0180819181BCCFF882F9821C8201
:10142000DF91CF911F910F91FF90EF90DF90CF90C0
:10143000BF90AF9008950F931F93CF93DF93EC016C
:10144000088119818B819C81009749F0FC012081E2
:1014500031813C832B83B8010E94A909F3CF6881B5
:101460007981CE010596DF91CF911F910F910C9458
:101470003406CF93DF93EC01CB01CF3FD10509F0C8
:10148000B0F4BE016B5F7F4F6C177D0780F0DC010D
:10149000ED91FC910190F081E02D1995009721F0DC
:1014A000FC01C38321E02283DF91CF91089590E076
:1014B00080E0FACFFB0101900020E9F73197AF01FE
:1014C000461B570BDC01ED91FC910280F381E02D6E
:1014D0001994FB0101900020E9F73197AF01461BF9
:1014E000570B0C94DA04CF92DF92EF92FF920F9396
:1014F0001F93CF93DF938C016B017A0162E20E940C
:10150000C504E601EC0CFD1CEC16FD0699F0699192
:10151000E0E6F2E0D480DD20C9F0329683816813E2
:10152000F9CF6CE5C8010E94C5046D2DC8010E9469
:10153000C504EACF62E2C801DF91CF911F910F91FC
:10154000FF90EF90DF90CF900C94C5046111EECF27
:1015500063E772E0C8010E94690AD6CFFC0130E05F
:1015600020E06115710549F0DB010D900020E9F7DD
:101570009D0121503109261B370B71836083228323
:10158000832F8F7793819078982B40FB97F99383E3
:1015900008952F923F924F925F926F927F928F9217
:1015A0009F92AF92BF92CF92DF92EF92FF920F93F2
:1015B0001F93CF93DF93CDB7DEB76B970FB6F89439
:1015C000DEBF0FBECDBF7C018B01DC0114968C9178
:1015D0001497863009F4A3C2F8F4833009F492C258
:1015E00058F440E0B701823009F47BC26AE772E048
:1015F000C8010E94690A81C2843009F46EC2853034
:10160000A9F7ED91FC91438150E0BF016C5F7F4FE2
:10161000C8010E94730A1CC28E3009F443C0E0F472
:101620008A3009F477C28C3009F7CD90DD90ED90C7
:10163000FC90B701A601F7FE0BC06DE2C8010E9445
:10164000C50444275527BA014C195D096E097F0965
:10165000C8010E94EF04FCC1803209F415C2803435
:1016600029F66BE5C8010E94C504D701FC90BFEFC5
:10167000FB1609F4E9C1F801848195816F2D459627
:101680000E9499047C01B8010E94C90AD7011596ED
:10169000FC90BFEFFB1609F4D7C16CE2C8010E94B1
:1016A000C504E5CFF70180809180A280B380A501B9
:1016B0009401C501B4010E94CC1A882331F06AE775
:1016C00072E0C8010E94690AC3C120E030E0A901AC
:1016D000C501B4010E94CC1A882371F0A5019401C0
:1016E000C501B4010E94681C9B01AC01C501B40195
:1016F0000E94CC1A882319F320E030E0A901C5012B
:10170000B4010E94CC1A87FF08C06DE2C8010E9494
:10171000C504B7FAB094B7F8B09420E836E948E1C8
:101720005BE4C501B4010E940A1D87FD83C074E11A
:10173000C72ED12CE0E2EE2EF12C312C212CF6011B
:10174000E054FD4F6591759185919491A5019401A7
:101750000E94CC1A18167CF0F601E855FD4F259131
:10176000359145915491C501B4010E94321B4B0142
:101770005C012E0C3F1CF594E794F4E0CF1AD108DD
:101780002CEFC2162FEFD206D1F63FEF3F8B20E0B1
:1017900030E0A901C501B4010E940A1D18160CF021
:1017A00051C02CEA35EC47E257E3C501B4010E9471
:1017B000CC1A18160CF446C0AF89B4E0AB02C001D5
:1017C0001124D12CC12CFC01E855FD4F2F019C01A7
:1017D00020543D4F39013F893F3F09F433C0F201A6
:1017E000EC0DFD1D659175918591949120E030E09F
:1017F00040E251E40E94321BA50194010E940A1D9F
:1018000018167CF4F301EC0DFD1D259135914591E1
:101810005491C501B4010E94321B4B015C012E188A
:101820003F08F594E7948F8981508F8B94E0C91A13
:10183000D108D1CF50E2E52EF12C85E08F8B312CF1
:10184000212CA5CFC501B4010E94DB1C6B017C01DA
:101850002B013C0180E492E4AFE0B0E0888F998FE7
:10186000AA8FBB8F96E09F8BAAE04A1651046104B1
:101870007104E0F0688D798D8A8D9B8D2AE030E0CF
:1018800040E050E00E941A1C288F398F4A8F5B8FEE
:10189000BF89B150BF8BC301B2012AE030E040E004
:1018A00050E00E941A1C29013A01DECFC701B6019F
:1018B0000E94D11A9B01AC01C501B4010E94671CB2
:1018C0004B015C01688D798D8A8D9B8D0E94D11AA8
:1018D0009B01AC01C501B4010E94321B2B013C01EC
:1018E0000E94DB1C4B015C010E94D11A9B01AC01E0
:1018F000C301B2010E94671C9B01AC010E94681CDD
:101900000E94DB1C860E971EA81EB91E888D998D1D
:10191000AA8DBB8D88169906AA06BB06C0F09FEF5C
:10192000C91AD90AE90AF90A2114310439F1AAE0DD
:10193000CA16D104E104F10408F1BFEF2B1A3B0AE7
:10194000812C912C5401C12CD12C7601C3942AE016
:10195000422E512C612C712CC501B401A3019201BE
:101960000E941A1C672B682B692B61F4EF891E16E5
:101970004CF449015A01E150EF8BEECF812C912CB0
:101980005401E5CFB701A601C8010E94EF04FF8909
:10199000FF2391F16E0121E1C20ED11CF88F760177
:1019A0009AE0492E512C612C712C388D3150388F92
:1019B0003F3F69F0C501B401A30192010E941A1CC6
:1019C000605DD6016E936D0149015A01EECFBF896A
:1019D0008B2F90E0BC0160957095F701E81BF90B27
:1019E00031978EE2808344275527461B570B6E0D97
:1019F0007F1DC8010E94DA042114310449F165E613
:101A0000C8010E94C504710137FE07C06DE2C8011C
:101A10000E94C504F194E194F108FE0177969F01BC
:101A20008AE0C82ED12CC701B6010E944B1C805DF4
:101A300082937B01672BB9F7A9014E1B5F0BBF0196
:101A4000C8010E94DA0404C06DE5C8010E94C50403
:101A5000F801828193816B960FB6F894DEBF0FBEBA
:101A6000CDBFDF91CF911F910F91FF90EF90DF904D
:101A7000CF90BF90AF909F908F907F906F905F902E
:101A80004F903F902F9008956BE7C8010E94C504C6
:101A9000D701FC90EE24E394BB24B394BFEFFB1674
:101AA000D1F0F801848195816F2D45960E949904AB
:101AB0006C01B8010E94C90AD6011596FC90BFEFCF
:101AC000FB1639F06AE3E11001C06CE2C8010E9424
:101AD000C504EB24E3CF6DE7B8CFF70160817181D6
:101AE00041E0CE0101960E94AE0A4B815C815F7796
:101AF00069817A81C8010E94730AD80112968D917A
:101B00009C91A9CFED91FC91438150E0BF016C5FA6
:101B10007F4F96CF4D915D916D917C9199CD8C9138
:101B20006FE772E08111CDCD64E872E0CACDAF926B
:101B3000BF92CF92DF92EF92FF920F931F93CF93BA
:101B4000DF9300D01F92CDB7DEB7B62EA72E7A0155
:101B5000452B09F45EC089010B5E1F4FFC016081BB
:101B6000C8010E949904FC01DD24DA94892B09F054
:101B7000D580CC24C394309709F44BC0CC2019F104
:101B80008481843059F18530B9F18230E9F540E043
:101B9000BF01CE0101960E94AE0AA981BA818B8154
:101BA0004C81942F9F774B2D5A2D5F7748175907FB
:101BB00051F4F7018E0D9F1D8E179F07D9F13191BA
:101BC0002D913217C9F381E0C8266D2DC8010E94FE
:101BD0009904FC01892B79F2D580CDCF6081718188
:101BE00041E0CE0101960E94AE0A4C8199818A8122
:101BF000A92FB82F8B81D5CF0190F081E02DDF0187
:101C00001496838190E0CFCF90E080E0B0E0A0E038
:101C1000CACF90E080E00F900F900F900F90DF916F
:101C2000CF911F910F91FF90EF90DF90CF90BF90D9
:101C3000AF9008956D2DC8010E949904ECCFFC016E
:101C400020813181C9014A96428153816481758125
:101C5000009759F0D9015E96EC91E03211F090E0D6
:101C600080E0009711F00C94970D90E080E00895CB
:101C7000CF93DF93EC0160E08E810E94300261E03F
:101C80008E810E94300260E08E810E9430028BE8DB
:101C900091E00197F1F7DF91CF910895CF92DF9214
:101CA000EF92FF920F931F93CF93DF936C017C0110
:101CB00087E0E80EF11CD0E0C0E0062F10E0B8018C
:101CC0000C2E02C0759567950A94E2F76170F701D2
:101CD00081917F010E9430022196C430D10579F7AD
:101CE000C601DF91CF911F910F91FF90EF90DF9090
:101CF000CF900C94380ECF92DF92EF92FF920F9319
:101D00001F93CF93DF93EC01F62E642F8C810E94FA
:101D100030028D818F3F19F060E00E9430020F2D5C
:101D200010E08F8584FF25C06E0187E0C80ED11CAE
:101D3000F12CE12CB8010E2C02C0759567950A9420
:101D4000E2F76170F60181916F010E943002FFEFAE
:101D5000EF1AFF0A88E0E816F10461F7CE01DF917F
:101D6000CF911F910F91FF90EF90DF90CF900C9447
:101D7000380EB80184E0759567958A95E1F7CE0134
:101D80000E944E0E6F2DCE01DF91CF911F910F91CA
:101D9000FF90EF90DF90CF900C944E0ECF93DF9397
:101DA000823029F49091E50398609093E503809345
:101DB000E9031092EA0380E48093EB0380E18093CF
:101DC000EC0380E58093ED0361E08091DA030E94EB
:101DD0005E028091DB038F3F19F061E00E945E029A
:101DE00061E08091DC030E945E02C6EDD3E09E01BB
:101DF000265D33408091E50384FD0BC084E090E0D4
:101E000021962817390744F461E08E810E945E0212
:101E1000EECF88E090E0F4CF8BE39DE00197F1F7FF
:101E200060E08091DA030E94300260E08091DC0380
:101E30000E9430028091DB038F3F19F060E00E9426
:101E400030026091E50364FD45C063E086ED93E0F8
:101E50000E944E0ECBE4D6E4CE010197F1F763E089
:101E600086ED93E00E944E0E2197F1F763E086ED38
:101E700093E00E944E0E83E592E00197F1F762E055
:101E800086ED93E00E944E0E6091E503606240E0B3
:101E900086ED93E00E947B0E84E08093E60340E0B1
:101EA0006CE086ED93E00E947B0E40E061E086ED01
:101EB00093E00E947B0E8BE39FE10197F1F782E0B4
:101EC0008093E70340E066E086ED93E0DF91CF91F9
:101ED0000C947B0E606240E086ED93E00E947B0EE6
:101EE0008BE496E40197F1F76091E503606240E0CE
:101EF00086ED93E00E947B0E83E592E00197F1F777
:101F00006091E503606240E086ED93E00E947B0E05
:101F1000BBCF41E00E947B0E81E090E00895BF922C
:101F2000CF92DF92EF92FF920F931F93CF93DF93A5
:101F3000EC01198D1F3F81F0612F45960E94990495
:101F4000FC018081898F309709F477C014828FEF6C
:101F50008583BF01812F76C06C0135E0C30ED11C93
:101F6000E880F9808F89882341F0C6010E94080625
:101F7000E62FF72F182F309749F71F89988D1913DF
:101F800024C0103109F459C0110F6D897E89D70121
:101F9000ED91FC91B4E01B9FA0011124C616D70659
:101FA00009F044C00190F081E02DBA01C7011995F4
:101FB000009709F442C020E1F601DC0101900D9286
:101FC0002A95E1F79E8B8D8B188F0D891E898F893D
:101FD00021E0280F2F8BE4E08E9FC0011124080F11
:101FE000191F90E1B92E203111F48FE0B82EF6E0E0
:101FF000BF9EB0011124D701ED91FC910190F081B9
:10200000E02DC7011995F80193838283892B09F488
:10201000B12CD801BC9211961C92012B71F0C60113
:102020000E940806E62FF72F182F8DCF0480F58128
:10203000E02DC7011995009729F681E08A8360E0B9
:1020400070E08FEFDF91CF911F910F91FF90EF9094
:10205000DF90CF90BF9008953F924F925F926F9222
:102060007F928F929F92AF92BF92CF92DF92EF9228
:10207000FF920F931F93CF93DF9300D01F921F9275
:10208000CDB7DEB78C017B01742E0E94BF056C01B9
:10209000892B09F050C0C8010E943B05863609F41F
:1020A000BEC164F5873229F08B35A1F1823209F087
:1020B000BFC1F8011582148282819381892B99F422
:1020C000C080D180D6016D917C918FE190E00E941B
:1020D000390A009719F421E0F6012283D8011396FA
:1020E0009C938E931297C8010E9442086C01892B21
:1020F00011F5B701C8010E9421091DC0843709F4F8
:102100006EC18B3709F47CC08E3609F091C16AE745
:1021100072E06CC180E4D70114968C931497E1149B
:10212000F10421F08FEF8C9311968C9371101BC0EA
:1021300025E0C22ED12CC6010F900F900F900F906A
:102140000F90DF91CF911F910F91FF90EF90DF9053
:10215000CF90BF90AF909F908F907F906F905F9047
:102160004F903F900895F8011286C8010E94BF0564
:10217000009751F56DE5C8010E948B058111DBCFF9
:102180007A94D8011B968D909C90C4010E948F0F69
:10219000682E5B01672B21F494E0C92ED12CCBCFA4
:1021A000F70161816F3F91F0C40145960E94990447
:1021B000DC0115966C92F7016182472DB501C801CB
:1021C0000E942C10009739F06C01B5CFD7018C9389
:1021D00011968C93F2CFC8010E94BF050097A1F71A
:1021E0006DE5C8010E948B058111A5CF6CE2C80185
:1021F0000E948B058111C5CF83E0C82ED12C9BCFC7
:1022000080E2F7018483E114F10419F08FEF8083F9
:102210008183772009F48CCFD8011A961C92C801CB
:102220000E94BF05009781F66DE7C8010E948B05EB
:10223000811181CF552453947A94F8011582148228
:1022400082819381892B91F4C080D180D6016D91D8
:102250007C918FE190E00E94390A009711F4F60119
:102260005282D80113969C938E931297C8010E94B4
:102270003B05873201F18232F1F0C8010E943B0533
:10228000D82E0E94B304882309F4B6CFF801128631
:102290006D2DC8010E941408C8010E943B05D82E6C
:1022A0000E94B3048111F2CFD80112968D919C91B6
:1022B000892B41F471CFC8010E9442086C01892B1F
:1022C00009F039CFC8010E94BF056C01892B09F0C4
:1022D00032CF6AE3C8010E948B05882309F48CCFB2
:1022E000D8011296ED91FC91139714968D919C91C3
:1022F0001597E80FF91F148214966D917C9115972C
:102300007F771B962D913C911C9712968D919C91F5
:102310000496472F4F77B62DB0786B2E642AE89439
:1023200067F8AC01762DC7010E94970D6C01F8018A
:1023300083849484009759F5C4010E948F0F382E2E
:102340005B01672B09F428CFC4010E948F0F482E30
:10235000962FC92ED72EC114D10409F41DCFD50153
:1023600015964C92F70161816F3F71F0C40145965B
:102370000E949904DC0115963C92F7014182B50157
:10238000C8010E94210906C030824182F8CFB40101
:102390000E94B309472DB601C8010E942C106C01A0
:1023A000892B09F0C8CEC8010E94BF056C01892B9A
:1023B00009F0C1CE6DE7C8010E948B058111BBCE2B
:1023C0006CE2C8010E948B05882309F415CFC8016F
:1023D0000E94BF056C01892B09F42FCFACCE86E09B
:1023E000F701848381E080836FE772E0C8010F907A
:1023F0000F900F900F900F90DF91CF911F910F9141
:10240000FF90EF90DF90CF90BF90AF909F908F9014
:102410007F906F905F904F903F900C949C0586E06A
:10242000D70114968C9314971C9264E872E0DECF67
:10243000C8010E943B054801BDE08B0E911CB12CE8
:10244000782CA92C803384F08A3384F4EFE3BE1611
:10245000A9F0D8011A961C92B394F40181934F010C
:10246000C8010E943B05EECF8B3281F393ED980FAC
:10247000923060F3982F9F7D953441F30B0D111D21
:10248000D8011D961C92872D9A2D0E9479063A83B9
:102490004B835C836D838A819B81AC81BD812230BB
:1024A000A9F0233059F0213009F0A6CE2EE0F70133
:1024B000248380839183A283B3833DCE2AE0F701F6
:1024C000248380839183A283B38335CE2CE0F7CF1E
:1024D0002F923F924F925F926F927F928F929F9234
:1024E000AF92BF92CF92DF92EF92FF920F931F9322
:1024F000CF93DF9300D000D01F921F92CDB7DEB7ED
:10250000FC0141155105E1F4912C812CC401289660
:102510000FB6F894DEBF0FBECDBFDF91CF911F91F4
:102520000F91FF90EF90DF90CF90BF90AF909F9072
:102530008F907F906F905F904F903F902F90089575
:10254000848181113AC080E284833097E9F28FEF71
:102550008083818369012A013B018F01CF010E94A1
:10256000970D4C01892B91F6C6010E948F0F8E8327
:102570007B01672B59F2C6010E948F0F8D831B01CF
:10258000672B21F277FE1FC084E0F701848351821C
:1025900040822D81F7012583F80161816F3F09F4A5
:1025A00082C0C60145960E9499042E81FC012583B4
:1025B0002D81F80121834101A9CF803209F0A4CFF8
:1025C000309741F6A1CF762D972D9F77A62CB92E67
:1025D000F4E0AF16B10420F5D201920180E0542D51
:1025E000422F4A1B471740F4F90161919F0141E0D6
:1025F000611140E0842BF4CF811112C082E0F70119
:102600008483C7012A2F251B271728F42D91FC014D
:102610002193CF01F7CFF701E70FF11D1082B9CF5A
:10262000F6010190F081E02DF887EF835A8249820C
:102630006B829C83BE016F5F7F4FC60103960E9431
:10264000E105009751F0FC0122812F5F228325E0F4
:10265000F7012483918380839CCF6F817885C501A6
:102660000E94390A009721F481E0F60182834ECF5F
:10267000E981FA81DC01149695012E0F3F1F2E1778
:102680003F0719F041914D93FACFFC01EA0DFB1D74
:102690001482F60123813481FC0131832083F60109
:1026A00094838383D4CF2E8120833D81318383CF54
:1026B000CF92DF92EF92FF920F931F93CF93DF930E
:1026C000FC0100811181C8014A9619F17B01428108
:1026D00053816481758198010E946812EC01009712
:1026E000C1F0F701C080D180E280F380B8010E9480
:1026F000B3098CE08C83C882D982EA82FB8281E0B4
:10270000DF91CF911F910F91FF90EF90DF90CF90CD
:10271000089580E0F5CFEF92FF920F931F93CF9330
:10272000DF93FC01E080F180C7014A9641F480E02C
:10273000DF91CF911F910F91FF90EF9008958B0142
:10274000428153816481758197010E946812EC0176
:10275000009769F3F80100811181B7010E94B30964
:102760008CE08C83012E000C220B330B0883198321
:102770002A833B8381E0DCCFCB01BA010C94341E69
:10278000CB010C94AB1DCB010C940F1D1F920F922B
:102790000FB60F9211242F933F938F939F93AF9374
:1027A000BF938091310390913203A0913303B09194
:1027B00034033091300323E0230F2D3758F5019671
:1027C000A11DB11D209330038093310390933203F8
:1027D000A0933303B0933403809135039091360373
:1027E000A0913703B09138030196A11DB11D8093CC
:1027F000350390933603A0933703B0933803BF910A
:10280000AF919F918F913F912F910F900FBE0F909D
:102810001F90189526E8230F0296A11DB11DD2CF57
:102820001F920F920FB60F9211240BB60F922F9397
:102830003F934F935F936F937F938F939F93AF9348
:10284000BF93EF93FF93E0910E02F0910F02199561
:10285000FF91EF91BF91AF919F918F917F916F9178
:102860005F914F913F912F910F900BBE0F900FBE34
:102870000F901F9018951F920F920FB60F92112470
:102880000BB60F922F933F934F935F936F937F936A
:102890008F939F93AF93BF93EF93FF93E0910C02BD
:1028A000F0910D021995FF91EF91BF91AF919F911A
:1028B0008F917F916F915F914F913F912F910F90E9
:1028C0000BBE0F900FBE0F901F9018951F920F9286
:1028D0000FB60F9211240BB60F922F933F934F9385
:1028E0005F936F937F938F939F93AF93BF93EF9378
:1028F000FF93E0910202F09103021995FF91EF918D
:10290000BF91AF919F918F917F916F915F914F9107
:102910003F912F910F900BBE0F900FBE0F901F9005
:1029200018951F920F920FB60F9211240BB60F92AB
:102930002F933F934F935F936F937F938F939F93C7
:10294000AF93BF93EF93FF93E0910002F0910102E8
:102950001995FF91EF91BF91AF919F918F917F91C9
:102960006F915F914F913F912F910F900BBE0F9000
:102970000FBE0F901F9018951F920F920FB60F92D7
:1029800011240BB60F922F933F934F935F936F9346
:102990007F938F939F93AF93BF93EF93FF93E091B8
:1029A0000A02F0910B021995FF91EF91BF91AF913F
:1029B0009F918F917F916F915F914F913F912F9157
:1029C0000F900BBE0F900FBE0F901F9018951F9287
:1029D0000F920FB60F9211240BB60F922F933F93C5
:1029E0004F935F936F937F938F939F93AF93BF9317
:1029F000EF93FF93E0910802F09109021995FF917E
:102A0000EF91BF91AF919F918F917F916F915F9166
:102A10004F913F912F910F900BBE0F900FBE0F90D3
:102A20001F9018951F920F920FB60F9211240BB69C
:102A30000F922F933F934F935F936F937F938F9357
:102A40009F93AF93BF93EF93FF93E0910602F091B2
:102A500007021995FF91EF91BF91AF919F918F91CF
:102A60007F916F915F914F913F912F910F900BBE8E
:102A70000F900FBE0F901F9018951F920F920FB6D8
:102A80000F9211240BB60F922F933F934F935F93A6
:102A90006F937F938F939F93AF93BF93EF93FF9326
:102AA000E0910402F09105021995FF91EF91BF9119
:102AB000AF919F918F917F916F915F914F913F91D6
:102AC0002F910F900BBE0F900FBE0F901F90189577
:102AD0001F920F920FB60F9211240BB60F922F93E5
:102AE0003F934F935F936F937F938F939F93AF9396
:102AF000BF93EF93FF9389E393E00E94A003FF91BC
:102B0000EF91BF91AF919F918F917F916F915F9165
:102B10004F913F912F910F900BBE0F900FBE0F90D2
:102B20001F9018951F920F920FB60F9211240BB69B
:102B30000F922F938F939F93EF93FF93E09149030D
:102B4000F0914A038081E0914F03F091500382FDA0
:102B50001DC09081809152038F5F8F73209153032A
:102B6000821741F0E0915203F0E0E75CFC4F958F53
:102B700080935203FF91EF919F918F912F910F902E
:102B80000BBE0F900FBE0F901F9018958081F2CF53
:102B9000E9E3F3E01382128288EE93E0A0E0B0E074
:102BA00084839583A683B78386E492E091838083B0
:102BB00085EC90E09587848784EC90E09787868702
:102BC00080EC90E0918B808B81EC90E0938B828BFA
:102BD00082EC90E0958B848B86EC90E0978B868BD3
:102BE000118E128E138E148EE6EDF3E01382128294
:102BF00088E592E09183808383E084838FEF8583EF
:102C000084E0868388E0878389E080878AE0818703
:102C10008BE082871386148615861686178681E0D8
:102C20000C94CE0ECF93DF93CDB7DEB7C357D10947
:102C30000FB6F894DEBF0FBECDBF789484B5826026
:102C400084BD84B5816084BD85B5826085BD85B550
:102C5000816085BD80916E00816080936E001092CE
:102C60008100809181008260809381008091810049
:102C700081608093810080918000816080938000DA
:102C80008091B10084608093B1008091B000816038
:102C90008093B00080919100826080939100809138
:102CA0009100816080939100809190008160809379
:102CB00090008091A10082608093A1008091A1008A
:102CC00081608093A1008091A00081608093A0002A
:102CD0008091210182608093210180912101816096
:102CE0008093210180912001816080932001809157
:102CF0007A00846080937A0080917A008260809369
:102D00007A0080917A00816080937A0080917A00C5
:102D1000806880937A001092C100E0914903F0919D
:102D20004A0382E08083E0914503F09146031082DC
:102D3000E0914703F091480380E1808310925103B2
:102D4000E0914D03F0914E0386E08083E0914B03C8
:102D5000F0914C03808180618083E0914B03F0917E
:102D60004C03808188608083E0914B03F0914C0399
:102D7000808180688083E0914B03F0914C038081D7
:102D80008F7D808382E00E94CE0E83E190E090935D
:102D90002B0380932A038DE190E090932903809385
:102DA000280360E083E10E945E0260E08DE10E9402
:102DB0005E0283E093E09093090280930802809181
:102DC00069008F7C806180936900EA9A60E087E205
:102DD0000E945E0260E085E20E945E0260E083E2A3
:102DE0000E945E0260E081E20E945E0202E212E066
:102DF000F80180810E5F1F4F61E00E945E02F2E0E9
:102E000006331F07A9F761E08DE00E945E025EE4D1
:102E1000252E312C2C0E3D1E25E0220E311C8EE479
:102E200090E08C0F9D1F4A96E4969FAF8EAFE4977B
:102E3000FE0131967F0166E9462E512C612C712CE2
:102E400090902F03992009F483C280E192E060966C
:102E50009FAF8EAF609761961FAE619763961FAE6E
:102E60001EAE6397A5963FAE2EAEA597A6961FAE53
:102E7000A69784E0A7968FAFA7978FEFA8968FAFFE
:102E8000A897AD961FAEAD97AE968FAFAE9760E1A7
:102E900072E0C1010E94340661961FAE6197609690
:102EA0000EAD1FAD609763968EAD9FAD6397009793
:102EB00059F0FC012081318163963FAF2EAF6397BB
:102EC000B8010E94A909EFCFAD961FAEAD978EE471
:102ED00090E08C0F9D1F9A8389831C821B821E8227
:102EE0001D821F82E9E3F3E0F987E8871B869D874F
:102EF0008C874AE0E4966EAD7FADE497C7010E94EF
:102F00002C108C01892B51F48A85882339F0AD96D9
:102F10008FADAD9783FF02C003E010E08B819C81F1
:102F2000009731F0E981FA81608171810E94A909DD
:102F300010922F030115110509F413C26AE872E01B
:102F400089E393E00E945A0A000F111FF801EA5C1E
:102F5000FD4F608171816115710521F089E393E076
:102F60000E945A0A61EA72E089E393E00E945A0AD9
:102F7000CE01825B9F4F0E941B0AE0E1F2E0FA83E0
:102F8000E9831B821D821C8286E090E08C0F9D1FCE
:102F90009F8B8E8B188E84E0882E898E8FEF8A8F80
:102FA0001F8E88A380912C0390912D03E0969FAFF4
:102FB0008EAFE0976096FFAEEEAE6097E1EBF2E089
:102FC0006296FFAFEEAF629787E063968FAF63972D
:102FD00064968FAD64978078806864968FAF6497AD
:102FE000BE0162597F4FCE01825B9F4F0E948B13BF
:102FF00087E20E940702E0969FAF8EAFE09760964F
:10300000FFAEEEAE609789EB92E062969FAF8EAF17
:10301000629795E0992E63969FAE639764968FAD05
:1030200064978078806864968FAF6497BE01625918
:103030007F4FCE01825B9F4F0E948B1385E20E94DF
:103040000702E0969FAF8EAFE0976096FFAEEEAEC0
:1030500060978FEB92E062969FAF8EAF6297639618
:103060009FAE639764968FAD64978078806864960E
:103070008FAF6497BE0162597F4FCE01825B9F4F35
:103080000E948B1383E20E940702E0969FAF8EAFEF
:10309000E0976096FFAEEEAE609785EC92E06296A8
:1030A0009FAF8EAF629763969FAE639764968FAD26
:1030B00064978078806864968FAF6497BE01625988
:1030C0007F4FCE01825B9F4F0E948B1381E20E9453
:1030D0000702E0969FAF8EAFE0976096FFAEEEAE30
:1030E00060978BEC92E062969FAF8EAF629763968B
:1030F0009FAE639764968FAD64978078806864967E
:103100008FAF6497BE0162597F4FCE01825B9F4FA4
:103110000E948B1388E390E00E9462048C0189E393
:1031200090E00E9462046C018AE390E00E946204D5
:103130005C01012E000C220B330BA90198012F5FBB
:10314000310941095109A0EDB7E00E940F1CA3010C
:1031500092010E94F01B285E334041095109E2961A
:103160002CAF3DAF4EAF5FAFE2976096FFAEEEAED5
:10317000609781ED92E062969FAF8EAF6297639603
:103180008FAE639764968FAD6497807880686496FD
:103190008FAF6497BE0162597F4FCE01825B9F4F14
:1031A0000E9458139601DD0C440B550B2F5F31091B
:1031B00041095109A0EDB7E00E940F1CA301920143
:1031C0000E94F01B285E334041095109E2962CAF62
:1031D0003DAF4EAF5FAFE2976096FFAEEEAE609749
:1031E00086ED92E062969FAF8EAF629763968FAE48
:1031F000639764968FAD64978078806864968FAF8C
:103200006497BE0162597F4FCE01825B9F4F0E943F
:1032100058139501BB0C440B550B2F5F3109410925
:103220005109A0EDB7E00E940F1CA30192010E947A
:10323000F01B205D374041095109E2962CAF3DAFAC
:103240004EAF5FAFE2976096FFAEEEAE60978BED4C
:1032500092E062969FAF8EAF629763968FAE639750
:1032600064968FAD64978078806864968FAF64971A
:10327000BE0162597F4FCE01825B9F4F0E9458135F
:1032800086E30E948F02E0969FAF8EAFE097609634
:10329000FFAEEEAE609780EE92E062969FAF8EAF8B
:1032A000629763969FAE639764968FAD64978078BC
:1032B000806864968FAF6497BE0162597F4FCE01DC
:1032C000825B9F4F0E948B1387E30E948F02E096E0
:1032D0009FAF8EAFE0976096FFAEEEAE609786EE42
:1032E00092E062969FAF8EAF629763969FAE6397B0
:1032F00064968FAD64978078806864968FAF64978A
:10330000BE0162597F4FCE01825B9F4F0E948B139B
:10331000E9E3F3E06096FFAFEEAF609762961FAE11
:103320001EAE62976496FFAEEEAE6497BE01625B1E
:103330007F4FCE014B960E94C90A61EA72E089E391
:1033400093E00E945A0A10922E03C7010E941B0AA2
:103350006AE070E080E090E00E94D1020E943304B5
:103360006FCD8EE490E08C0F9D1F9A83898384EA51
:1033700092E09C838B8388E08D838E818078806847
:103380008E83C7010E941F0EDC01892B09F439C00E
:103390001496EC911497EE2309F433C0E250ED300B
:1033A00008F07BC0F0E08827E752F64E8F4F0C9470
:1033B0005F1C5E1A4D1A711A741AE6194D1A4D1ACD
:1033C0004D1A421A4D1A501A4D1A781A0C9110E0E3
:1033D00032E2A32E32E0B32ED12CC12CF501808134
:1033E000F2E0AF0EB11C61E0C016D1060CF060E057
:1033F0000E9430022FEFC21AD20A4AE0C416D1044A
:1034000069F78EE490E08C0F9D1F9A8389830DEA03
:1034100012E01C830B8323E0D22EDD828E81807824
:1034200080688E83C7010E941F0E009709F4A0CD0B
:10343000FC018481882309F49BCD8EE490E08C0FFD
:103440009D1F9A8389831C830B83DD828E81807804
:1034500080688E83C7010E941F0EFC01892B09F42E
:1034600099C094819A3009F48AC008F073C09923F6
:1034700009F490C0963009F480C0692D8DE00E9457
:10348000300276CD0D911D912D913C91011590E862
:1034900019072105310508F49BCF10E000E098CF13
:1034A0000D911D912D913C91D901C8019058AF4FBC
:1034B000BF4F0097A140B10580F78ACFCD010E9490
:1034C000790629833A834B835C836D83AA80BB8012
:1034D000CC80DD80223059F12330A9F12130E9F68A
:1034E0000BC08D919C91EBCF8D919C910496E7CF71
:1034F000AD90BD90CD90DC9020E030E040E057EC06
:10350000C601B5010E940A1D87FDC7CF20E03EEF2E
:103510004FEF56E4C601B5010E94CC1A18160CF400
:10352000BCCFC601B5010E94D41C8B0151CFD6017E
:10353000C5019058AF4FBF4F0097A140B10508F0AB
:10354000ACCF850145CFA11420E8B206C104D10457
:10355000C0F3A3CF9C3099F09E3009F08ECF992410
:10356000939420E030E0A901608171818281938190
:103570000E94CC1A811181CF0DC090807ECF9924FA
:10358000939480819181A281B381892B8A2B8B2B8B
:1035900009F073CF912C71CF0E940E1B08F481E0CB
:1035A0000895E89409C097FB3EF490958095709536
:1035B00061957F4F8F4F9F4F9923A9F0F92F96E97F
:1035C000BB279395F695879577956795B795F111F4
:1035D000F8CFFAF4BB0F11F460FF1BC06F5F7F4F91
:1035E0008F4F9F4F16C0882311F096E911C07723A3
:1035F00021F09EE8872F762F05C0662371F096E8AC
:10360000862F70E060E02AF09A95660F771F881F7A
:10361000DAF7880F9695879597F90895990F00081E
:10362000550FAA0BE0E8FEEF16161706E807F90794
:10363000C0F012161306E407F50798F0621B730B2F
:10364000840B950B39F40A2661F0232B242B252BB0
:1036500021F408950A2609F4A140A6958FEF811D53
:10366000811D08950E94451B0C94B61B0E94A81B47
:1036700038F00E94AF1B20F0952311F00C949F1B93
:103680000C94A51B11240C94EA1B0E94C71B70F319
:10369000959FC1F3950F50E0551F629FF001729FF7
:1036A000BB27F00DB11D639FAA27F00DB11DAA1F06
:1036B000649F6627B00DA11D661F829F2227B00D53
:1036C000A11D621F739FB00DA11D621F839FA00DDE
:1036D000611D221F749F3327A00D611D231F849F2E
:1036E000600D211D822F762F6A2F11249F57504085
:1036F0009AF0F1F088234AF0EE0FFF1FBB1F661F00
:10370000771F881F91505040A9F79E3F510580F0C8
:103710000C949F1B0C94EA1B5F3FE4F3983ED4F398
:10372000869577956795B795F795E7959F5FC1F76C
:10373000FE2B880F911D9695879597F9089597F917
:103740009F6780E870E060E008959FEF80EC089547
:1037500000240A9416161706180609060895002470
:103760000A9412161306140605060895092E0394EA
:10377000000C11F4882352F0BB0F40F4BF2B11F45E
:1037800060FF04C06F5F7F4F8F4F9F4F089557FDBD
:103790009058440F551F59F05F3F71F04795880FBF
:1037A00097FB991F61F09F3F79F087950895121656
:1037B00013061406551FF2CF4695F1DF08C0161602
:1037C00017061806991FF1CF8695710561050894B3
:1037D0000895E894BB2766277727CB0197F90895CA
:1037E000052E97FB1EF400940E94071C57FD07D07E
:1037F0000E941A1C07FC03D04EF40C94071C509531
:103800004095309521953F4F4F4F5F4F08959095CC
:103810008095709561957F4F8F4F9F4F08950E94BF
:103820003C1CA59F900DB49F900DA49F800D911DF1
:1038300011240895A1E21A2EAA1BBB1BFD010DC085
:10384000AA1FBB1FEE1FFF1FA217B307E407F50750
:1038500020F0A21BB30BE40BF50B661F771F881F2C
:10386000991F1A9469F760957095809590959B01C2
:10387000AC01BD01CF010895A29FB001B39FC0016B
:10388000A39F700D811D1124911DB29F700D811D8C
:103890001124911D0895AA1BBB1B51E107C0AA1F4B
:1038A000BB1FA617B70710F0A61BB70B881F991FE1
:1038B0005A95A9F780959095BC01CD010895EE0F1A
:1038C000FF1F881F8BBF0790F691E02D1994505869
:1038D000BB27AA270E947F1C0C94B61B0E94A81B22
:1038E00038F00E94AF1B20F039F49F3F19F426F402
:1038F0000C94A51B0EF4E095E7FB0C949F1BE92F9D
:103900000E94C71B58F3BA1762077307840795070D
:1039100020F079F4A6F50C94E91B0EF4E0950B2E3B
:10392000BA2FA02D0B01B90190010C01CA01A00111
:103930001124FF27591B99F0593F50F4503E68F16C
:103940001A16F040A22F232F342F4427585FF3CFAD
:10395000469537952795A795F0405395C9F77EF47E
:103960001F16BA0B620B730B840BBAF09150A1F0C7
:10397000FF0FBB1F661F771F881FC2F70EC0BA0F4D
:10398000621F731F841F48F4879577956795B795D5
:10399000F7959E3F08F0B0CF9395880F08F09927D0
:1039A000EE0F9795879508950E94DB1C6894B111DE
:1039B0000C94EA1B08950E94CF1B88F09F5798F043
:1039C000B92F9927B751B0F0E1F0660F771F881F24
:1039D000991F1AF0BA95C9F714C0B13091F00E943E
:1039E000E91BB1E008950C94E91B672F782F882715
:1039F000B85F39F0B93FCCF3869577956795B39565
:103A0000D9F73EF490958095709561957F4F8F4FD3
:103A10009F4F08950E940E1B08F48FEF08950F9397
:103A20001F93CF93DF938230910510F482E090E0F2
:103A3000E091F003F091F10330E020E0B0E0A0E08D
:103A4000309799F42115310509F44AC0281B390B28
:103A500024303105D8F58A819B816115710589F182
:103A6000FB0193838283FE0111C040815181028159
:103A7000138148175907E0F04817590799F4109730
:103A800061F012960C93129713961C933296CF0105
:103A9000DF91CF911F910F9108950093F003109340
:103AA000F103F4CF2115310551F04217530738F0D7
:103AB000A901DB019A01BD01DF01F801C1CFEF01CE
:103AC000F9CF9093F1038093F003CDCFFE01E20F85
:103AD000F31F819391932250310939832883D7CFE3
:103AE0002091EE033091EF03232B41F42091140237
:103AF000309115023093EF032093EE0320911202D0
:103B0000309113022115310541F42DB73EB7409194
:103B1000160250911702241B350BE091EE03F09131
:103B2000EF03E217F307A0F42E1B3F0B281739070A
:103B300078F0AC014E5F5F4F2417350748F04E0F09
:103B40005F1F5093EF034093EE03819391939FCFB8
:103B5000F0E0E0E09CCFCF93DF930097E9F0FC0129
:103B6000329713821282A091F003B091F103ED011C
:103B700030E020E01097A1F420813181820F931F63
:103B80002091EE033091EF032817390709F061C047
:103B9000F093EF03E093EE03DF91CF910895EA01F4
:103BA000CE17DF07E8F54A815B819E01411551057B
:103BB000B1F7E901FB83EA8349915991C40FD51FFD
:103BC000EC17FD0761F4808191810296840F951FA7
:103BD000E90199838883828193819B838A83F0E0C2
:103BE000E0E012968D919C9113970097B9F52D9175
:103BF0003C911197CD010296820F931F2091EE0305
:103C00003091EF032817390739F6309751F51092A4
:103C1000F1031092F003B093EF03A093EE03BCCF37
:103C2000D383C28340815181840F951FC817D90760
:103C300061F44E5F5F4F88819981480F591F51830E
:103C400040838A819B81938382832115310509F00A
:103C5000B0CFF093F103E093F0039ECFFD01DC01C0
:103C6000C0CF13821282D7CF4F925F926F927F9212
:103C70008F929F92AF92BF92CF92DF92EF92FF927C
:103C80000F931F93CF93DF938C01009799F4CB018F
:103C9000DF91CF911F910F91FF90EF90DF90CF9028
:103CA000BF90AF909F908F907F906F905F904F905C
:103CB0000C940F1DFC01E60FF71F9C0122503109E7
:103CC000E217F30708F4AEC0D901CD91DC9111974A
:103CD000C617D70720F1C530D10578F0CE0104977B
:103CE0008617970750F0C61BD70B2297C193D19325
:103CF0006D937C93CF010E94AB1DC801DF91CF91E2
:103D00001F910F91FF90EF90DF90CF90BF90AF90F9
:103D10009F908F907F906F905F904F9008955B0180
:103D2000AC1ABD0A4C018C0E9D1EA091F003B091FF
:103D3000F103512C412CF12CE12C109731F580919D
:103D4000EE039091EF038815990509F05CC04616C3
:103D5000570608F058C08091120290911302009704
:103D600041F48DB79EB74091160250911702841B03
:103D7000950BE817F90708F055C0F093EF03E093AF
:103D8000EE03F90171836083B8CF8D919C911197F7
:103D900012966C90129713967C901397A815B905FC
:103DA00059F56C0142E0C40ED11CCA14DB0420F1A9
:103DB000AC014A195B09DA011296159780F062820C
:103DC000738251834083D9016D937C93E114F10494
:103DD00071F0D7011396FC93EE9312978ECF229633
:103DE0008C0F9D1FF90191838083F301EFCFF09336
:103DF000F103E093F00381CF4816590608F42C0133
:103E00007D01D3019ACFCB010E940F1D7C01009749
:103E100049F0AE01B8010E94151FC8010E94AB1DF8
:103E200087016BCF10E000E068CFFB01DC0102C02E
:103E300001900D9241505040D8F70895F894FFCF6B
:103E40002B032B032B032B032B032B032B032B0302
:103E50001C020000F203800000000000C313C01326
:103E6000BC13190017001A001800160011001000EA
:103E70000F000E000200EC02EF02FA020A03170321
:103E8000200300000000C2032C0359030F048A031F
:103E900068037C0300000000890F2C03960495043E
:103EA0002F2F272722225C5C6208660C6E0A720D97
:103EB0007409005C7530303030006E756C6C0074C5
:103EC0007275650066616C7365006465736572691F
:103ED000616C697A652829206661696C65643A209D
:103EE000000D0A004241524752415048004C45449F
:103EF00000454E434F4445520042544E5F3100420C
:103F0000544E5F320042544E5F330042544E5F3491
:103F100000585F6D4700595F6D47005A5F6D47005D
:103F2000706F745F5800706F745F59004F6B00457D
:103F30006D707479496E70757400496E636F6D7041
:103F40006C657465496E70757400496E76616C6954
:103F500064496E707574004E6F4D656D6F727900B7
:083F6000546F6F4465657000A9
:00000001FF
