:100000000C943F010C9492070C9467070C943C07E6
:100010000C9411070C94E6060C94BB060C94900605
:100020000C9465060C9470010C9470010C94700192
:100030000C9470010C9470010C9470010C9470017C
:100040000C9470010C9470010C9470010C9470016C
:100050000C9470010C9470010C9470010C941B06AC
:100060000C9470010C94E7070C94BD070C9470017C
:100070000C9470010C9470010C9470010C9470013C
:100080000C9470010C9470010C9470010C9470012C
:100090000C9470010C9470010C9470010C9470011C
:1000A0000C9470010C9470010C9470010C9470010C
:1000B0000C9470010C9470010C9470010C947001FC
:1000C0000C9470010C9470010C9470010C947001EC
:1000D0000C9470010C9470010C9470010C947001DC
:1000E0000C9470010C94A5010C94C3010C943C0475
:1000F0000C9490010C94B5010C94C7010C94A302CC
:100100000C94A2010C94F9020C94CC020C94BD0145
:100110000C94EC050C94AF010C942A030C94080386
:100120000C94B9010C941D080C9462030C94960174
:100130000C941C030C94CB020C943D040C94AB0166
:100140000C94D5010C94D1010C94D0010C94AF0304
:100150000C949E010C949A010C94CB010000210098
:10016000240027002A002D00300033000101000088
:10017000040107010A0100002200250028002B00CD
:100180002E003100340002010000050108010B01BE
:10019000000020002300260029002C002F00320040
:1001A0000001000003010601090105050505070519
:1001B00008080808020202020A0A080804040404E3
:1001C000010101010101010103030303030303030F
:1001D000040707070C0C0C0C0C0C0C0C020202029E
:1001E00006060606060606060B0B0B0B0B0B0B0B87
:1001F0000102102020080810204010204080020139
:10020000020108040201010204081020408080401D
:10021000201008040201800402018040201008041C
:1002200002010804020101020408102040800102BA
:1002300004081020408000000A0B02090C0D0E0873
:10024000070304010000000000000000000000009F
:10025000000000000000000000000000000000009E
:10026000000012111000000000000000000000005B
:100270000000000000000000000000001D08112424
:100280001FBECFEFD1E2DEBFCDBF00E00CBF12E05A
:10029000A0E0B2E0E4E7FCE100E00BBF02C00790A1
:1002A0000D92AC3BB107D9F723E0ACEBB2E001C053
:1002B0001D92AA38B207E1F711E0CFE3D1E000E0E8
:1002C00006C021970109802FFE010E948B0CCE33BE
:1002D000D10780E00807A9F70E9467080C94380E40
:1002E0000C9400008150823108F05AC0E82FF0E0F1
:1002F0008827E258FE4F8F4F0C948B0C9E01A20171
:10030000900196019A01D001A501AB01AF01B501A1
:10031000B901BD01C301C701D001CB01D101D50194
:10032000809180008F778093800008958091800075
:100330008F7DF9CF80918000877FF5CF84B58F774F
:1003400084BD089584B58F7DFBCF8091B0008F77F9
:100350008093B00008958091B0008F7DF9CF809197
:1003600090008F77809390000895809190008F7D0A
:10037000F9CF80919000877FF5CF8091A0008F7793
:100380008093A00008958091A0008F7DF9CF809187
:10039000A000877FF5CF809120018F778093200187
:1003A0000895809120018F7DF9CF80912001877F72
:1003B000F5CFCF93DF93282F30E0F901EA5CFD4FB2
:1003C0008491F901E051FE4FD491F901E655FE4FB9
:1003D000C491CC23A1F081110E947201EC2FF0E0B6
:1003E000EE0FFF1FE057FE4FA591B491EC91ED2366
:1003F00081E090E009F480E0DF91CF91089580E002
:1004000090E0FACF1F93CF93DF93282F30E0F901CC
:10041000EA5CFD4F8491F901E051FE4FD491F9015E
:10042000E655FE4FC491CC23A9F0162F81110E94EE
:100430007201EC2FF0E0EE0FFF1FEA58FE4FA5917E
:10044000B4918FB7F894EC91111108C0D095DE23C8
:10045000DC938FBFDF91CF911F910895DE2BF8CFF2
:10046000CF93DF9390E0FC01E051FE4F249186553D
:100470009E4FFC0184918823D1F090E0880F991F52
:10048000FC01E45AFE4FA591B491FC01EA58FE4FDD
:10049000C591D49161110EC09FB7F8948C91E22F51
:1004A000E0958E238C932881E223E8839FBFDF9120
:1004B000CF9108958FB7F894EC91E22BEC938FBF16
:1004C000F6CF863308F0865320917B00982F9870E2
:1004D000277F922B90937B008770806480937C00B1
:1004E00080917A00806480937A0080917A0086FD02
:1004F000FCCF809178009091790008953FB7F894EF
:100500008091D1029091D202A091D302B091D402F5
:1005100026B5A89B05C02F3F19F00196A11DB11D5E
:100520003FBFBA2FA92F982F8827BC01CD01620F9A
:10053000711D811D911D42E0660F771F881F991F55
:100540004A95D1F70895CF93DF938091BE020E9420
:10055000D901EC018091BC020E94D901AC0121E0DB
:10056000CD2B09F420E091E0452B09F490E0291708
:1005700079F021E030E08091C0029091C102820FB9
:10058000931F9093C1028093C002DF91CF91089591
:100590002FEF3FEFF0CF0895AF92BF92CF92DF924F
:1005A000EF92FF920F931F93CF93DF936C017B0128
:1005B0008B01040F151FEB015E01AE18BF08C017B9
:1005C000D10759F06991D601ED91FC910190F0812C
:1005D000E02DC6011995892B79F7C501DF91CF91DF
:1005E0001F910F91FF90EF90DF90CF90BF90AF9051
:1005F0000895FC01538D448D252F30E0842F90E029
:10060000821B930B541710F0CF960895019708950D
:10061000FC01918D828D981761F0A28DAE0FBF2FD6
:10062000B11D5D968C91928D9F5F9F73928F90E02C
:1006300008958FEF9FEF0895FC01918D828D98179B
:1006400031F0828DE80FF11D858D90E008958FEFD8
:100650009FEF0895FC01918D228D892F90E0805CA1
:100660009F4F821B91098F739927089585ED92E022
:100670000E942A0321E0892B09F420E0822F0895AB
:10068000FC01A48DA80FB92FB11DA35ABF4F2C9107
:10069000848D90E001968F739927848FA689B789FE
:1006A0002C93A089B1898C91837080648C93938DF5
:1006B000848D981306C00288F389E02D80818F7D98
:1006C00080830895EF92FF920F931F93CF93DF9350
:1006D000EC0181E0888F9B8D8C8D98131AC0E8897E
:1006E000F989808185FF15C09FB7F894EE89FF894D
:1006F0006083E889F98980818370806480839FBFEB
:1007000081E090E0DF91CF911F910F91FF90EF90EA
:100710000895F62E0B8D10E00F5F1F4F0F731127FA
:10072000E02E8C8D8E110CC00FB607FCFACFE88935
:10073000F989808185FFF5CFCE010E944003F1CF7A
:10074000EB8DEC0FFD2FF11DE35AFF4FF0829FB7A9
:10075000F8940B8FEA89FB8980818062CFCFCF9399
:10076000DF93EC01888D8823B9F0AA89BB89E889D9
:10077000F9898C9185FD03C0808186FD0DC00FB67F
:1007800007FCF7CF8C9185FFF2CF808185FFEDCFFD
:10079000CE010E944003E9CFDF91CF91089580E020
:1007A00090E0892B29F00E94360381110E940000FD
:1007B00080E090E0892B49F080E090E0892B29F0DF
:1007C0000E94000081110E94000080E090E0892BCF
:1007D00049F080E090E0892B29F00E94000081110F
:1007E0000E94000080E090E0892B49F080E090E0DA
:1007F000892B29F00E94000081110C9400000895BB
:10080000CF92DF92EF92FF921F93CF93DF93182F37
:100810000E9461020E947E026B017C010E947E02A6
:100820006C197D098E099F09683E73408105910509
:10083000A8F3CAE0D0E0C12CD12C7601812F0E9410
:100840006102092E000CAA0BBB0BC80ED91EEA1EB2
:10085000FB1E219799F7C701B6012AE030E040E07E
:1008600050E00E94300CC901DF91CF911F91FF90A1
:10087000EF90DF90CF900895089590E080E0089584
:100880008F929F92AF92BF920F931F93CF93DF935C
:10089000CDB7DEB7A1970FB6F894DEBF0FBECDBFC0
:1008A00019A2423008F44AE08E010F5D1F4F842EDA
:1008B000912CB12CA12CA50194010E945A0CE62F79
:1008C000B901CA01EA3044F5E05DD801EE938D012B
:1008D000232B242B252B79F790E080E0109769F0EB
:1008E000FD0101900020E9F73197AF014A1B5B0B36
:1008F000BD0182E793E00E94CC02A1960FB6F89466
:10090000DEBF0FBECDBFDF91CF911F910F91BF9082
:10091000AF909F908F900895E95CD7CFFC01019034
:100920000020E9F73197AF01481B590BBC0182E762
:1009300093E00C94CC02CF93DF93EC0160E08E81C6
:100940000E94020261E08E810E94020260E08E81BC
:100950000E9402028BE891E00197F1F7DF91CF91BD
:100960000895CF92DF92EF92FF920F931F93CF9350
:10097000DF936C017C0187E0E80EF11CD0E0C0E061
:10098000062F10E0B8010C2E02C0759567950A94E9
:10099000E2F76170F70181917F010E9402022196C6
:1009A000C430D10579F7C601DF91CF911F910F9126
:1009B000FF90EF90DF90CF900C949B04CF92DF924A
:1009C000EF92FF920F931F93CF93DF93EC01F62EDC
:1009D000642F8C810E9402028D818F3F19F060E0AC
:1009E0000E9402020F2D10E08F8584FF25C06E014A
:1009F00087E0C80ED11CF12CE12CB8010E2C02C0EE
:100A0000759567950A94E2F76170F60181916F011F
:100A10000E940202FFEFEF1AFF0A88E0E816F104D5
:100A200061F7CE01DF91CF911F910F91FF90EF9071
:100A3000DF90CF900C949B04B80184E07595679586
:100A40008A95E1F7CE010E94B1046F2DCE01DF91AE
:100A5000CF911F910F91FF90EF90DF90CF900C946A
:100A6000B10440E0682F82E793E00C94DE04CF935A
:100A7000DF93823029F490918103986090938103F1
:100A8000809385031092860380E48093870380E13E
:100A90008093880380E58093890361E080917603E9
:100AA0000E943002809177038F3F19F061E00E942D
:100AB000300261E0809178030E943002C2E7D3E007
:100AC0009E01225733408091810384FD0BC084E056
:100AD00090E021962817390744F461E08E810E9446
:100AE0003002EECF88E090E0F4CF8BE39DE00197F9
:100AF000F1F760E0809176030E94020260E080914D
:100B000078030E940202809177038F3F19F060E022
:100B10000E9402028091810384FD39C063E082E774
:100B200093E00E94B104CBE4D6E4CE010197F1F743
:100B300063E082E793E00E94B1042197F1F763E05C
:100B400082E793E00E94B10483E592E00197F1F718
:100B500062E082E793E00E94B104809181038062A9
:100B60000E94310584E0809382038CE00E9431056D
:100B700081E00E9431058BE39FE10197F1F782E06C
:100B80008093830386E0DF91CF910C9431058062DE
:100B90000E9431058BE496E40197F1F7809181037F
:100BA00080620E94310583E592E00197F1F7809120
:100BB000810380620E943105D0CF9091850369172F
:100BC00010F06FEF690FE62FF0E0EE58FC4F9489BC
:100BD000890F80680C94310541E00E94DE0481E0B9
:100BE00090E00895CF92DF92EF92FF926C01990FFF
:100BF000EE08FF08F7FE16C041E06DE282E793E0E1
:100C00000E94DE0466277727CB016C197D098E09C7
:100C10009F094AE00E9440040196FF90EF90DF9008
:100C2000CF9008954AE0C701B601FF90EF90DF90A2
:100C3000CF900C9440041F920F920FB60F92112484
:100C40002F933F938F939F93AF93BF938091CD0248
:100C50009091CE02A091CF02B091D0023091CC02FF
:100C600023E0230F2D3758F50196A11DB11D2093C8
:100C7000CC028093CD029093CE02A093CF02B0938A
:100C8000D0028091D1029091D202A091D302B09172
:100C9000D4020196A11DB11D8093D1029093D2027E
:100CA000A093D302B093D402BF91AF919F918F9143
:100CB0003F912F910F900FBE0F901F90189526E82F
:100CC000230F0296A11DB11DD2CF1F920F920FB616
:100CD0000F9211240BB60F922F933F934F935F9374
:100CE0006F937F938F939F93AF93BF93EF93FF93F4
:100CF000E0910E02F0910F021995FF91EF91BF91D3
:100D0000AF919F918F917F916F915F914F913F91A3
:100D10002F910F900BBE0F900FBE0F901F90189544
:100D20001F920F920FB60F9211240BB60F922F93B2
:100D30003F934F935F936F937F938F939F93AF9363
:100D4000BF93EF93FF93E0910C02F0910D02199580
:100D5000FF91EF91BF91AF919F918F917F916F9193
:100D60005F914F913F912F910F900BBE0F900FBE4F
:100D70000F901F9018951F920F920FB60F9211248B
:100D80000BB60F922F933F934F935F936F937F9385
:100D90008F939F93AF93BF93EF93FF93E0910202E2
:100DA000F09103021995FF91EF91BF91AF919F913F
:100DB0008F917F916F915F914F913F912F910F9004
:100DC0000BBE0F900FBE0F901F9018951F920F92A1
:100DD0000FB60F9211240BB60F922F933F934F93A0
:100DE0005F936F937F938F939F93AF93BF93EF9393
:100DF000FF93E0910002F09101021995FF91EF91AC
:100E0000BF91AF919F918F917F916F915F914F9122
:100E10003F912F910F900BBE0F900FBE0F901F9020
:100E200018951F920F920FB60F9211240BB60F92C6
:100E30002F933F934F935F936F937F938F939F93E2
:100E4000AF93BF93EF93FF93E0910A02F0910B02EF
:100E50001995FF91EF91BF91AF919F918F917F91E4
:100E60006F915F914F913F912F910F900BBE0F901B
:100E70000FBE0F901F9018951F920F920FB60F92F2
:100E800011240BB60F922F933F934F935F936F9361
:100E90007F938F939F93AF93BF93EF93FF93E091D3
:100EA0000802F09109021995FF91EF91BF91AF915E
:100EB0009F918F917F916F915F914F913F912F9172
:100EC0000F900BBE0F900FBE0F901F9018951F92A2
:100ED0000F920FB60F9211240BB60F922F933F93E0
:100EE0004F935F936F937F938F939F93AF93BF9332
:100EF000EF93FF93E0910602F09107021995FF919D
:100F0000EF91BF91AF919F918F917F916F915F9181
:100F10004F913F912F910F900BBE0F900FBE0F90EE
:100F20001F9018951F920F920FB60F9211240BB6B7
:100F30000F922F933F934F935F936F937F938F9372
:100F40009F93AF93BF93EF93FF93E0910402F091CF
:100F500005021995FF91EF91BF91AF919F918F91EC
:100F60007F916F915F914F913F912F910F900BBEA9
:100F70000F900FBE0F901F9018951F920F920FB6F3
:100F80000F9211240BB60F922F933F934F935F93C1
:100F90006F937F938F939F93AF93BF93EF93FF9341
:100FA00085ED92E00E944003FF91EF91BF91AF91D8
:100FB0009F918F917F916F915F914F913F912F9171
:100FC0000F900BBE0F900FBE0F901F9018951F92A1
:100FD0000F920FB60F9211240BB60F922F938F938F
:100FE0009F93EF93FF93E091E502F091E6028081F9
:100FF000E091EB02F091EC0282FD1DC090818091A6
:10100000EE028F5F8F732091EF02821741F0E09123
:10101000EE02F0E0EB52FD4F958F8093EE02FF91D0
:10102000EF919F918F912F910F900BBE0F900FBE5C
:101030000F901F9018958081F2CFE5EDF2E01382BA
:10104000128288EE93E0A0E0B0E084839583A683CB
:10105000B7838CE292E09183808385EC90E0958762
:10106000848784EC90E09787868780EC90E0918B72
:10107000808B81EC90E0938B828B82EC90E0958B5F
:10108000848B86EC90E0978B868B118E128E138E5C
:10109000148EE2E7F3E0138212828EE392E09183F2
:1010A000808383E084838FEF858384E0868388E078
:1010B000878389E080878AE081878BE08287138637
:1010C000148615861686178681E00C943705CF9313
:1010D000DF93CDB7DEB72E970FB6F894DEBF0FBE05
:1010E000CDBF789484B5826084BD84B5816084BDB1
:1010F00085B5826085BD85B5816085BD80916E00B6
:10110000816080936E0010928100809181008260E6
:101110008093810080918100816080938100809123
:1011200080008160809380008091B1008460809312
:10113000B1008091B00081608093B00080919100F7
:1011400082608093910080919100816080939100F2
:10115000809190008160809390008091A1008260D6
:101160008093A1008091A10081608093A100809173
:10117000A00081608093A000809121018260809313
:1011800021018091210181608093210180912001C2
:1011900081608093200180917A00846080937A003E
:1011A00080917A00826080937A0080917A008160D9
:1011B00080937A0080917A00806880937A00109200
:1011C000C100E091E502F091E60282E08083E091C7
:1011D000E102F091E2021082E091E302F091E40278
:1011E0008FEC80831092ED02E091E902F091EA0227
:1011F00086E08083E091E702F091E80280818061DF
:101200008083E091E702F091E8028081886080832A
:10121000E091E702F091E802808180688083E091AC
:10122000E702F091E80280818F7D808382E00E9456
:10123000370583E190E09093BF028093BE028DE179
:1012400090E09093BD028093BC0260E083E10E9435
:10125000300260E08DE10E94300283EA92E09093D8
:10126000090280930802809169008F7C80618093DD
:101270006900EA9A60E087E20E94300260E085E25D
:101280000E94300260E083E20E94300260E081E26E
:101290000E9430028FB7F8944091CD025091CE0257
:1012A0006091CF027091D0028FBF08E212E024E17A
:1012B00032E03A832983A981BA818C911296BA834C
:1012C000A98361E00E943002E981FA810E171F07AD
:1012D00091F72091C0023091C1023E872D87809105
:1012E00012029091130282179307B1F060E080E040
:1012F0000E94DD0586E492E00E948E0460E08CE0AE
:101300000E94DD058D859E850E94F2054D855E85D6
:10131000509313024093120287E20E94D9014C01BC
:1013200085E20E94D9015C0183E20E94D9016C012F
:1013300081E20E94D9017C01892809F47CC2A114B0
:10134000B10491F0C114D10479F0892B09F46CC275
:10135000AD85BE85A536B105ECF561E080E00E9463
:10136000DD058DE692E034C08D859E85853691053C
:101370008CF560E080E00E94DD0587E592E00E9448
:101380008E0461E080E00E94DD058CE792E00E941F
:101390008E0461E082E0AB2809F0DCC10E94DD052B
:1013A00087E692E00E948E0461E084E0CD2809F097
:1013B000D6C10E94DD0589E692E00E948E0461E0BC
:1013C00086E0EF2809F0D0C10E94DD058BE692E0AF
:1013D0000E948E048D859E858556910984369105DF
:1013E00008F05AC188E390E00E9400045C0189E3A0
:1013F00090E00E9400046C018AE390E00E940004E7
:101400007C019501BB0C440B550B2F5F3109410941
:101410005109A0EDB7E00E944F0C26E930E040E012
:1014200050E00E94300CDA01C901885E9340A109A6
:10143000B10989839A83AB83BC839601DD0C440B8D
:10144000550B2F5F310941095109A0EDB7E00E940A
:101450004F0C26E930E040E050E00E94300C2901BA
:101460003A0198EE491A93E0590A61087108970108
:10147000FF0C440B550B2F5F310941095109A0EDB9
:10148000B7E00E944F0C26E930E040E050E00E94B7
:10149000300C49015A01A0ED8A1AA7E09A0AA10866
:1014A000B10869817A818B819C8128EE33E040E02C
:1014B00050E00E94300CCA01B9010E943F0D6D83BB
:1014C0007E838F839887C301B20128EE33E040E02A
:1014D00050E00E94300CCA01B9010E943F0D69879B
:1014E0007A878B879C87C501B40128EE33E040E002
:1014F00050E00E94300CCA01B9010E943F0D6B01FF
:101500007C012D813E814F815885CA01B9010E941D
:10151000CB0D6D837E838F83988729853A854B8594
:101520005C85CA01B9010E94CB0D9B01AC016D81A4
:101530007E818F8198850E949B0C6D837E838F8333
:101540009887A7019601C701B6010E94CB0D9B01A8
:10155000AC016D817E818F8198850E949B0C9B01DF
:10156000AC010E94CB0D0E94070D6B018091CA0255
:101570009091CB0201968C159D050CF0FAC0D0928B
:10158000CB02C092CA0261E08AE00E94DD0587E7D3
:1015900092E00E948E0461E08AE00E94DD05C601AF
:1015A0000E94F20560E080E00E94DD0589819A8159
:1015B000AB81BC81B7FF07C0B095A0959095819590
:1015C0009F4FAF4FBF4F8D329140A105B1050CF435
:1015D000EFC029813A814B815C818EE792E012163F
:1015E00013061406150654F089819A81AB81BC81DB
:1015F000892B8A2B8B2B41F087E892E00E948E0486
:101600001092C7021092C60260E089E00E94DD05D8
:10161000D301C20177FE07C088279927DC0184190E
:101620009509A609B7098D329140A105B1050CF4C1
:10163000CFC080E992E014141504160417040CF4CA
:10164000D6C087E992E045284628472809F0CFC050
:1016500061E080E00E94DD05D501C401B7FE07C04E
:1016600088279927DC0188199909AA09BB098139BA
:101670009140A105B1050CF4C1C08EE992E01814A7
:1016800019041A041B040CF4C8C083EA92E08928E8
:101690008A288B2809F0C1C087E30E9461027C017F
:1016A0004D855E85493C510564F180911002909111
:1016B0001102E816F90629F19C0125503109E216BC
:1016C000F30624F005968E159F05DCF460E080E0BB
:1016D0000E94DD0588EA92E00E948E0461E080E0CD
:1016E0000E94DD058DE692E00E948E0461E080E0BC
:1016F0000E94DD05C7010E94F205F0921102E092FE
:1017000010022AE030E0D7010E94930C2FEF33E063
:1017100040E050E00E94300C790104E112E01A82AE
:101720001982D8018C910E5F1F4FE981FA8161E027
:10173000EE15FF050CF060E00E94020229813A815B
:101740002F5F3F4F3A8329832A30310551F70E949A
:10175000CF03BFCD0E94DD058CE792E023CE0E942F
:10176000DD058CE792E029CE0E94DD058CE792E052
:101770002FCE8091C8029091C902853FB1E09B07AE
:101780008CF01092C9021092C8021092CB021092F3
:10179000CA0261E08AE00E94DD0587E792E00E94CC
:1017A0008E0400CF01969093C9028093C802FACEAE
:1017B0008091C6029091C70201969093C7028093D0
:1017C000C602853F91400CF41FCF85E792E016CF0B
:1017D0008091C4029091C50201969093C5028093B6
:1017E000C402853F91400CF433CF87E792E00E941A
:1017F0008E041092C5021092C4022ACF8091C202B8
:101800009091C30201969093C3028093C202853FD8
:1018100091400CF441CF89E792E00E948E0410922F
:10182000C3021092C20238CF4D855E854536510500
:101830000CF0D0CD9ECD8D859E85853691050CF022
:10184000C9CD60E080E00E94DD0587E592E00E945E
:101850008E0461E080E00E94DD0589EB92E097CD87
:10186000052E97FB1EF400940E94470C57FD07D0ED
:101870000E945A0C07FC03D04EF40C94470C509570
:101880004095309521953F4F4F4F5F4F089590956C
:101890008095709561957F4F8F4F9F4F08950E945F
:1018A0007C0CA59F900DB49F900DA49F800D911D61
:1018B00011240895A1E21A2EAA1BBB1BFD010DC025
:1018C000AA1FBB1FEE1FFF1FA217B307E407F507F0
:1018D00020F0A21BB30BE40BF50B661F771F881FCC
:1018E000991F1A9469F760957095809590959B0162
:1018F000AC01BD01CF010895A29FB001B39FC0010B
:10190000A39F700D811D1124911DB29F700D811D2B
:101910001124911D0895EE0FFF1F881F8BBF0790A4
:10192000F691E02D19940E947C0CB7FF0895821B5C
:10193000930B08955058BB27AA270E94B20C0C9411
:10194000910D0E94830D38F00E948A0D20F039F429
:101950009F3F19F426F40C94800D0EF4E095E7FBFC
:101960000C947A0DE92F0E94A20D58F3BA17620762
:1019700073078407950720F079F4A6F50C94C40D3D
:101980000EF4E0950B2EBA2FA02D0B01B90190019A
:101990000C01CA01A0011124FF27591B99F0593FDE
:1019A00050F4503E68F11A16F040A22F232F342F26
:1019B0004427585FF3CF469537952795A795F04074
:1019C0005395C9F77EF41F16BA0B620B730B840B89
:1019D000BAF09150A1F0FF0FBB1F661F771F881F41
:1019E000C2F70EC0BA0F621F731F841F48F4879599
:1019F00077956795B795F7959E3F08F0B0CF93958B
:101A0000880F08F09927EE0F9795879508950E9403
:101A10000E0D6894B1110C94C50D08950E94AA0D85
:101A200088F09F5798F0B92F9927B751B0F0E1F09F
:101A3000660F771F881F991F1AF0BA95C9F714C04F
:101A4000B13091F00E94C40DB1E008950C94C40D22
:101A5000672F782F8827B85F39F0B93FCCF3869588
:101A600077956795B395D9F73EF4909580957095E5
:101A700061957F4F8F4F9F4F0895E89409C097FB62
:101A80003EF490958095709561957F4F8F4F9F4F55
:101A90009923A9F0F92F96E9BB279395F695879599
:101AA00077956795B795F111F8CFFAF4BB0F11F45C
:101AB00060FF1BC06F5F7F4F8F4F9F4F16C0882303
:101AC00011F096E911C0772321F09EE8872F762F39
:101AD00005C0662371F096E8862F70E060E02AF07A
:101AE0009A95660F771F881FDAF7880F9695879566
:101AF00097F9089597F99F6780E870E060E008958E
:101B00009FEF80EC089500240A9416161706180615
:101B10000906089500240A941216130614060506F1
:101B20000895092E0394000C11F4882352F0BB0F82
:101B300040F4BF2B11F460FF04C06F5F7F4F8F4FE5
:101B40009F4F089557FD9058440F551F59F05F3F20
:101B500071F04795880F97FB991F61F09F3F79F0CF
:101B600087950895121613061406551FF2CF469551
:101B7000F1DF08C0161617061806991FF1CF8695D3
:101B80007105610508940895E894BB2766277727B7
:101B9000CB0197F908950E94DE0D0C94910D0E94DF
:101BA000830D38F00E948A0D20F0952311F00C94DB
:101BB0007A0D0C94800D11240C94C50D0E94A20D79
:101BC00070F3959FC1F3950F50E0551F629FF00190
:101BD000729FBB27F00DB11D639FAA27F00DB11DA9
:101BE000AA1F649F6627B00DA11D661F829F222732
:101BF000B00DA11D621F739FB00DA11D621F839FB9
:101C0000A00D611D221F749F3327A00D611D231F8E
:101C1000849F600D211D822F762F6A2F11249F57DC
:101C200050409AF0F1F088234AF0EE0FFF1FBB1FDF
:101C3000661F771F881F91505040A9F79E3F51059E
:101C400080F00C947A0D0C94C50D5F3FE4F3983E40
:101C5000D4F3869577956795B795F795E7959F5F48
:101C6000C1F7FE2B880F911D9695879597F90895DA
:041C7000F894FFCF16
:101C7400CB02CB02CB02CB02CB02CB02CB02CB02F8
:101C84000F270F27190017001A001800160011005B
:101C940010000F000E000200000000006203CC02DE
:101CA400F902AF032A0308031C0300000000EC053B
:101CB400CC023D043C04456E636F6465757220205C
:101CC40020202020202000426F75746F6E28732915
:101CD400204F4E20202000320033003400202020EA
:101CE4002020202020202020202020202000417699
:101CF400616E742020200041727269657265200053
:101D04004761756368650044726F69746500426178
:101D14007320004861757400506F74656E74696F48
:0C1D24006D657472652020200031000005
:00000001FF
