:100000000C943F010C9492070C9467070C943C07E6
:100010000C9411070C94E6060C94BB060C94900605
:100020000C9465060C9470010C9470010C94700192
:100030000C9470010C9470010C9470010C9470017C
:100040000C9470010C9470010C9470010C9470016C
:100050000C9470010C9470010C9470010C941B06AC
:100060000C9470010C94E7070C94BD070C9470017C
:100070000C9470010C9470010C9470010C9470013C
:100080000C9470010C9470010C9470010C9470012C
:100090000C9470010C9470010C9470010C9470011C
:1000A0000C9470010C9470010C9470010C9470010C
:1000B0000C9470010C9470010C9470010C947001FC
:1000C0000C9470010C9470010C9470010C947001EC
:1000D0000C9470010C9470010C9470010C947001DC
:1000E0000C9470010C94A5010C94C3010C943C0475
:1000F0000C9490010C94B5010C94C7010C94A302CC
:100100000C94A2010C94F9020C94CC020C94BD0145
:100110000C94EC050C94AF010C942A030C94080386
:100120000C94B9010C941D080C9462030C94960174
:100130000C941C030C94CB020C943D040C94AB0166
:100140000C94D5010C94D1010C94D0010C94AF0304
:100150000C949E010C949A010C94CB010000210098
:10016000240027002A002D00300033000101000088
:10017000040107010A0100002200250028002B00CD
:100180002E003100340002010000050108010B01BE
:10019000000020002300260029002C002F00320040
:1001A0000001000003010601090105050505070519
:1001B00008080808020202020A0A080804040404E3
:1001C000010101010101010103030303030303030F
:1001D000040707070C0C0C0C0C0C0C0C020202029E
:1001E00006060606060606060B0B0B0B0B0B0B0B87
:1001F0000102102020080810204010204080020139
:10020000020108040201010204081020408080401D
:10021000201008040201800402018040201008041C
:1002200002010804020101020408102040800102BA
:1002300004081020408000000A0B02090C0D0E0873
:10024000070304010000000000000000000000009F
:10025000000000000000000000000000000000009E
:10026000000012111000000000000000000000005B
:100270000000000000000000000000001D08112424
:100280001FBECFEFD1E2DEBFCDBF00E00CBF12E05A
:10029000A0E0B2E0EEE8F7E100E00BBF02C007909B
:1002A0000D92AC3BB107D9F723E0ACEBB2E001C053
:1002B0001D92A638B207E1F711E0CFE3D1E000E0EC
:1002C00006C021970109802FFE010E94B60BCE3394
:1002D000D10780E00807A9F70E9467080C94C50BB6
:1002E0000C9400008150823108F05AC0E82FF0E0F1
:1002F0008827E258FE4F8F4F0C94B60B9E01A20147
:10030000900196019A01D001A501AB01AF01B501A1
:10031000B901BD01C301C701D001CB01D101D50194
:10032000809180008F778093800008958091800075
:100330008F7DF9CF80918000877FF5CF84B58F774F
:1003400084BD089584B58F7DFBCF8091B0008F77F9
:100350008093B00008958091B0008F7DF9CF809197
:1003600090008F77809390000895809190008F7D0A
:10037000F9CF80919000877FF5CF8091A0008F7793
:100380008093A00008958091A0008F7DF9CF809187
:10039000A000877FF5CF809120018F778093200187
:1003A0000895809120018F7DF9CF80912001877F72
:1003B000F5CFCF93DF93282F30E0F901EA5CFD4FB2
:1003C0008491F901E051FE4FD491F901E655FE4FB9
:1003D000C491CC23A1F081110E947201EC2FF0E0B6
:1003E000EE0FFF1FE057FE4FA591B491EC91ED2366
:1003F00081E090E009F480E0DF91CF91089580E002
:1004000090E0FACF1F93CF93DF93282F30E0F901CC
:10041000EA5CFD4F8491F901E051FE4FD491F9015E
:10042000E655FE4FC491CC23A9F0162F81110E94EE
:100430007201EC2FF0E0EE0FFF1FEA58FE4FA5917E
:10044000B4918FB7F894EC91111108C0D095DE23C8
:10045000DC938FBFDF91CF911F910895DE2BF8CFF2
:10046000CF93DF9390E0FC01E051FE4F249186553D
:100470009E4FFC0184918823D1F090E0880F991F52
:10048000FC01E45AFE4FA591B491FC01EA58FE4FDD
:10049000C591D49161110EC09FB7F8948C91E22F51
:1004A000E0958E238C932881E223E8839FBFDF9120
:1004B000CF9108958FB7F894EC91E22BEC938FBF16
:1004C000F6CF863308F0865320917B00982F9870E2
:1004D000277F922B90937B008770806480937C00B1
:1004E00080917A00806480937A0080917A0086FD02
:1004F000FCCF809178009091790008953FB7F894EF
:100500008091CD029091CE02A091CF02B091D00205
:1005100026B5A89B05C02F3F19F00196A11DB11D5E
:100520003FBFBA2FA92F982F8827BC01CD01620F9A
:10053000711D811D911D42E0660F771F881F991F55
:100540004A95D1F70895CF93DF938091BE020E9420
:10055000D901EC018091BC020E94D901AC0121E0DB
:10056000CD2B09F420E091E0452B09F490E0291708
:1005700079F021E030E08091C0029091C102820FB9
:10058000931F9093C1028093C002DF91CF91089591
:100590002FEF3FEFF0CF0895AF92BF92CF92DF924F
:1005A000EF92FF920F931F93CF93DF936C017B0128
:1005B0008B01040F151FEB015E01AE18BF08C017B9
:1005C000D10759F06991D601ED91FC910190F0812C
:1005D000E02DC6011995892B79F7C501DF91CF91DF
:1005E0001F910F91FF90EF90DF90CF90BF90AF9051
:1005F0000895FC01538D448D252F30E0842F90E029
:10060000821B930B541710F0CF960895019708950D
:10061000FC01918D828D981761F0A28DAE0FBF2FD6
:10062000B11D5D968C91928D9F5F9F73928F90E02C
:1006300008958FEF9FEF0895FC01918D828D98179B
:1006400031F0828DE80FF11D858D90E008958FEFD8
:100650009FEF0895FC01918D228D892F90E0805CA1
:100660009F4F821B91098F739927089581ED92E026
:100670000E942A0321E0892B09F420E0822F0895AB
:10068000FC01A48DA80FB92FB11DA35ABF4F2C9107
:10069000848D90E001968F739927848FA689B789FE
:1006A0002C93A089B1898C91837080648C93938DF5
:1006B000848D981306C00288F389E02D80818F7D98
:1006C00080830895EF92FF920F931F93CF93DF9350
:1006D000EC0181E0888F9B8D8C8D98131AC0E8897E
:1006E000F989808185FF15C09FB7F894EE89FF894D
:1006F0006083E889F98980818370806480839FBFEB
:1007000081E090E0DF91CF911F910F91FF90EF90EA
:100710000895F62E0B8D10E00F5F1F4F0F731127FA
:10072000E02E8C8D8E110CC00FB607FCFACFE88935
:10073000F989808185FFF5CFCE010E944003F1CF7A
:10074000EB8DEC0FFD2FF11DE35AFF4FF0829FB7A9
:10075000F8940B8FEA89FB8980818062CFCFCF9399
:10076000DF93EC01888D8823B9F0AA89BB89E889D9
:10077000F9898C9185FD03C0808186FD0DC00FB67F
:1007800007FCF7CF8C9185FFF2CF808185FFEDCFFD
:10079000CE010E944003E9CFDF91CF91089580E020
:1007A00090E0892B29F00E94360381110E940000FD
:1007B00080E090E0892B49F080E090E0892B29F0DF
:1007C0000E94000081110E94000080E090E0892BCF
:1007D00049F080E090E0892B29F00E94000081110F
:1007E0000E94000080E090E0892B49F080E090E0DA
:1007F000892B29F00E94000081110C9400000895BB
:10080000CF92DF92EF92FF921F93CF93DF93182F37
:100810000E9461020E947E026B017C010E947E02A6
:100820006C197D098E099F09683E73408105910509
:10083000A8F3CAE0D0E0C12CD12C7601812F0E9410
:100840006102092E000CAA0BBB0BC80ED91EEA1EB2
:10085000FB1E219799F7C701B6012AE030E040E07E
:1008600050E00E945B0BC901DF91CF911F91FF9077
:10087000EF90DF90CF900895089590E080E0089584
:100880008F929F92AF92BF920F931F93CF93DF935C
:10089000CDB7DEB7A1970FB6F894DEBF0FBECDBFC0
:1008A00019A2423008F44AE08E010F5D1F4F842EDA
:1008B000912CB12CA12CA50194010E94850BE62F4F
:1008C000B901CA01EA3044F5E05DD801EE938D012B
:1008D000232B242B252B79F790E080E0109769F0EB
:1008E000FD0101900020E9F73197AF014A1B5B0B36
:1008F000BD018EE693E00E94CC02A1960FB6F8945B
:10090000DEBF0FBECDBFDF91CF911F910F91BF9082
:10091000AF909F908F900895E95CD7CFFC01019034
:100920000020E9F73197AF01481B590BBC018EE657
:1009300093E00C94CC02CF93DF93EC0160E08E81C6
:100940000E94020261E08E810E94020260E08E81BC
:100950000E9402028BE891E00197F1F7DF91CF91BD
:100960000895CF92DF92EF92FF920F931F93CF9350
:10097000DF936C017C0187E0E80EF11CD0E0C0E061
:10098000062F10E0B8010C2E02C0759567950A94E9
:10099000E2F76170F70181917F010E9402022196C6
:1009A000C430D10579F7C601DF91CF911F910F9126
:1009B000FF90EF90DF90CF900C949B04CF92DF924A
:1009C000EF92FF920F931F93CF93DF93EC01F62EDC
:1009D000642F8C810E9402028D818F3F19F060E0AC
:1009E0000E9402020F2D10E08F8584FF25C06E014A
:1009F00087E0C80ED11CF12CE12CB8010E2C02C0EE
:100A0000759567950A94E2F76170F60181916F011F
:100A10000E940202FFEFEF1AFF0A88E0E816F104D5
:100A200061F7CE01DF91CF911F910F91FF90EF9071
:100A3000DF90CF900C949B04B80184E07595679586
:100A40008A95E1F7CE010E94B1046F2DCE01DF91AE
:100A5000CF911F910F91FF90EF90DF90CF900C946A
:100A6000B10440E0682F8EE693E00C94DE04CF934F
:100A7000DF93823029F490917D03986090937D03F9
:100A8000809381031092820380E48093830380E14A
:100A90008093840380E58093850361E080917203F5
:100AA0000E943002809173038F3F19F061E00E9431
:100AB000300261E0809174030E943002CEE6D3E000
:100AC0009E012E56334080917D0384FD0BC084E04F
:100AD00090E021962817390744F461E08E810E9446
:100AE0003002EECF88E090E0F4CF8BE39DE00197F9
:100AF000F1F760E0809172030E94020260E0809151
:100B000074030E940202809173038F3F19F060E02A
:100B10000E94020280917D0384FD39C063E08EE66D
:100B200093E00E94B104CBE4D6E4CE010197F1F743
:100B300063E08EE693E00E94B1042197F1F763E051
:100B40008EE693E00E94B10483E592E00197F1F70D
:100B500062E08EE693E00E94B10480917D038062A2
:100B60000E94310584E080937E038CE00E94310571
:100B700081E00E9431058BE39FE10197F1F782E06C
:100B800080937F0386E0DF91CF910C9431058062E2
:100B90000E9431058BE496E40197F1F780917D0383
:100BA00080620E94310583E592E00197F1F7809120
:100BB0007D0380620E943105D0CF90918103691737
:100BC00010F06FEF690FE62FF0E0E259FC4F9489C7
:100BD000890F80680C94310541E00E94DE0481E0B9
:100BE00090E00895CF92DF92EF92FF926C01990FFF
:100BF000EE08FF08F7FE16C041E06DE28EE693E0D6
:100C00000E94DE0466277727CB016C197D098E09C7
:100C10009F094AE00E9440040196FF90EF90DF9008
:100C2000CF9008954AE0C701B601FF90EF90DF90A2
:100C3000CF900C9440041F920F920FB60F92112484
:100C40002F933F938F939F93AF93BF938091C9024C
:100C50009091CA02A091CB02B091CC023091C8020F
:100C600023E0230F2D3758F50196A11DB11D2093C8
:100C7000C8028093C9029093CA02A093CB02B0939A
:100C8000CC028091CD029091CE02A091CF02B09182
:100C9000D0020196A11DB11D8093CD029093CE028A
:100CA000A093CF02B093D002BF91AF919F918F914B
:100CB0003F912F910F900FBE0F901F90189526E82F
:100CC000230F0296A11DB11DD2CF1F920F920FB616
:100CD0000F9211240BB60F922F933F934F935F9374
:100CE0006F937F938F939F93AF93BF93EF93FF93F4
:100CF000E0910E02F0910F021995FF91EF91BF91D3
:100D0000AF919F918F917F916F915F914F913F91A3
:100D10002F910F900BBE0F900FBE0F901F90189544
:100D20001F920F920FB60F9211240BB60F922F93B2
:100D30003F934F935F936F937F938F939F93AF9363
:100D4000BF93EF93FF93E0910C02F0910D02199580
:100D5000FF91EF91BF91AF919F918F917F916F9193
:100D60005F914F913F912F910F900BBE0F900FBE4F
:100D70000F901F9018951F920F920FB60F9211248B
:100D80000BB60F922F933F934F935F936F937F9385
:100D90008F939F93AF93BF93EF93FF93E0910202E2
:100DA000F09103021995FF91EF91BF91AF919F913F
:100DB0008F917F916F915F914F913F912F910F9004
:100DC0000BBE0F900FBE0F901F9018951F920F92A1
:100DD0000FB60F9211240BB60F922F933F934F93A0
:100DE0005F936F937F938F939F93AF93BF93EF9393
:100DF000FF93E0910002F09101021995FF91EF91AC
:100E0000BF91AF919F918F917F916F915F914F9122
:100E10003F912F910F900BBE0F900FBE0F901F9020
:100E200018951F920F920FB60F9211240BB60F92C6
:100E30002F933F934F935F936F937F938F939F93E2
:100E4000AF93BF93EF93FF93E0910A02F0910B02EF
:100E50001995FF91EF91BF91AF919F918F917F91E4
:100E60006F915F914F913F912F910F900BBE0F901B
:100E70000FBE0F901F9018951F920F920FB60F92F2
:100E800011240BB60F922F933F934F935F936F9361
:100E90007F938F939F93AF93BF93EF93FF93E091D3
:100EA0000802F09109021995FF91EF91BF91AF915E
:100EB0009F918F917F916F915F914F913F912F9172
:100EC0000F900BBE0F900FBE0F901F9018951F92A2
:100ED0000F920FB60F9211240BB60F922F933F93E0
:100EE0004F935F936F937F938F939F93AF93BF9332
:100EF000EF93FF93E0910602F09107021995FF919D
:100F0000EF91BF91AF919F918F917F916F915F9181
:100F10004F913F912F910F900BBE0F900FBE0F90EE
:100F20001F9018951F920F920FB60F9211240BB6B7
:100F30000F922F933F934F935F936F937F938F9372
:100F40009F93AF93BF93EF93FF93E0910402F091CF
:100F500005021995FF91EF91BF91AF919F918F91EC
:100F60007F916F915F914F913F912F910F900BBEA9
:100F70000F900FBE0F901F9018951F920F920FB6F3
:100F80000F9211240BB60F922F933F934F935F93C1
:100F90006F937F938F939F93AF93BF93EF93FF9341
:100FA00081ED92E00E944003FF91EF91BF91AF91DC
:100FB0009F918F917F916F915F914F913F912F9171
:100FC0000F900BBE0F900FBE0F901F9018951F92A1
:100FD0000F920FB60F9211240BB60F922F938F938F
:100FE0009F93EF93FF93E091E102F091E202808101
:100FF000E091E702F091E80282FD1DC090818091AE
:10100000EA028F5F8F732091EB02821741F0E0912B
:10101000EA02F0E0EF52FD4F958F8093EA02FF91D4
:10102000EF919F918F912F910F900BBE0F900FBE5C
:101030000F901F9018958081F2CFE1EDF2E01382BE
:10104000128288EE93E0A0E0B0E084839583A683CB
:10105000B7838CE292E09183808385EC90E0958762
:10106000848784EC90E09787868780EC90E0918B72
:10107000808B81EC90E0938B828B82EC90E0958B5F
:10108000848B86EC90E0978B868B118E128E138E5C
:10109000148EEEE6F3E0138212828EE392E09183E7
:1010A000808383E084838FEF858384E0868388E078
:1010B000878389E080878AE081878BE08287138637
:1010C000148615861686178681E00C943705789469
:1010D00084B5826084BD84B5816084BD85B582603D
:1010E00085BD85B5816085BD80916E0081608093EE
:1010F0006E00109281008091810082608093810057
:101100008091810081608093810080918000816066
:10111000809380008091B10084608093B1008091C1
:10112000B00081608093B0008091910082608093D4
:101130009100809191008160809391008091900056
:101140008160809390008091A10082608093A100D3
:101150008091A10081608093A1008091A0008160B6
:101160008093A00080912101826080932101809171
:101170002101816080932101809120018160809311
:10118000200180917A00846080937A0080917A00B7
:10119000826080937A0080917A00816080937A00E7
:1011A00080917A00806880937A001092C100E0916B
:1011B000E102F091E20282E08083E091DD02F091B1
:1011C000DE021082E091DF02F091E0028FEC80837A
:1011D0001092E902E091E502F091E60286E0808358
:1011E000E091E302F091E402808180618083E091EC
:1011F000E302F091E402808188608083E091E30261
:10120000F091E402808180688083E091E302F091B4
:10121000E40280818F7D808382E00E94370583E134
:1012200090E09093BF028093BE028BE190E0909398
:10123000BD028093BC0260E083E10E94300260E066
:101240008BE10E94300283EA92E09093090280933E
:101250000802809169008F7C806180936900EA9A1E
:1012600060E08DE10E94300260E08FE10E94300278
:1012700060E081E20E94300260E083E20E9430027E
:101280008FB7F8944091C9025091CA026091CB0285
:101290007091CC028FBF08E212E0C4E1D2E08881F5
:1012A000229661E00E9430020C171D07C1F7C09121
:1012B000C002D091C10280911202909113028C174A
:1012C0009D0799F060E080E00E94DD0586E492E0F1
:1012D0000E948E0460E08CE00E94DD05CE010E9439
:1012E000F205D0931302C09312028DE10E94D9013E
:1012F0008C018FE10E94D9017C0181E20E94D90119
:101300006C0183E20E94D9015C01012B09F4C0C188
:10131000E114F10479F0C114D10461F0892B51F08A
:10132000C536D105DCF561E080E00E94DD058DE683
:1013300092E032C0C536D1058CF560E080E00E94B5
:10134000DD0587E592E00E948E0461E080E00E9466
:10135000DD058CE792E00E948E0461E082E0EF28D8
:1013600009F045C10E94DD0587E692E00E948E04E7
:1013700061E084E0CD2809F03FC10E94DD0589E6E7
:1013800092E00E948E0461E086E0AB2809F039C14A
:101390000E94DD058BE692E00E948E04CE01855608
:1013A00091098436910508F0CDC088E390E00E9451
:1013B00000047C0189E390E00E9400048C018AE330
:1013C00090E00E9400046C019701FF0C440B550B48
:1013D0002F5F310941095109A0EDB7E00E947A0B56
:1013E00026E930E040E050E00E945B0B29013A0121
:1013F00088EE481A83E0580A61087108012E000C33
:10140000220B330BA90198012F5F310941095109C2
:10141000A0EDB7E00E947A0B26E930E040E050E012
:101420000E945B0B49015A01E8EE8E1AE3E09E0A26
:10143000A108B1080D2C000CEE08FF08A7019601C9
:101440002F5F310941095109A0EDB7E00E947A0BE5
:1014500026E930E040E050E00E945B0B69017A0130
:10146000F0EDCF1AF7E0DF0AE108F10860E080E074
:101470000E94DD05D301C20177FE07C088279927A6
:10148000DC0184199509A609B7098D329140A1059F
:10149000B1050CF4BBC08EE792E0141415041604D9
:1014A00017040CF4C2C087E892E045284628472874
:1014B00009F0BBC060E089E00E94DD05D501C401F0
:1014C000B7FE07C088279927DC0188199909AA095E
:1014D000BB098D329140A105B1050CF4ADC080E986
:1014E00092E0181419041A041B040CF4B4C087E920
:1014F00092E089288A288B2809F0ADC061E080E05D
:101500000E94DD05D701C601F7FE07C0882799278D
:10151000DC018C199D09AE09BF0981399140A105F3
:10152000B1050CF49FC08EE992E01C141D041E044A
:101530001F040CF4A6C083EA92E0CD28CE28CF2861
:1015400009F09FC087E30E9461027C01C93CD1057C
:1015500064F18091100290911102E816F90629F1C8
:101560009C0125503109E216F30624F005968E15EC
:101570009F05DCF460E080E00E94DD0588EA92E0EF
:101580000E948E0461E080E00E94DD058DE692E01D
:101590000E948E0461E080E00E94DD05C7010E9488
:1015A000F205F0921102E09210022AE030E0D70139
:1015B0000E94BE0B2FEF33E040E050E00E945B0B37
:1015C000790104E112E0D0E0C0E0F80180810E5F13
:1015D0001F4F61E0CE15DF050CF060E00E940202B3
:1015E0002196CA30D10589F70E94CF0360CE0E94B0
:1015F000DD058CE792E0BACE0E94DD058CE792E033
:10160000C0CE0E94DD058CE792E0C6CE8091C60276
:101610009091C70201969093C7028093C602853FBE
:1016200091400CF447CF85E792E00E948E0410921F
:10163000C7021092C6023ECF8091C4029091C502AB
:1016400001969093C5028093C402853F91400CF4AB
:1016500055CF87E792E00E948E041092C502109247
:10166000C4024CCF8091C2029091C3020196909324
:10167000C3028093C202853F91400CF463CF89E797
:1016800092E00E948E041092C3021092C2025ACFBE
:10169000C536D1050CF082CE60E080E00E94DD0509
:1016A00087E592E00E948E0461E080E00E94DD0503
:1016B00089EB92E050CE052E97FB1EF400940E9419
:1016C000720B57FD07D00E94850B07FC03D04EF428
:1016D0000C94720B50954095309521953F4F4F4F8C
:1016E0005F4F089590958095709561957F4F8F4FCE
:1016F0009F4F08950E94A70BA59F900DB49F900D3A
:10170000A49F800D911D11240895A1E21A2EAA1BF9
:10171000BB1BFD010DC0AA1FBB1FEE1FFF1FA217A1
:10172000B307E407F50720F0A21BB30BE40BF50B9E
:10173000661F771F881F991F1A9469F76095709527
:10174000809590959B01AC01BD01CF010895A29FAA
:10175000B001B39FC001A39F700D811D1124911D85
:10176000B29F700D811D1124911D0895EE0FFF1F72
:10177000881F8BBF0790F691E02D19940E94A70B4C
:0E178000B7FF0895821B930B0895F894FFCFD6
:10178E00CB02CB02CB02CB02CB02CB02CB02CB02E3
:10179E000F270F27170019001C0018001600110044
:1017AE0010000F000E000200000000006203CC02C9
:1017BE00F902AF032A0308031C0300000000EC0526
:1017CE00CC023D043C04456E636F64657572202047
:1017DE0020202020202000426F75746F6E28732900
:1017EE00204F4E20202000320033003400202020D5
:1017FE002020202020202020202020202000417684
:10180E00616E74202020004172726965726520003D
:10181E004761756368650044726F69746500426163
:10182E007320004861757400506F74656E74696F33
:0C183E006D6574726520202000310000F0
:00000001FF
